:020000040000FA
:060000009CEF28F0120045
:020006001200E6
:06000800C6EF25F0120016
:02000E000000F0
:020010000000EE
:0600180048EF25F0120084
:02001E000800D8
:10002000AE520000330F0000280000009352000081
:10003000E10000001B0000000E0000007B0F00002C
:100040000400000032520000800000006100000047
:10005000A3510000000100008F000000D942000001
:10006000FF01000001000000905100001A02000092
:1000700013000000705100005B0F00002000000022
:10008000D9CFE6FFE1CFD9FFE652AE50DF6E0101D6
:100090005651EA6A1B0FE96E0F0EEA22DFCFEFFF1F
:1000A000585143E15651EA6A1B0FE96E0F0EEA22DE
:1000B000EF50410802E1010E95D25651EA6A1B0F3A
:1000C000E96E0F0EEA22EF504D0802E10B0E8AD2C4
:1000D0005651EA6A1B0FE96E0F0EEA22EF505308E1
:1000E00002E1150E7FD25651EA6A1B0FE96E0F0E20
:1000F000EA22EF50430802E11F0E74D25651EA6A19
:100100001B0FE96E0F0EEA22EF50510802E1290E93
:1001100069D25651EA6A1B0FE96E0F0EEA22EF50C0
:10012000480801E0A8D2640E5DD258050CE1565192
:10013000EA6A1B0FE96E0F0EEA22EF50550801E044
:100140009AD2020E4FD2020E585D0CE15651EA6A65
:100150001B0FE96E0F0EEA22EF50540801E08BD21C
:10016000030E40D2030E585D16E15651EA6A1B0F8A
:10017000E96E0F0EEA22EF504F0801E07CD2586B77
:100180000B0E396F42C140F143C141F14AC148F100
:100190004BC149F1AAD10B0E585D0CE15651EA6AE8
:1001A0001B0FE96E0F0EEA22EF50410801E063D207
:1001B0000C0E18D20C0E585D0CE15651EA6A1B0F5A
:1001C000E96E0F0EEA22EF504E0801E054D20D0EF8
:1001D00009D20D0E585D24E15651EA6A1B0FE96EF3
:1001E0000F0EEA22EF50520806E11E0E396F850EFF
:1001F000E66E420E0ED05651EA6A1B0FE96E0F0EE4
:10020000EA22EF5047080AE11F0E396F5D0EE66ED5
:10021000420EE66EEEEC21F0E552E55201012AD2E3
:10022000150E585D0CE15651EA6A1B0FE96E0F0E70
:10023000EA22EF50450801E01ED2160ED3D1160E69
:10024000585D0CE15651EA6A1B0FE96E0F0EEA2267
:10025000EF50540801E00FD2170EC4D1170E585DAD
:1002600017E15651EA6A1B0FE96E0F0EEA22EF50B2
:10027000590802E1180EB6D15651EA6A1B0FE96E11
:100280000F0EEA22EF50470801E0F5D11A0EAAD16D
:10029000180E585D26E15651EA6A1B0FE96E0F0EE3
:1002A000EA22EF50D00F146E000E145C01E222D14E
:1002B0005651EA6A1B0FE96E0F0EEA22EF50D00F7B
:1002C000090801E217D15651EA6A1B0FE96E0F0EB9
:1002D000EA22EF50D00F0F012F6F306B0101190E82
:1002E00081D1190E585D6EE15651EA6A1B0FE96E15
:1002F0000F0EEA22EF50D00F146E000E145C01E2D4
:10030000F9D05651EA6A1B0FE96E0F0EEA22EF5040
:10031000D00F090801E2EED05651EA6A1B0FE96ED0
:100320000F0EEA22EF50D00F0F01316F326B0A0E21
:10033000086E096A2FCF0DF030CF0EF01DEC27F0BC
:1003400006500F01312501014A6F07500F0132217C
:1003500001014B6F586B280EE66E420EE66EEEEC16
:1003600021F0E552E5524AC114F04BC115F0166A6E
:10037000176A15AE02D01668176814C0E6FF15C0DC
:10038000E6FF16C0E6FF17C0E6FF14EC22F0E552C8
:10039000E552E552E552160EE66E420EE66EEEECC2
:1003A00021F0E552E552010146514A25426F47517D
:1003B0004B21436F42C140F1416F4AC148F14BC1EB
:1003C00049F159D11A0E585D26E15651EA6A1B0FC0
:1003D000E96E0F0EEA22EF50D00F146E000E145C7F
:1003E00001E288D05651EA6A1B0FE96E0F0EEA222D
:1003F000EF50D00F090801E27DD05651EA6A1B0F79
:10040000E96E0F0EEA22EF50D00F0F012F6F306B05
:1004100001011B0EE7D01B0E585D71E15651EA6ACF
:100420001B0FE96E0F0EEA22EF50D00F146E000E74
:10043000145C60E35651EA6A1B0FE96E0F0EEA2264
:10044000EF50D00F090856E35651EA6A1B0FE96EC8
:100450000F0EEA22EF50D00F0F01316F326B0A0EF0
:10046000086E096A2FCF0DF030CF0EF01DEC27F08B
:1004700006500F0131250101466F07500F0132214F
:100480000101476F586B040EE66E420EE66EEEEC0D
:1004900021F0E552E55246C114F047C115F0166A45
:1004A000176A15AE02D01668176814C0E6FF15C0AB
:1004B000E6FF16C0E6FF17C0E6FF14EC22F0E55297
:1004C000E552E552E552160EE66E420EE66EEEEC91
:1004D00021F0E552E552010146514A25426F47514C
:1004E0004B21436F42C140F1416F46C144F147C1C6
:1004F00045F1C1D0586B3B0EE66E420E52D01F0E36
:10050000585D0CE15651EA6A1B0FE96E0F0EEA22A4
:10051000EF50410801E0AFD0200E64D0200E585DAE
:1005200011E15651EA6A1B0FE96E0F0EEA22EF50F5
:10053000550801E0A0D0586B280E396FDC0EE66E2E
:10054000410E2FD0290E585D0CE15651EA6A1B0F5F
:10055000E96E0F0EEA22EF50550801E08CD02A0E0A
:1005600041D02A0E585D0CE15651EA6A1B0FE96E24
:100570000F0EEA22EF50490801E07DD02B0E32D059
:100580002B0E585D14E15651EA6A1B0FE96E0F0EEF
:10059000EA22EF5054086FE13969586BCC0EE66ED1
:1005A000410EE66EEEEC21F0E552E55264D0640EA9
:1005B000585D0BE15651EA6A1B0FE96E0F0EEA22F5
:1005C000EF50450858E1650E0DD0650E585D0CE101
:1005D0005651EA6A1B0FE96E0F0EEA22EF504C08E3
:1005E0004AE1660E586F47D0660E585D44E1565199
:1005F000EA6A1B0FE96E0F0EEA22EF5050083BE14A
:10060000BC0EE66E410EE66EEEEC21F0E552E552D0
:100610009B0EE66E410EE66EEEEC21F0E552E552E1
:10062000790EE66E410EE66EEEEC21F0E552E552F3
:10063000560EE66E410EE66EEEEC21F0E552E55206
:100640002A0EE66E410EE66EEEEC21F0E552E55222
:10065000FF0EE66E400EE66EEEEC21F0E552E5523E
:10066000E50EE66E400EE66EEEEC21F0E552E55248
:1006700001013969586B01015629146E140E156E6B
:100680000E6E14C009F0AAEC28F005C056F1010165
:10069000572BE552E552E7CFD9FF1200D9CFE6FF3D
:1006A000E1CFD9FF040EE126DE6ADD6A020EDB6AC5
:1006B000030EDB6A0FD9956A0F01665106E0666B7F
:1006C000DFDCC5EC1AF0C4EC07F040EC16F0F4D710
:1006D000D9CFE6FFE1CFD9FF020EE126DE6ADD6A5F
:1006E000DECF14F0DDCF15F0D890155004E6100ED3
:1006F000145C000E155830E2DECFE9FFDDCFEAFFD3
:10070000D890E936EA36330EE9260F0EEA22010EBA
:10071000EE181DE1ED501BE1DECF14F0DDCF15F03A
:10072000166A176A15AE02D01668176814C0E6FF7D
:1007300015C0E6FF16C0E6FF17C0E6FFE66A010E29
:10074000E66E6EEC17F0186E060EE15E1850DF2AAA
:10075000010EC6E3DB2AC4D7020EE15C02E2E16AC5
:10076000E552E16EE552E7CFD9FF12004EC1E6FF38
:100770004FC1E6FFE66AE66A95EC18F0E552E552ED
:10078000E552E55250C1E6FF51C1E6FF070EE66EA5
:10079000E66A95EC18F0E552E552E552E55252C191
:1007A000E6FF53C1E6FFE66A010EE66E95EC18F02F
:1007B000E552E552E552E55254C1E6FF55C1E6FF68
:1007C000070EE66E010EE66E95EC18F0E552E55266
:1007D000E552E552040E0101371901E1385124E0D8
:1007E000030E371901E1385117E0020E371901E104
:1007F00038510CE0010E371901E1385101E01200C7
:10080000E30EE66E400EE66E060E0BD0E30EE66ECD
:10081000400EE66E060E0DD0E30EE66E400EE66E5E
:100820000F0EE66EE66A08D0E30EE66E400EE66E48
:100830000F0EE66E010EE66E95EC18F0E552E552ED
:10084000E552E5521200D9CFE6FFE1CFD9FF040E01
:10085000E126DE6ADD6ADECF14F0DDCF15F0FD0E95
:10086000DBCF16F0FE0EDBCF17F015501718E8AEF1
:1008700002D0173404D01650145C175015581DE2DE
:10088000020EDB6A030EDB6A020EDBCF14F0030EEE
:10089000DBCF15F0D890155004E6EE0E145C000E78
:1008A000155806E2020EDB2A030EEEE3DB2AECD734
:1008B000DF2A010ED0E3DB2ACED7040EE15C02E290
:1008C000E16AE552E16EE552E7CFD9FF1200956A81
:1008D000836A120033D86DEC21F0F9DF70EC12F06E
:1008E000C4EC18F040EC25F01AEC14F011EC16F002
:1008F000F40EE66E010EE66EA6DFE552E552570EE7
:10090000E66E120EE66E9AEC1CF0E552E552660EAB
:10091000E66EB70EE66EFDEC1DF0E552E552020EF6
:10092000E66EE66AD8EC1EF0E552E552320EE66E4F
:10093000E66A09EC1FF0E552E5521200926A806AFD
:10094000966A1200060EE66EE66A71D9E552E55225
:10095000060EE66EE66A93D9E552E5521200070EDE
:10096000E66EE66A64D9E552E552070EE66EE66A7F
:1009700086D9E552E5521200D9CFE6FFE1CFD9FF83
:10098000020EE126DE6ADD6ADECF14F0DDCF15F05F
:10099000D890155004E6080E145C000E155822E29B
:1009A000FD0EDBCF16F0FE0EDBCF17F0DF5016C0CA
:1009B00014F017C015F005E0D89015321432E80491
:1009C000FBE11450010B04E001010051841003D03D
:1009D0000101001D8414846EB5DFDF2A010ED4E30B
:1009E000DB2AD2D7020EE15C02E2E16AE552E16E57
:1009F000E552E7CFD9FF1200D9CFE6FFE1CFD9FF0B
:100A0000FD0EDBCFE9FFFE0EDBCFEAFF0A0E0D6E17
:100A10000E6AE9CF08F0EACF09F076EC28F004C0BE
:100A2000E9FF05C0EAFF010ED890E936EA36E8068C
:100A3000FBE1590EE926010EEA22EECFE6FFEFCFE9
:100A4000E6FF9ADFE552E552FD0EDBCFE9FFFE0E31
:100A5000DBCFEAFF0A0E0D6E0E6AE9CF08F0EACF8F
:100A600009F076EC28F008C0E9FF09C0EAFF010EA2
:100A7000D890E936EA36E806FBE1590EE926010E80
:100A8000EA22EECFE6FFEFCFE6FF76DFE552E55252
:100A900066DFE552E7CFD9FF1200010E806E806A53
:100AA0001200020E806E806A1200D9CFE6FFE1CFFD
:100AB000D9FF020EE126DE6ADD6ADECF14F0DDCF5B
:100AC00015F0D890155004E6080E145C000E155869
:100AD00022E2FD0EDBCF16F0FE0EDBCF17F0DF506B
:100AE00016C014F017C015F005E0D8901532143276
:100AF000E804FBE11450010B04E0010101518410F2
:100B000003D00101011D8414846EC7DFDF2A010EAA
:100B1000D4E3DB2AD2D7020EE15C02E2E16AE552BD
:100B2000E16EE552E7CFD9FF1200D9CFE6FFE1CF62
:100B3000D9FFFD0EDBCFE9FFFE0EDBCFEAFF0A0E89
:100B40000D6E0E6AE9CF08F0EACF09F076EC28F0D6
:100B500004C0E9FF05C0EAFF010ED890E936EA3685
:100B6000E806FBE1590EE926010EEA22EECFE6FF88
:100B7000EFCFE6FF9ADFE552E552FD0EDBCFE9FF4E
:100B8000FE0EDBCFEAFF0A0E0D6E0E6AE9CF08F00B
:100B9000EACF09F076EC28F008C0E9FF09C0EAFFC7
:100BA000010ED890E936EA36E806FBE1590EE9264F
:100BB000010EEA22EECFE6FFEFCFE6FF76DFE55249
:100BC000E5526FDFE552E7CFD9FF12003EC114F0C6
:100BD0003FC115F0640E0D6E0E6A3EC108F03FC1B4
:100BE00009F0CAEC26F004C014F005C015F004C0EA
:100BF000E6FF05C0E6FF00DFE552E5523EC114F016
:100C00003FC115F0640E0D6E0E6A3EC108F03FC183
:100C100009F0CAEC26F008C014F009C015F008C0AD
:100C2000E6FF09C0E6FF81DFE552E5521200D9CFA9
:100C3000E6FFE1CFD9FFFE0EDBCF15F0800E1514D5
:100C40001AE1FD0EDBCF16F0FE0EDBCF17F01734E6
:100C500004E216500708000E17540DE3FD0EDBCF1B
:100C6000E9FFFE0EDBCFEAFF000EE926010EEA22C5
:100C7000EF508310836EE552E7CFD9FF1200D9CF32
:100C8000E6FFE1CFD9FFFE0EDBCF15F0800E151485
:100C90001AE1FD0EDBCF16F0FE0EDBCF17F0173496
:100CA00004E216500708000E17540DE3FD0EDBCFCB
:100CB000E9FFFE0EDBCFEAFF000EE926010EEA2275
:100CC000EF1C8314836EE552E7CFD9FF1200D9CF12
:100CD000E6FFE1CFD9FFFD0EDBCFE9FFFE0EDBCF54
:100CE000EAFF080EE926010EEA22EF0415E1FD0EE7
:100CF000DBCFE6FFFE0EDBCFE6FFC1DFE552E552BC
:100D0000FD0EDBCFE9FFFE0EDBCFEAFF080EE92682
:100D1000010EEA22EF6A15D0FD0EDBCFE6FFFE0ED4
:100D2000DBCFE6FF84DFE552E552FD0EDBCFE9FFC6
:100D3000FE0EDBCFEAFF080EE926010EEA22010EC5
:100D4000EF6EE552E7CFD9FF1200D9CFE6FFE1CF32
:100D5000D9FF020EE126DE6ADD6ADECF14F0DDCFB8
:100D600015F0D890155004E60E0E145C000E1558C0
:100D700021E2DECFE6FFDDCFE6FF59DFE552E552A7
:100D8000F40EE66E010EE66E5EDDE552E552DECF54
:100D9000E6FFDDCFE6FF73DFE552E552F40EE66EC7
:100DA000010EE66E50DDE552E552DF2A010ED5E375
:100DB000DB2AD3D7020EE15C02E2E16AE552E16E82
:100DC000E552E7CFD9FF12000F01010E3B1903E1F5
:100DD0003C5101E1010C000C0F01010E3D1903E132
:100DE0003E5101E1010C000C0F01010E3F1903E11E
:100DF000405101E1010C000CD9CFE6FFE1CFD9FF52
:100E0000FD0EDBCF08F0FE0EDBCF09F0030E081855
:100E100001E1095011E0020E081801E1095018E043
:100E2000010E081822E1095020E1D20EE66E400EB4
:100E3000E66EE66AE66A13D0D20EE66E400EE66E05
:100E4000E66AE66A95EC18F0E552E552E552E5529D
:100E5000D20EE66E400EE66EE66A010EE66E95EC88
:100E600018F0E552E552E552E552E552E7CFD9FFD9
:100E70001200D9CFE6FFE1CFD9FF020EE126DE6AEC
:100E8000DD6ADECF14F0DDCF15F0D890155004E602
:100E90000A0E145C000E15581DE2DECFE9FFDDCF0F
:100EA000EAFF6D0EE926010EEA22EF34EA6AFE0B34
:100EB000EA36E96E330EE9260F0EEA22010EEE182D
:100EC00004E1ED5002E1010E06D0DF2A010ED9E364
:100ED000DB2AD7D7000E146E020EE15C02E2E16A53
:100EE000E552E16E1450E552E7CFD9FF1200D9CF99
:100EF000E6FFE1CFD9FF020EE126DE6ADD6ADECF32
:100F000014F0DDCF15F0D890155004E60A0E145CED
:100F1000000E155829E2DECFE9FFDDCFEAFF6D0EA6
:100F2000E926010EEA22EF34EA6AFE0BEA36E96EA0
:100F3000330EE9260F0EEA22010EEE1810E1ED50F5
:100F40000EE1FE0EEA6ADB34FE0BEA36E96E3A0E7B
:100F5000E926010EEA22DECFEEFFDDCFEDFFDF2A2C
:100F6000010ECDE3DB2ACBD7020EE15C02E2E16A9F
:100F7000E552E16EE552E7CFD9FF120001013A6B6D
:100F80003B6B3C6B3D6B12000101812B000E8223F9
:100F90007B6B7D2B7E23796B832B84237C6B8B2B4C
:100FA0008C23110E7D1906E17E5104E17D6B7E6B71
:100FB000010E796FAA0E811906E1825104E1816B5D
:100FC000826B010E7B6F7C0E831907E1010E841981
:100FD00004E1836B846B010E7C6FF8DD01013951F4
:100FE000280A02E117EF11F0090A02E14FEF10F0B1
:100FF000010A02E19BEF0FF03F0A02E12DEF0FF033
:10100000010A02E1B7EF0EF00B0A02E13DEF0DF02D
:10101000010A02E179EF0CF0190A01E168D3030A31
:1010200001E166D2020A01E167D1070A5EE0F40A33
:1010300001E0120011EC16F042C140F143C141F150
:1010400046C144F147C145F101013E6B3F6BB6EC2F
:1010500003F0BADE000911E00101372B000E38233E
:10106000383508E237510408000E385503E2010E06
:10107000376F386B836B846B06D001017C5103E0C2
:101080000B0E396F7C6BA8DE000902E19FEF11F0B7
:10109000040E0101371901E1385123E0030E37191D
:1010A00001E138510FE0020E371901E1385108E033
:1010B000010E371901E1385101E012000B0E12D078
:1010C0001E0E10D05BDF0101140E396FB80EE66EF4
:1010D000400EE66EEEEC21F0E552E55201016BEFB9
:1010E0000DF0280E396F6BEF0DF089518A110CE16C
:1010F0009D0EE66E400EE66EEEEC21F0E552E552F6
:10110000010E0101896F8A6B000EE66EE66A8FDDC3
:10111000E552E552010EE66EE66AB1DDE552E552B2
:10112000020EE66EE66AABDDE552E552030EE66EB0
:10113000E66AA5DDE552E552040EE66EE66A9FDD3D
:10114000E552E552050EE66EE66A71DDE552E552BE
:1011500011EC16F0960EE66E400EE66EE66AE66A52
:1011600095EC18F0E552E552E552E5528F0EE66E29
:10117000400EE66EE66A010EE66E95EC18F0E5525A
:10118000E552E552E5520101453501E3A6D044514F
:101190000008000E455501E3A0D040C114F041C144
:1011A00015F0166A176A15AE02D01668176814C0D3
:1011B000E6FF15C0E6FF16C0E6FF17C0E6FF0E0EFD
:1011C000E66EE66A6EEC17F0186E060EE15E1850D9
:1011D00044C114F045C115F0166A176A15AE02D065
:1011E0001668176814C0E6FF15C0E6FF16C0E6FFD4
:1011F00017C0E6FF0E0EE66E010EE66E6EEC17F0FF
:10120000186E060EE15E1850640E086E096A40C141
:101210000DF041C10EF01DEC27F0065001014425F0
:101220003E6F075045213F6F79515FE0810EE66EBA
:10123000400EE66EEEEC21F0E552E55240C114F0AE
:1012400041C115F0166A176A15AE02D01668176804
:1012500014C0E6FF15C0E6FF16C0E6FF17C0E6FFA4
:1012600014EC22F0E552E552E552E5527E0EE66EB0
:10127000400EE66EEEEC21F0E552E5526E0EE66EA3
:10128000400EE66EEEEC21F0E552E55244C114F05A
:1012900045C115F0166A176A15AE02D016681768B0
:1012A00014C0E6FF15C0E6FF16C0E6FF17C0E6FF54
:1012B00014EC22F0E552E552E552E5527E0EE66E60
:1012C000400EE66EEEEC21F0E552E55201014007DA
:1012D000000E415B4407455B08D0856B866B0C0EA6
:1012E000396F46C144F147C145F17EDD000902E195
:1012F0009FEF11F04AEF10F0000EE66EE66A97DC01
:10130000E552E552010EE66EE66AB9DCE552E552B9
:10131000020EE66EE66AB3DCE552E552030EE66EB7
:10132000E66AADDCE552E552040EE66EE66A7FDC65
:10133000E552E552050EE66EE66AA1DCE552E5529D
:1013400011EC16F0960EE66E400EE66EE66AE66A60
:1013500095EC18F0E552E552E552E552670EE66E5F
:10136000400EE66EE66A010EE66E95EC18F0E55268
:10137000E552E552E5520101413501E3A6D0405165
:101380000008000E415501E3A0D040C114F041C156
:1013900015F0166A176A15AE02D01668176814C0E1
:1013A000E6FF15C0E6FF16C0E6FF17C0E6FF0E0E0B
:1013B000E66EE66A6EEC17F0186E060EE15E1850E7
:1013C00048C114F049C115F0166A176A15AE02D06B
:1013D0001668176814C0E6FF15C0E6FF16C0E6FFE2
:1013E00017C0E6FF0E0EE66E010EE66E6EEC17F00D
:1013F000186E060EE15E1850640E086E096A40C150
:101400000DF041C10EF01DEC27F0065001014825FA
:101410003E6F075049213F6F795163E0810EE66EC0
:10142000400EE66EEEEC21F0E552E55240C114F0BC
:1014300041C115F0166A176A15AE02D01668176812
:1014400014C0E6FF15C0E6FF16C0E6FF17C0E6FFB2
:1014500014EC22F0E552E552E552E5527E0EE66EBE
:10146000400EE66EEEEC21F0E552E552560EE66EC9
:10147000400EE66EEEEC21F0E552E55248C114F064
:1014800049C115F0166A176A15AE02D016681768BA
:1014900014C0E6FF15C0E6FF16C0E6FF17C0E6FF62
:1014A00014EC22F0E552E552E552E5527E0EE66E6E
:1014B000400EE66EEEEC21F0E552E55201014007E8
:1014C000000E415B4807495B0CD0856B866B0E0EA6
:1014D000396F42C140F143C141F14AC148F14BC1AA
:1014E00049F182DC000902E19FEF11F04AEF10F0B0
:1014F000000EE66EE66A3FEC06F0E552E552010E9C
:10150000E66EE66A3FEC06F0E552E552020EE66E44
:10151000E66A17EC06F0E552E552030EE66EE66A5F
:1015200017EC06F0E552E552040EE66EE66A3FEC73
:1015300006F0E552E552050EE66EE66A3FEC06F06F
:10154000E552E55211EC16F0500EE66E400EE66ED6
:10155000E66AE66A95EC18F0E552E552E552E55286
:101560004C0EE66E400EE66EE66A010EE66E95ECF7
:1015700018F0E552E552E552E5520101453501E327
:10158000A6D044510008000E455501E3A0D044C147
:1015900014F045C115F0166A176A15AE02D0166828
:1015A000176814C0E6FF15C0E6FF16C0E6FF17C0B7
:1015B000E6FF0E0EE66EE66A6EEC17F0186E060E8B
:1015C000E15E185040C114F041C115F0166A176A67
:1015D00015AE02D01668176814C0E6FF15C0E6FF06
:1015E00016C0E6FF17C0E6FF0E0EE66E010EE66EB1
:1015F0006EEC17F0186E060EE15E1850640E086E61
:10160000096A44C10DF045C10EF01DEC27F00650EB
:10161000010140253E6F075041213F6F79515FE046
:101620003C0EE66E400EE66EEEEC21F0E552E55221
:1016300044C114F045C115F0166A176A15AE02D000
:101640001668176814C0E6FF15C0E6FF16C0E6FF6F
:1016500017C0E6FF14EC22F0E552E552E552E552E0
:101660007E0EE66E400EE66EEEEC21F0E552E5529F
:101670002E0EE66E400EE66EEEEC21F0E552E552DF
:1016800040C114F041C115F0166A176A15AE02D0B8
:101690001668176814C0E6FF15C0E6FF16C0E6FF1F
:1016A00017C0E6FF14EC22F0E552E552E552E55290
:1016B0007E0EE66E400EE66EEEEC21F0E552E5524F
:1016C00001014407000E455B4007415B08D0856B74
:1016D000866B0D0E396F46C144F147C145F1F4ECFC
:1016E00006F0000902E19FEF11F04AEF10F0000E42
:1016F000E66EE66A3FEC06F0E552E552010EE66E54
:10170000E66A17EC06F0E552E552020EE66EE66A6E
:101710003FEC06F0E552E552030EE66EE66A17EC82
:1017200006F0E552E552040EE66EE66A3FEC06F07E
:10173000E552E552050EE66EE66A3FEC06F0E5522C
:10174000E55211EC16F0670EE66E400EE66EE66AA4
:10175000E66A95EC18F0E552E552E552E5524C0E7A
:10176000E66E400EE66EE66A010EE66E95EC18F047
:10177000E552E552E552E5520101413501E3A6D0BB
:1017800040510008000E415501E3A0D048C114F0BB
:1017900049C115F0166A176A15AE02D016681768A7
:1017A00014C0E6FF15C0E6FF16C0E6FF17C0E6FF4F
:1017B0000E0EE66EE66A6EEC17F0186E060EE15E2F
:1017C000185040C114F041C115F0166A176A15AEE1
:1017D00002D01668176814C0E6FF15C0E6FF16C0F1
:1017E000E6FF17C0E6FF0E0EE66E010EE66E6EEC2B
:1017F00017F0186E060EE15E1850640E086E096A46
:1018000048C10DF049C10EF01DEC27F00650010152
:1018100040253E6F075041213F6F795163E01D0E17
:10182000E66E400EE66EEEEC21F0E552E55248C160
:1018300014F049C115F0166A176A15AE02D0166881
:10184000176814C0E6FF15C0E6FF16C0E6FF17C014
:10185000E6FF14EC22F0E552E552E552E5527E0E29
:10186000E66E400EE66EEEEC21F0E552E5522E0EED
:10187000E66E400EE66EEEEC21F0E552E55240C118
:1018800014F041C115F0166A176A15AE02D0166839
:10189000176814C0E6FF15C0E6FF16C0E6FF17C0C4
:1018A000E6FF14EC22F0E552E552E552E5527E0ED9
:1018B000E66E400EE66EEEEC21F0E552E5520101D7
:1018C0004807000E495B4007415B0CD0856B866B77
:1018D0000B0E396F42C140F143C141F14AC148F199
:1018E0004BC149F1F4EC06F0000902E19FEF11F061
:1018F000D1D311EC16F00D0EE66E400EE66EE66AE0
:10190000E66A95EC18F0E552E552E552E552070E0D
:10191000E66E400EE66EE66A010EE66E95EC18F095
:10192000E552E552E552E552010189518A110CE177
:10193000D20EE66E3F0EE66EEEEC21F0E552E55279
:10194000010E0101896F8A6B7B5101E0C3D0775191
:1019500078110FE1D00EE66E3F0EE66E0F0EE66ECA
:10196000010EE66E95EC18F0E552E552E552E552AF
:101970001CD03CC114F03DC115F0166A176A15AEB3
:1019800002D01668176814C0E6FF15C0E6FF16C03F
:10199000E6FF17C0E6FF0F0EE66E010EE66E6EEC78
:1019A00017F0186E060EE15E185040EC16F0E4ECED
:1019B00006F0010813E101013C2B000E3D233D35EB
:1019C00008E23C510908000E3D5503E2010E3C6F50
:1019D0003D6B010E776F786B816B826BF4EC06F0D8
:1019E000010809E1BEEC07F00101150E396F9D0EEB
:1019F000E66E3F0E27D1ECEC06F0010802E09FEF07
:101A000011F03CC14AF13DC14BF101014A5146255B
:101A1000426F4B514721436F150E396FBEEC07F0F3
:101A20000101776B786B780EE66E3F0EE66EEEEC9A
:101A300021F0E552E5524AC114F04BC115F0166A87
:101A4000176A15AE02D01668176814C0E6FF15C0F5
:101A5000E6FF16C0E6FF17C0E6FF14EC22F0E552E1
:101A6000E552E552E5526C0EE66E3F0EE66EEEEC88
:101A700021F0E552E552010177D111EC16F05D0E2F
:101A8000E66E3F0EE66EE66AE66A95EC18F0E55201
:101A9000E552E552E552550EE66E3F0EE66EE66AF9
:101AA000010EE66E95EC18F0E552E552E552E5526E
:101AB000010189518A110CE1210EE66E3F0EE66E9E
:101AC000EEEC21F0E552E552010E0101896F8A6BBF
:101AD0007B5104E03969896B8A6B12007751781168
:101AE00006E11E0EE66E3F0EE66E0E0E26D0010ECD
:101AF00077192DE178512BE13AC114F03BC115F073
:101B0000166A176A15AE02D01668176814C0E6FF89
:101B100015C0E6FF16C0E6FF17C0E6FF0E0EE66E24
:101B2000010EE66E6EEC17F0186E060EE15E1850B0
:101B3000D00EE66E3F0EE66E0F0EE66E010EE66EFE
:101B400095EC18F0E552E552E552E5523DD0020E13
:101B500077193CE178513AE13AC114F03BC115F0F4
:101B6000166A176A15AE02D01668176814C0E6FF29
:101B700015C0E6FF16C0E6FF17C0E6FF0E0EE66EC4
:101B8000010EE66E6EEC17F0186E060EE15E185050
:101B90003CC114F03DC115F0166A176A15AE02D0AB
:101BA0001668176814C0E6FF15C0E6FF16C0E6FF0A
:101BB00017C0E6FF0F0EE66E010EE66E6EEC17F034
:101BC000186E060EE15E185040EC16F0E4EC06F0DC
:101BD00001082DE101017751781103E1010E776FC2
:101BE000786B010E771910E178510EE13A2B000E57
:101BF0003B233B351AE23A510908000E3B5515E2EA
:101C0000010E3A6F3B6B11D0020E77190EE178513D
:101C10000CE13C2B000E3D233D3507E23C51090809
:101C2000000E3D5502E23C6B3D6B816B826BF4EC28
:101C300006F001080DE1BEEC07F001013969EC0E78
:101C4000E66E3E0EE66EEEEC21F0E552E552120035
:101C5000ECEC06F0000901E172D30101010E7719E5
:101C600006E1785104E1020E776F786B7DD0020EA9
:101C7000771901E079D0785101E076D00B0E396FF9
:101C80000A0E086E096A3AC10DF03BC10EF01DEC58
:101C900027F0065001013C25466F07503D21476F54
:101CA00046514A25426F47514B21436F42C140F193
:101CB000416F46C144F147C145F14AC148F14BC1AA
:101CC00049F1C80EE66E3E0EE66EEEEC21F0E552EE
:101CD000E55246C114F047C115F0166A176A15AEF1
:101CE00002D01668176814C0E6FF15C0E6FF16C0DC
:101CF000E6FF17C0E6FF14EC22F0E552E552E5528C
:101D0000E5526C0EE66E3F0EE66EEEEC21F0E5520B
:101D1000E552B20EE66E3E0EE66EEEEC21F0E552B6
:101D2000E55242C114F043C115F0166A176A15AEA8
:101D300002D01668176814C0E6FF15C0E6FF16C08B
:101D4000E6FF17C0E6FF14EC22F0E552E552E5523B
:101D5000E5526C0EE66E3F0EE66EEEEC21F0E552BB
:101D6000E5520101896B8A6B816B826B120011EC69
:101D700016F04C0EE66E400EE66EE66AE66A95ECEC
:101D800018F0E552E552E552E552500EE66E400E6F
:101D9000E66EE66A010EE66E95EC18F0E552E55245
:101DA000E552E552000EE66EE66A17EC06F0E552E3
:101DB000E552010EE66EE66A3FEC06F0E552E552AA
:101DC000020EE66EE66A3FEC06F0E552E552030EBF
:101DD000E66EE66A3FEC06F0E552E552040EE66E6A
:101DE000E66A3FEC06F0E552E552050EE66EE66A5D
:101DF00017EC06F0E552E552010189518A111CE108
:101E00009A0EE66E3E0EE66EEEEC21F0E552E552DD
:101E10008C0EE66E3E0EE66EEEEC21F0E552E552DB
:101E20007C0EE66E3E0EE66EEEEC21F0E552E552DB
:101E3000010E0101896F8A6B3E6B3F6BE4EC06F08B
:101E4000010805E10101200E396F896B8A6BF4EC02
:101E500006F0000901E173D21DD111EC16F0500E0D
:101E6000E66E400EE66EE66AE66A95EC18F0E5521C
:101E7000E552E552E5524C0EE66E400EE66EE66A1D
:101E8000010EE66E95EC18F0E552E552E552E5528A
:101E9000000EE66EE66A3FEC06F0E552E552010EF2
:101EA000E66EE66A3FEC06F0E552E552020EE66E9B
:101EB000E66A17EC06F0E552E552030EE66EE66AB6
:101EC00017EC06F0E552E552040EE66EE66A3FECCA
:101ED00006F0E552E552050EE66EE66A3FEC06F0C6
:101EE000E552E552010189518A1114E17C0EE66E3A
:101EF0003E0EE66EEEEC21F0E552E5528C0EE66EFB
:101F00003E0EE66EEEEC21F0E552E552010E0101C7
:101F1000896F8A6B3E6B3F6BE4EC06F0010805E1CC
:101F20000101210E396F896B8A6BF4EC06F0000910
:101F300001E105D2AFD011EC16F04C0EE66E400E6A
:101F4000E66EE66AE66A95EC18F0E552E552E5526F
:101F5000E552670EE66E400EE66EE66A010EE66E2C
:101F600095EC18F0E552E552E552E552000EE66EAA
:101F7000E66A17EC06F0E552E552010EE66EE66AF7
:101F80003FEC06F0E552E552020EE66EE66A3FECE3
:101F900006F0E552E552030EE66EE66A3FEC06F007
:101FA000E552E552040EE66EE66A17EC06F0E552DD
:101FB000E552050EE66EE66A3FEC06F0E552E552A4
:101FC00001014D355DE24C510008000E4D5558E2BF
:101FD0004CC114F04DC115F0166A176A15AE02D047
:101FE0001668176814C0E6FF15C0E6FF16C0E6FFC6
:101FF00017C0E6FF0E0EE66E010EE66E6EEC17F0F1
:10200000186E060EE15E18504CC13EF14DC13FF115
:10201000010179513AE08C0EE66E3E0EE66EEEEC72
:1020200021F0E552E5526B0EE66E3E0EE66EEEECEA
:1020300021F0E552E5524CC114F04DC115F0166A7D
:10204000176A15AE02D01668176814C0E6FF15C0EF
:10205000E6FF16C0E6FF17C0E6FF14EC22F0E552DB
:10206000E552E552E5527E0EE66E400EE66EEEEC6F
:1020700021F0E552E55201014C07000E4D5B05D001
:102080001F0E396F030E4C6F4D6BF4EC06F0000918
:1020900001E155D101013969836B846B120011ECA8
:1020A00016F0670EE66E400EE66EE66AE66A95EC9E
:1020B00018F0E552E552E552E5524C0EE66E400E40
:1020C000E66EE66A010EE66E95EC18F0E552E55212
:1020D000E552E552000EE66EE66A3FEC06F0E55288
:1020E000E552010EE66EE66A17EC06F0E552E5529F
:1020F000020EE66EE66A3FEC06F0E552E552030E8C
:10210000E66EE66A17EC06F0E552E552040EE66E5E
:10211000E66A3FEC06F0E552E552050EE66EE66A29
:102120003FEC06F0E552E55201014D356DE24C51B0
:102130000008000E4D5568E24CC114F04DC115F079
:10214000166A176A15AE02D01668176814C0E6FF43
:1021500015C0E6FF16C0E6FF17C0E6FF0E0EE66EDE
:10216000E66A6EEC17F0186E060EE15E1850640E0B
:10217000086E096A4CC10DF04DC10EF01DEC27F040
:1021800006C03EF107C03FF10101795142E06B0EFC
:10219000E66E3E0EE66EEEEC21F0E552E5524CC1E5
:1021A00014F04DC115F0166A176A15AE02D0166804
:1021B000176814C0E6FF15C0E6FF16C0E6FF17C09B
:1021C000E6FF14EC22F0E552E552E552E5527E0EB0
:1021D000E66E400EE66EEEEC21F0E552E5525F0E43
:1021E000E66E3E0EE66EEEEC21F0E552E5527E0E16
:1021F000E66E400EE66EEEEC21F0E552E55201018E
:102200004C07000E4D5B05D01E0E396F030E4C6F50
:102210004D6BF4EC06F0000904E001013969836BB1
:10222000846BF4EC06F0010801E089D085D0895177
:102230008A110CE1500EE66E3E0EE66EEEEC21F0D9
:10224000E552E552010E0101896F8A6B11EC16F01F
:10225000670EE66E400EE66EE66A010EE66E95ECDF
:1022600018F0E552E552E552E552670EE66E400E73
:10227000E66EE66AE66A95EC18F0E552E552E5523C
:10228000E5520101800E7E1529E17E3504E27D5183
:102290000708000E7E5522E3000EE66EE66A3FEC6C
:1022A00006F0E552E552010EE66EE66A3FEC06F0F6
:1022B000E552E552020EE66EE66A3FEC06F0E552A4
:1022C000E552030EE66EE66A3FEC06F0E552E55293
:1022D000040EE66EE66A3FEC06F021D0000EE66ED4
:1022E000E66A3FEC06F0E552E552010EE66EE66A5C
:1022F00017EC06F0E552E552020EE66EE66A3FEC98
:1023000006F0E552E552030EE66EE66A3FEC06F093
:10231000E552E552040EE66EE66A17EC06F0E55269
:10232000E552050EE66EE66A3FEC06F0E552E55230
:10233000F4EC06F0010803E1010139691200120012
:10234000D9CFE6FFE1CFD9FF040EE126DE6ADD6AD0
:10235000DECF14F0DDCF15F0166A176A15AE02D085
:1023600016681768D950FB0FE96EFF0EDA20EA6E87
:10237000EE50145CEE501558EE501658EE501758AB
:102380001DE2020EDB6A030EDB6A020EDBCF14F0E5
:10239000030EDBCF15F0D890155004E6050E145C43
:1023A000000E155806E2020EDB2A030EEEE3DB2ACE
:1023B000ECD7DF2A010ECCE3DB2ACAD7040EE15C9E
:1023C00002E2E16AE552E16EE552E7CFD9FF120081
:1023D000D9CFE6FFE1CFD9FF040EE126DE6ADD6A40
:1023E000DECF14F0DDCF15F0166A176A15AE02D0F5
:1023F00016681768D950FB0FE96EFF0EDA20EA6EF7
:10240000EE50145CEE501558EE501658EE5017581A
:102410001DE2020EDB6A030EDB6A020EDBCF14F054
:10242000030EDBCF15F0D890155004E6EE0E145CC9
:10243000000E155806E2020EDB2A030EEEE3DB2A3D
:10244000ECD7DF2A010ECCE3DB2ACAD7040EE15C0D
:1024500002E2E16AE552E16EE552E7CFD9FF1200F0
:10246000D9CFE6FFE1CFD9FF0F0E8116FE0EDB506C
:10247000F00B81128186010EE66EE66AE66AE66A74
:10248000A7DFE552E552E552E5528196010EE66E70
:10249000E66AE66AE66A9CDFE552E552E552E552F5
:1024A0000F0E8116FE0EDB38F00B81128186010EB5
:1024B000E66EE66AE66AE66A8BDFE552E552E552C9
:1024C000E5528196010EE66EE66AE66AE66A80DF0C
:1024D000E552E552E552E552E552E7CFD9FF120049
:1024E000D9CFE6FFE1CFD9FFE652936A190EE66E27
:1024F000E66AE66AE66A6CDFE552E552E552E552C5
:102500000F0E8116F80E81160F0E8116300E8112F5
:102510008186010EE66EE66AE66AE66A59DFE552F2
:10252000E552E552E5528196010EE66EE66AE66AEC
:10253000E66A4EDFE552E552E552E5520F0E81168E
:10254000300E81128186010EE66EE66AE66AE66A60
:102550003FDFE552E552E552E5528196010EE66E07
:10256000E66AE66AE66A34DFE552E552E552E5528C
:102570000F0E8116300E81128186010EE66EE66A1C
:10258000E66AE66A25DFE552E552E552E5528196B4
:10259000010EE66EE66AE66AE66A1ADFE552E55281
:1025A000E552E5520F0E8116818A8186010EE66E94
:1025B000E66AE66AE66A0CDFE552E552E552E55264
:1025C0008196010EE66EE66AE66AE66A01DFE5528A
:1025D000E552E552E552280EE66E42DFE5520C0E5A
:1025E000E66E3EDFE552E552E552E7CFD9FF120035
:1025F000D9CFE6FFE1CFD9FF020EE126DF6A010E57
:10260000DB6A81940F0EE66EE66AE66AE66A98DE99
:10261000E552E552E552E5520F0E81128186E66ED3
:10262000E66AE66AE66A8CDEE552E552E552E55274
:102630000F0E8114E76E010EE7CFDBFF81960F0EC0
:10264000E66EE66AE66AE66A7BDEE552E552E55248
:10265000E5520F0E81128186E66EE66AE66AE66A48
:102660006FDEE552E552E552E5520F0E8114DF6E42
:10267000010EDB50DF128196010EE66EE66AE66A15
:10268000E66A5EDEE552E552E552E552DF50146E31
:10269000020EE15C02E2E16AE552E16E1450E5529D
:1026A000E7CFD9FF1200D9CFE6FFE1CFD9FFE6523D
:1026B000DF6A9EDFDF6EDFBEFCD7DF50E552E552FA
:1026C000E7CFD9FF1200D9CFE6FFE1CFD9FF0F0E38
:1026D0008116FE0EDB5081128186050EE66EE66ADB
:1026E000E66AE66A2DDEE552E552E552E55281964C
:1026F000050EE66EE66AE66AE66A22DEE552E55215
:10270000E552E552E552E7CFD9FF1200D9CFE6FFF7
:10271000E1CFD9FF8194050EE66EE66AE66AE66AC5
:102720000FDEE552E552E552E552FE0EDBCFE6FF45
:10273000CADFE552FE0EDB38F00BE66EC4DFE55271
:10274000E552E7CFD9FF1200D9CFE6FFE1CFD9FF9D
:102750008184050EE66EE66AE66AE66AF1DDE55218
:10276000E552E552E552FE0EDBCFE6FFACDFE55267
:10277000FE0EDB38F00BE66EA6DFE5528194E552E3
:10278000E7CFD9FF1200D9CFE6FFE1CFD9FFFE0E88
:10279000DBCFE6FFD9DFE552E552E7CFD9FF1200E4
:1027A000D9CFE6FFE1CFD9FFFE0EDBCFE6FFCCDFCE
:1027B000E552E552E7CFD9FF1200D9CFE6FFE1CFCE
:1027C000D9FFFD0EDBCFF6FFFE0EDBCFF7FF0800D3
:1027D000F5500FE0FD0EDBCFF6FFDB2AFE0EDBCF60
:1027E000F7FF01E3DB2A0800F550E66ED9DFE5527A
:1027F000E8D7E552E7CFD9FF1200D9CFE6FFE1CF06
:10280000D9FFE652FD0EDB500F0B146EFE0EDB50AF
:10281000010B400DF3501424DF6E7F0EDF14800F88
:10282000DF6EDFCFE6FF72DFE552E552E552E7CF1C
:10283000D9FF1200010EE66E69DFE552E66AE66A2C
:10284000DCDFE552E5521200D9CFE6FFE1CFD9FF38
:10285000050EE126010EF36EDB6E020EDB6A030E3F
:10286000DB6A040EDB6ADF6ADFCF14F0156A14BE80
:102870001568FB0EDBCF16F0FC0EDBCF17F0155002
:102880001718E8AE02D0173404D01650145C175055
:1028900015582DE2FD0EDBCF14F0FE0EDBCF15F048
:1028A000166A176A15AE02D016681768D950010F5C
:1028B000E96EDACFEAFF14C00BF015C00CF016C0B9
:1028C0000DF017C00EF0EECF06F0EECF07F0EECF12
:1028D00008F0EFCF09F0E1EC27F005C0EDFF04C0F0
:1028E000EDFF03C0EDFF02C0EFFFDF2ABDD7010EF1
:1028F000DBCF14F0020EDBCF15F0030EDBCF16F0AA
:10290000040EDBCF17F014C006F015C007F016C098
:1029100008F017C009F0050EE15C02E2E16AE55239
:10292000E16EE552E7CFD9FF1200D9CFE6FFE1CF44
:10293000D9FF020EE126DF6AFB0EDBCF14F0FC0E9E
:10294000DBCF15F0FD0EDBCF16F0FE0EDBCF17F060
:10295000145015101610171005E1300EE66E20DF2A
:10296000E552F4D0D950FB0FE96EFF0EDA20EA6E83
:10297000D890030EEB50000A08E6000EEE5C000E45
:10298000EE58000EEE58000EEE5815E22D0EE66ED3
:1029900007DFE552D950FB0FE96EFF0EDA20EA6E31
:1029A000000EEE6CEF1EEE22EF1EEE22EF1EEF2267
:1029B000ED52ED52ED52DE52070EDD6E010EDBCF11
:1029C00014F0000EE76E1418E8AE02D0143403D0F1
:1029D000E750D880145401E3B9D0010EDB04186E1F
:1029E000196A18BE196818C0E6FF19C0E6FF0A0E7A
:1029F000E66EE66A29DFE552E552E552E55206C089
:102A000014F007C015F008C016F009C017F006C092
:102A10000BF007C00CF008C00DF009C00EF0FB0E63
:102A2000DBCF06F0FC0EDBCF07F0FD0EDBCF08F0AE
:102A3000FE0EDBCF09F019EC28F006500710081045
:102A4000091041E0010EDF6EDB041C6E1D6A1CBE26
:102A50001D681CC0E6FF1DC0E6FF0A0EE66EE66AB2
:102A6000F3DEE552E552E552E55206C018F007C024
:102A700019F008C01AF009C01BF006C00BF007C01F
:102A80000CF008C00DF009C00EF0FB0EDBCF06F015
:102A9000FC0EDBCF07F0FD0EDBCF08F0FE0EDBCF28
:102AA00009F019EC28F006C014F007C015F008C0B2
:102AB00016F009C017F0300E1426000E152216224B
:102AC0001722145003D0DF5004E0300EE66E68DEAB
:102AD000E552010EDB04186E196A18BE196818C099
:102AE000E6FF19C0E6FF0A0EE66EE66AADDEE552C5
:102AF000E552E552E55206C014F007C015F008C0D3
:102B000016F009C017F0D950FB0FE96EFF0EDA205E
:102B1000EA6E06C00BF007C00CF008C00DF009C04B
:102B20000EF0EECF06F0EECF07F0EECF08F0EFCFCD
:102B300009F019EC28F005C0EDFF04C0EDFF03C05B
:102B4000EDFF02C0EFFF010EDB0638D7020EE15C9D
:102B500002E2E16AE552E16EE552E7CFD9FF1200E9
:102B6000D9CFE6FFE1CFD9FFFD0EDBCFE6FFFE0EAA
:102B7000DBCFE6FF42DEE552E552D950F90FE96EB0
:102B8000FF0EDA20EA6EEECFE6FFEECFE6FFEECFE5
:102B9000E6FFEFCFE6FFC9DEE552E552E552E5522A
:102BA000E552E7CFD9FF1200D9CFE6FFE1CFD9FF39
:102BB000FD0EDBCFE6FFFE0EDBCFE6FF1EDEE552AD
:102BC000E552FB0EDBCFE6FFFC0EDBCFE6FFF5DDCB
:102BD000E552E552E552E7CFD9FF1200D9CFE6FF23
:102BE000E1CFD9FFFCC014F0FDC015F0040ED89061
:102BF00014361536E806FBE1C10E1426000E152228
:102C000014500001FE25E96E1550FF21EA6EFE0EFC
:102C1000DBCFEFFFFE2B000EFF23E552E7CFD9FFFE
:102C20001200D9CFE6FFE1CFD9FFE652DF6ADFCF4E
:102C300014F0100EE76E1418E8AE02D0E73402D09C
:102C4000E750145C18E2DFCFE9FFEA6AE9BEEA6800
:102C5000C10EE926000EEA22200EEF6EDFCFE9FF5B
:102C6000EA6AE9BEEA68D10EE926000EEA22200EE1
:102C7000EF6EDF2ADCD7E552E552E7CFD9FF12002D
:102C8000D9CFE6FFE1CFD9FFE6520001C051030AD8
:102C900052E0010A36E0030A1AE0010A67E1E66A37
:102CA000E66AABDDE552E552DF6A080EDF5C0CE256
:102CB000DF50EA6AC10FE96E000EEA22EF50E66EBD
:102CC0006FDDE552DF2AF1D70001010E32D0080E88
:102CD000E66EE66A92DDE552E552DF6A080EDF5CD9
:102CE0000DE2080EDF24EA6AC10FE96E000EEA2247
:102CF000EF50E66E55DDE552DF2AF0D70001020EF7
:102D000018D0E66A010EE66E78DDE552E552DF6A1C
:102D1000080EDF5C0CE2DF50EA6AD10FE96E000EAC
:102D2000EA22EF50E66E3CDDE552DF2AF1D70001E2
:102D3000030EC06F1CD0080EE66E010EE66E5DDD60
:102D4000E552E552DF6A080EDF5C0DE2080EDF2473
:102D5000EA6AD10FE96E000EEA22EF50E66E20DD3E
:102D6000E552DF2AF0D70001C06B01D0C06BE552FD
:102D7000E552E7CFD9FF1200D9CFE6FFE1CFD9FF67
:102D8000E6520001C051010A1BE0010A32E1E66A85
:102D9000E66A33DDE552E552DF6A100EDF5C0CE2D5
:102DA000DF50EA6AC10FE96E000EEA22EF50E66ECC
:102DB000F7DCE552DF2AF1D70001010EC06F1AD00F
:102DC000E66A010EE66E19DDE552E552DF6A100E85
:102DD000DF5C0CE2DF50EA6AD10FE96E000EEA22F6
:102DE000EF50E66EDDDCE552DF2AF1D70001C06B63
:102DF00001D0C06BE552E552E7CFD9FF1200D9CF21
:102E0000E6FFE1CFD9FFE652E66AE66AF6DCE55274
:102E1000E552DF6A100EDF5C0CE2DF50EA6AC10F98
:102E2000E96E000EEA22EF50E66EBADCE552DF2AC8
:102E3000F1D7E66A010EE66EE0DCE552E552DF6AA4
:102E4000100EDF5C0CE2DF50EA6AD10FE96E000E73
:102E5000EA22EF50E66EA4DCE552DF2AF1D7E55214
:102E6000E552E7CFD9FF1200D9CFE6FFE1CFD9FF76
:102E7000FE0EDB50010B0001FC6FFD6BFD0EDB5005
:102E80000F0BFE6FFF6BFC0EDB500A0802E1610EB8
:102E900005D0FC0EDB500D0805E1640EF36EFC0E50
:102EA000F3CFDBFFFCC014F0FDC015F0040ED8908A
:102EB00014361536E806FBE1C10E1426000E152265
:102EC00014500001FE25E96E1550FF21EA6EFC0E3C
:102ED000DBCFEFFFE552E7CFD9FF1200D9CFE6FFF6
:102EE000E1CFD9FF020EE126DF6AFE0EDB50010BB7
:102EF0000001FC6FFD6BFD0EDB500F0BFE6FFF6BD7
:102F0000F90EDBCF14F0FA0EDBCF15F0FB0EDBCFA2
:102F100016F0FC0EDBCF17F014501510161017101A
:102F200005E1300EE66E5ADEE552F5D0D950F90FC4
:102F3000E96EFF0EDA20EA6ED890030EEB50000A1D
:102F400008E6000EEE5C000EEE58000EEE58000E85
:102F5000EE5815E22D0EE66E41DEE552D950F90F1E
:102F6000E96EFF0EDA20EA6E000EEE6CEF1EEE2226
:102F7000EF1EEE22EF1EEF22ED52ED52ED52DE5229
:102F8000070EDD6E010EDBCF14F0000EE76E141895
:102F9000E8AE02D0143403D0E750D880145401E3D3
:102FA000BAD0010EDB04186E196A18BE196818C071
:102FB000E6FF19C0E6FF0A0EE66EE66A45DCE5525A
:102FC000E552E552E55206C014F007C015F008C0FE
:102FD00016F009C017F006C00BF007C00CF008C0CF
:102FE0000DF009C00EF0F90EDBCF06F0FA0EDBCFC4
:102FF00007F0FB0EDBCF08F0FC0EDBCF09F019EC7D
:1030000028F0065007100810091041E0010EDF6E8D
:10301000DB041C6E1D6A1CBE1D681CC0E6FF1DC0C3
:10302000E6FF0A0EE66EE66A0FDCE552E552E5526F
:10303000E55206C018F007C019F008C01AF009C020
:103040001BF006C00BF007C00CF008C00DF009C063
:103050000EF0F90EDBCF06F0FA0EDBCF07F0FB0E19
:10306000DBCF08F0FC0EDBCF09F019EC28F006C02E
:1030700014F007C015F008C016F009C017F0300EA4
:103080001426000E152216221722145003D0DF50EA
:1030900004E0300EE66EA2DDE552010EDB04186E90
:1030A000196A18BE196818C0E6FF19C0E6FF0A0EB3
:1030B000E66EE66A24EC14F0E552E552E552E5527C
:1030C00006C014F007C015F008C016F009C017F0CC
:1030D000D950F90FE96EFF0EDA20EA6E06C00BF048
:1030E00007C00CF008C00DF009C00EF0EECF06F0DE
:1030F000EECF07F0EECF08F0EFCF09F019EC28F093
:1031000005C0EDFF04C0EDFF03C0EDFF02C0EFFFFF
:10311000010EDB0637D7020EE15C02E2E16AE552FE
:10312000E16EE552E7CFD9FF1200D9CFE6FFE1CF3C
:10313000D9FFFE0EDB50010B0001FC6FFD6BFD0E95
:10314000DB500F0BFE6FFF6BFB0EDBCFF6FFFC0EB1
:10315000DBCFF7FF0800F5500FE0FB0EDBCFF6FFEB
:10316000DB2AFC0EDBCFF7FF01E3DB2A0800F5507A
:10317000E66E34DDE552E8D7E552E7CFD9FF12001D
:103180000F0E946E82681200070E9410946EDF0E7C
:103190009414946E82681200D9CFE6FFE1CFD9FF74
:1031A000040EE126DE6ADD6ADECF14F0DDCF15F015
:1031B000D890155004E6040E145C000E155801E377
:1031C00090D0DECFE9FFDDCFEAFF530EE9260F0EE8
:1031D000EA22EF1C826E020EDB6A030EDB6A020E2D
:1031E000DBCF14F0030EDBCF15F0D890155004E6BA
:1031F000040E145C000E15586EE2020EDBCFE9FFE0
:10320000030EDBCFEAFF570EE9260F0EEA22EF503E
:1032100082143FE1DECF18F0DDCF19F0D8901836D8
:103220001936D89018361936020EDB501824E96E7C
:10323000030EDB501920EA6ED890E936EA36330ED9
:10324000E9260F0EEA22EECF16F0EFCF17F0010EAF
:103250001626000E1722DECF14F0DDCF15F0D89021
:1032600014361536D89014361536020EDB50142459
:10327000E96E030EDB501520EA6ED890E936EA3687
:10328000330EE9260F0EEA2216C0EEFF17C0EDFF3F
:103290001BD0DECF14F0DDCF15F0D89014361536E4
:1032A000D89014361536020EDB501424E96E030E46
:1032B000DB501520EA6ED890E936EA36330EE9265F
:1032C0000F0EEA22EE6AED6A020EDB2A030E01E21D
:1032D00086D7DB2A84D7DF2A010E01E265D7DB2AF5
:1032E00063D7040EE15C02E2E16AE552E16EE55269
:1032F000E7CFD9FF1200D9CFE6FFE1CFD9FF040E07
:10330000E126DE6ADD6ADECF14F0DDCF15F0D8905D
:10331000155004E6020E145C000E155801E391D01E
:10332000DECFE9FFDDCFEAFF530EE9260F0EEA22DA
:10333000EF1C8214826E020EDB6A030EDB6A020E41
:10334000DBCF14F0030EDBCF15F0D890155004E658
:10335000040E145C000E15586EE2020EDBCFE9FF7E
:10336000030EDBCFEAFF570EE9260F0EEA22EF50DD
:1033700082143FE1DECF18F0DDCF19F0D890183677
:103380001936D89018361936020EDB501824E96E1B
:10339000030EDB501920EA6ED890E936EA36330E78
:1033A000E9260F0EEA22EECF16F0EFCF17F0010E4E
:1033B0001626000E1722DECF14F0DDCF15F0D890C0
:1033C00014361536D89014361536020EDB501424F8
:1033D000E96E030EDB501520EA6ED890E936EA3626
:1033E000330EE9260F0EEA2216C0EEFF17C0EDFFDE
:1033F0001BD0DECF14F0DDCF15F0D8901436153683
:10340000D89014361536020EDB501424E96E030EE4
:10341000DB501520EA6ED890E936EA36330EE926FD
:103420000F0EEA22EE6AED6A020EDB2A030E01E2BB
:1034300086D7DB2A84D7DF2A010E01E264D7DB2A94
:1034400062D7040EE15C02E2E16AE552E16EE55208
:10345000E7CFD9FF1200D9CFE6FFE1CFD9FF040EA5
:10346000E126DE6ADD6A020EDB6A030EDB6A0F010B
:10347000531D8214826E020EDB6A030EDB6A020E9B
:10348000DBCF14F0030EDBCF15F0D890155004E617
:10349000040E145C000E15586EE2020EDBCFE9FF3D
:1034A000030EDBCFEAFF570EE9260F0EEA22EF509C
:1034B00082143FE1DECF18F0DDCF19F0D890183636
:1034C0001936D89018361936020EDB501824E96EDA
:1034D000030EDB501920EA6ED890E936EA36330E37
:1034E000E9260F0EEA22EECF16F0EFCF17F0010E0D
:1034F0001626000E1722DECF14F0DDCF15F0D8907F
:1035000014361536D89014361536020EDB501424B6
:10351000E96E030EDB501520EA6ED890E936EA36E4
:10352000330EE9260F0EEA2216C0EEFF17C0EDFF9C
:103530001BD0DECF14F0DDCF15F0D8901436153641
:10354000D89014361536020EDB501424E96E030EA3
:10355000DB501520EA6ED890E936EA36330EE926BC
:103560000F0EEA22EE6AED6A020EDB2A030E01E27A
:1035700086D7DB2A84D7040EE15C02E2E16AE552D9
:10358000E16EE552E7CFD9FF1200D9CFE6FFE1CFD8
:10359000D9FF040EE126DE6ADD6A020EDB6A030E45
:1035A000DB6A010EDE6EDD6ADECFE9FFDDCFEAFF0A
:1035B000530EE9260F0EEA22EF1C8214826E020ED1
:1035C000DB6A030EDB6A020EDBCF14F0030EDBCFE7
:1035D00015F0D890155004E6030E145C000E155833
:1035E0006EE2020EDBCFE9FF030EDBCFEAFF570EE0
:1035F000E9260F0EEA22EF5082143FE1DECF18F0E9
:10360000DDCF19F0D89018361936D89018361936FB
:10361000020EDB501824E96E030EDB501920EA6E0F
:10362000D890E936EA36330EE9260F0EEA22EECFBD
:1036300016F0EFCF17F0010E1626000E1722DECF80
:1036400014F0DDCF15F0D89014361536D890143616
:103650001536020EDB501424E96E030EDB501520E4
:10366000EA6ED890E936EA36330EE9260F0EEA22E2
:1036700016C0EEFF17C0EDFF1BD0DECF14F0DDCF7C
:1036800015F0D89014361536D89014361536020E2B
:10369000DB501424E96E030EDB501520EA6ED8903F
:1036A000E936EA36330EE9260F0EEA22EE6AED6AB3
:1036B000020EDB2A030E01E286D7DB2A84D7040E32
:1036C000E15C02E2E16AE552E16EE552E7CFD9FF43
:1036D0001200D9CFE6FFE1CFD9FF040EE126DE6A62
:1036E000DD6ADECF14F0DDCF15F0FD0EDBCF16F076
:1036F000FE0EDBCF17F015501718E8AE02D01734C6
:1037000004D01650145C175015581DE2020EDB6AE7
:10371000030EDB6A020EDBCF14F0030EDBCF15F0D5
:10372000D890155004E6EE0E145C000E155806E213
:10373000020EDB2A030EEEE3DB2AECD7DF2A010EB2
:10374000D0E3DB2ACED7040EE15C02E2E16AE55267
:10375000E16EE552E7CFD9FF1200D9CFE6FFE1CF06
:10376000D9FF040EE126DE6ADD6ADECF14F0DDCF7C
:1037700015F0D890155004E6040E145C000E155890
:1037800075E2DECFE9FFDDCFEAFF530EE9260F0E2B
:10379000EA22EF1C826E020EDB6A030EDB6A020E67
:1037A000DBCF14F0030EDBCF15F0D890155004E6F4
:1037B000040E145C000E15584AE2DECF14F0DDCF83
:1037C00015F0D89014361536D89014361536020EEA
:1037D000DB501424E96E030EDB501520EA6ED890FE
:1037E000E936EA36330EE9260F0EEA22EE6AED6A72
:1037F000020EDBCFE9FF030EDBCFEAFF570EE9260F
:103800000F0EEA22EF5082141CE1DECF14F0DDCF60
:1038100015F0D89014361536D89014361536020E99
:10382000DB501424E96E030EDB501520EA6ED890AD
:10383000E936EA36330EE9260F0EEA22010EEE6E65
:10384000ED6A020EDB2A030EAAE3DB2AA8D7825018
:10385000816EE80EE66E030EE66E3BDFE552E55242
:10386000DF2A010E01E281D7DB2A7FD7040EE15C5B
:1038700002E2E16AE552E16EE552E7CFD9FF1200BC
:10388000D9CFE6FF040EE12684B005D00F01332B1B
:10389000000E342303D00F01336B346B84B204D099
:1038A000352B000E362302D0356B366B84B404D032
:1038B000372B000E382302D0376B386B82B004D020
:1038C000392B000E3A2302D0396B3A6B82B204D006
:1038D0003B2B000E3C2302D03B6B3C6B82B404D0EC
:1038E0003D2B000E3E2302D03D6B3E6B82BA04D0CE
:1038F0003F2B000E402302D03F6B406B81B004D0C1
:10390000412B000E422302D0416B426B040EE15C5E
:1039100002E2E16AE552E16EE552E7CFD9FF12001B
:10392000070E9610966E270E9410946E010E93104B
:04393000936E120080
:0C393400D9CFE6FFE1CFD9FFD59EFD0EF4
:10394000DBCF5BFFFE0EDBCF5CFFD59C17681868F2
:10395000196A5BCF1AF05CCF1BF01C6A1A50175C17
:10396000146E1B501858156E1C501958166E0C6AA0
:10397000010E0D6E0E6A14C007F015C008F016C0D7
:1039800009F0F0EC26F00350D66E17681868196A33
:103990005BCF1AF05CCF1BF01C6A1A50175C146ED8
:1039A0001B501858156E1C501958166E0C6A010ED3
:1039B0000D6E0E6A14C007F015C008F016C009F0AD
:1039C000F0EC26F007C014F008C015F009C016F09E
:1039D0000750D76ED59AD586F28AF294F184D58EA7
:1039E000E552E7CFD9FF1200D59E1200176818687C
:1039F000196A5BCF1AF05CCF1BF01C6A1A50175C77
:103A0000146E1B501858156E1C501958166E0C6AFF
:103A1000010E0D6E0E6A14C007F015C008F016C036
:103A200009F0F0EC26F00350D66E17681868196A92
:103A30005BCF1AF05CCF1BF01C6A1A50175C146E37
:103A40001B501858156E1C501958166E0C6A010E32
:103A50000D6E0E6A14C007F015C008F016C009F00C
:103A6000F0EC26F007C014F008C015F009C016F0FD
:103A70000750D76ED58E1200D9CFE6FFE1CFD9FF20
:103A8000CD90FD0EDBCF5DFFFE0EDBCF5EFF176836
:103A90001868196A5DCF1AF05ECF1BF01C6A1A50C5
:103AA000175C146E1B501858156E1C501958166E62
:103AB0000C6A010E0D6E0E6A14C007F015C008F0F6
:103AC00016C009F0F0EC26F00750CF6E17681868A2
:103AD000196A5DCF1AF05ECF1BF01C6A1A50175C92
:103AE000146E1B501858156E1C501958166E0C6A1F
:103AF000010E0D6E0E6A14C007F015C008F016C056
:103B000009F0F0EC26F003C014F004C015F005C075
:103B100016F00350CE6E9D809E909F90CD8ECD8CE2
:103B2000CD98CD9ACD96CD92CD80E552E7CFD9FFF5
:103B3000120017681868196A5DCF1AF05ECF1BF083
:103B40001C6A1A50175C146E1B501858156E1C50C6
:103B50001958166E0C6A010E0D6E0E6A14C007F02D
:103B600015C008F016C009F0F0EC26F00750CF6E33
:103B700017681868196A5DCF1AF05ECF1BF01C6ACF
:103B80001A50175C146E1B501858156E1C5019589B
:103B9000166E0C6A010E0D6E0E6A14C007F015C089
:103BA00008F016C009F0F0EC26F003C014F004C0D1
:103BB00015F005C016F00350CE6ECD801200CD90EA
:103BC0001200D9CFE6FFE1CFD9FFCA94CC6AFE0E2E
:103BD000DB500F015F6F606BCB6E9D829E929F9258
:103BE000CA90CA92CA84E552E7CFD9FF12005FCFCC
:103BF000CBFFCA841200CA941200D9CFE6FFE1CFEE
:103C0000D9FFB190FD0EDBCF61FFFE0EDBCF62FF6F
:103C100017681868196A61CF1AF062CF1BF01C6A26
:103C20001A50175C146E1B501858156E1C501958FA
:103C3000166E0C6A010E0D6E0E6A14C007F015C0E8
:103C400008F016C009F0F0EC26F00750B36E1768C4
:103C50001868196A61CF1AF062CF1BF01C6A1A50FB
:103C6000175C146E1B501858156E1C501958166EA0
:103C70000C6A010E0D6E0E6A14C007F015C008F034
:103C800016C009F0F0EC26F003C014F004C015F0E3
:103C900005C016F00350B26EA082A192A292B18E1E
:103CA000B198B19AB192B180E552E7CFD9FF120035
:103CB00017681868196A61CF1AF062CF1BF01C6A86
:103CC0001A50175C146E1B501858156E1C5019585A
:103CD000166E0C6A010E0D6E0E6A14C007F015C048
:103CE00008F016C009F0F0EC26F00350B26E176829
:103CF0001868196A61CF1AF062CF1BF01C6A1A505B
:103D0000175C146E1B501858156E1C501958166EFF
:103D10000C6A010E0D6E0E6A14C007F015C008F093
:103D200016C009F0F0EC26F007C014F008C015F03A
:103D300009C016F00750B36EB1801200B1901200A6
:103D40000F016B2B000E6C2373516B5D74516C591A
:103D500004E36B6B6C6B010E636F12000F016D2B34
:103D6000000E6E2375516D5D76516E5904E36D6BD7
:103D70006E6B010E646F12000F016F2B000E70232B
:103D800077516F5D7851705904E36F6B706B010E62
:103D9000656F12000F01712B000E72237951715D56
:103DA0007A51725904E3716B726B010E666F1200E7
:103DB000D9CFE6FFE1CFD9FFFD0EDBCF73FFFE0EBB
:103DC000DBCF74FF0F016B6B6C6B636BE552E7CF5E
:103DD000D9FF1200D9CFE6FFE1CFD9FFFD0EDBCF2F
:103DE00075FFFE0EDBCF76FF050E0D6E0E6A75CFEA
:103DF00008F076CF09F0CAEC26F008C075FF09C0BC
:103E000076FF0F016D6B6E6B646BE552E7CFD9FFE8
:103E10001200D9CFE6FFE1CFD9FFFD0EDBCF79FF4E
:103E2000FE0EDBCF7AFF0A0E0D6E0E6A79CF08F018
:103E30007ACF09F0CAEC26F008C079FF09C07AFFF2
:103E40000F01716B726B666BE552E7CFD9FF120001
:103E500043415554494F4E204D4F44450D0A005B98
:103E60004D414E55414C5D524544005B4D414E55D0
:103E7000414C5D59454C4C4F573A20005B4D414EEB
:103E800055414C5D475245454E0D0A005B4D414E34
:103E900055414C5D5245440D0A002D2D2D2D2D4DC3
:103EA000414E55414C204D4F44452D2D2D2D2D0D6E
:103EB0000A00596F7572207265642074696D6520FF
:103EC0006973206E6F772000537563636573736643
:103ED000756C6C79206368616E67656420677265D4
:103EE000656E2074696D6520746F2000596F7520B0
:103EF000657363617065642066726F6D20736574AD
:103F000020677265656E206D6F64652077697468DF
:103F10006F757420736176696E672E0D0A002D2D02
:103F20000055736520627574746F6E7320696E201E
:103F3000796F757220626F61726420746F2063689C
:103F4000616E676520677265656E2074696D652EA8
:103F50002E2E0D0A002831302D39392900534554B1
:103F600020475245454E2054494D45002073656316
:103F70006F6E64732E0D0A00537563636573736609
:103F8000756C6C79206368616E6765642079656C17
:103F90006C6F772074696D6520746F2000596F75A0
:103FA00020657363617065642066726F6D20736550
:103FB000742079656C6C6F77206D6F64652077690C
:103FC00074686F757420736176696E672E0D0A00D0
:103FD0002D0055736520627574746F6E7320696E61
:103FE00020796F757220626F61726420746F206334
:103FF00068616E67652079656C6C6F772074696D98
:10400000652E2E2E0D0A0028312D392900534554D6
:104010002059454C4C4F572054494D45005B526F39
:10402000616420315D59454C4C4F573A20005B523A
:104030006F616420325D5245443A20005B526F61EB
:104040006420315D475245454E3A200052454400B8
:10405000475245454E005B526F616420325D5945C1
:104060004C4C4F573A200059454C4C4F57005B522F
:104070006F616420325D475245454E3A20000D0A7B
:10408000005B526F616420315D5245443A20004725
:104090005245454E2000524544202020002D2D2D14
:1040A0002D2D4155544F4D41544943204D4F4445CA
:1040B0002D2D2D2D2D0D0A002D2D2D2D2D5345543B
:1040C0002054494D45204D4F44452D2D2D2D2D0D6E
:1040D0000A00202020202020202020202020202016
:1040E0002020003C00362E2051554954202D2042DE
:1040F00061636B20746F206D656E752E0D0A00353F
:104100002E20534554477878202D2053657420671E
:104110007265656E2074696D65203D207878207326
:1041200065636F6E64732E0D0A00342E2053455460
:10413000597878202D205365742079656C6C6F77E1
:104140002074696D65203D207878207365636F6EFB
:1041500064732E0D0A00332E20434155202D205329
:10416000776974636820746F2063617574696F6E1A
:10417000206D6F64652E0D0A00322E204D414E20B9
:104180002D2053776974636820746F206D616E759C
:10419000616C206D6F64652E0D0A00312E20415533
:1041A000544F202D2053776974636820746F206109
:1041B00075746F206D6F64652E0D0A00436F6D6D11
:1041C000616E64206C6973743A0D0A004261636B1E
:1041D00020746F206D656E752E0D0A00537769741B
:1041E000636820746F2063617574696F6E206D6FF2
:1041F0006465206279207573696E67205541525459
:104200002E0D0A0053657420677265656E2074690F
:104210006D65203D2000206279207573696E6720EE
:10422000554152542E0D0A005365742079656C6C0B
:104230006F772074696D65203D2000496E76616C52
:1042400069642074696D652E20506C65617365200A
:1042500074727920616761696E2E0D0A0053776967
:1042600074636820746F206D616E75616C20677275
:1042700065656E206279207573696E6720554152BD
:10428000542E0D0A0053776974636820746F206D93
:10429000616E75616C207265642062792075736946
:1042A0006E6720554152542E0D0A00434155544922
:1042B0004F4E004D414E55414C00534554205449FA
:1042C0004D45004155544F00202020202020202023
:0942D000202020202020202000E5
:0142D90000E4
:0642DA00B06A810EAF6E18
:1042E000AC8AAC94B886AC98AB8EAB889E9A9D8A0B
:1042F0009F8A949C948E1200D9CFE6FFE1CFD9FF1C
:10430000040EE126DE6ADD6ADECF14F0DDCF15F0A3
:10431000FD0EDBCF16F0FE0EDBCF17F01550171891
:10432000E8AE02D0173404D01650145C175015585C
:104330001DE2020EDB6A030EDB6A020EDBCF14F015
:10434000030EDBCF15F0D890155004E6EE0E145C8A
:10435000000E155806E2020EDB2A030EEEE3DB2AFE
:10436000ECD7DF2A010ED0E3DB2ACED7040EE15CC6
:1043700002E2E16AE552E16EE552E7CFD9FF1200B1
:10438000D9CFE6FFE1CFD9FF9EA8FED7FE0EDB50C6
:10439000AD6E9E98E552E7CFD9FF1200D9CFE6FF68
:1043A000E1CFD9FFFD0EDBCFE9FFFE0EDBCFEAFF49
:1043B000EF5010E0FD0EDBCFE9FFFE0EDBCFEAFF92
:1043C000EF50E66EDDDFE552FD0EDB2AFE0EEAE37E
:1043D000DB2AE8D7E552E7CFD9FF1200D9CFE6FFB5
:1043E000E1CFD9FFFD0EDBCFF6FFFE0EDBCFF7FFEF
:1043F0000800F55015E0FD0EDBCFF6FFFE0EDBCF1B
:10440000F7FF0800F550E66EBBDFE552FD0EDBCF8F
:10441000F6FFDB2AFE0EDBCFF7FFE4E3DB2AE2D771
:10442000E552E7CFD9FF1200D9CFE6FFE1CFD9FFA0
:10443000020EE126DF6AFB0EDBCF14F0FC0EDBCFB1
:1044400015F0FD0EDBCF16F0FE0EDBCF17F014508B
:1044500015101610171005E1300EE66E91DFE552CB
:10446000F4D0D950FB0FE96EFF0EDA20EA6ED89037
:10447000030EEB50000A08E6000EEE5C000EEE584C
:10448000000EEE58000EEE5815E22D0EE66E78DFA7
:10449000E552D950FB0FE96EFF0EDA20EA6E000EEE
:1044A000EE6CEF1EEE22EF1EEE22EF1EEF22ED521B
:1044B000ED52ED52DE520A0EDD6E010EDBCF14F02E
:1044C000000EE76E1418E8AE02D0143403D0E750A3
:1044D000D880145401E3B9D0010EDB04186E196AB8
:1044E00018BE196818C0E6FF19C0E6FF0A0EE66E8E
:1044F000E66AB5D8E552E552E552E55206C014F039
:1045000007C015F008C016F009C017F006C00BF080
:1045100007C00CF008C00DF009C00EF0FB0EDBCF99
:1045200006F0FC0EDBCF07F0FD0EDBCF08F0FE0E31
:10453000DBCF09F019EC28F006500710081009101D
:1045400041E0010EDF6EDB041C6E1D6A1CBE1D689F
:104550001CC0E6FF1DC0E6FF0A0EE66EE66A7FD8C5
:10456000E552E552E552E55206C018F007C019F0D1
:1045700008C01AF009C01BF006C00BF007C00CF011
:1045800008C00DF009C00EF0FB0EDBCF06F0FC0EEC
:10459000DBCF07F0FD0EDBCF08F0FE0EDBCF09F01E
:1045A00019EC28F006C014F007C015F008C016F08A
:1045B00009C017F0300E1426000E152216221722FD
:1045C000145003D0DF5004E0300EE66ED9DEE55221
:1045D000010EDB04186E196A18BE196818C0E6FFD0
:1045E00019C0E6FF0A0EE66EE66A39D8E552E552D2
:1045F000E552E55206C014F007C015F008C016F0E9
:1046000009C017F0D950FB0FE96EFF0EDA20EA6EF1
:1046100006C00BF007C00CF008C00DF009C00EF08A
:10462000EECF06F0EECF07F0EECF08F0EFCF09F0B7
:1046300019EC28F005C0EDFF04C0EDFF03C0EDFF4D
:1046400002C0EFFF010EDB0638D7020EE15C02E28A
:10465000E16AE552E16EE552E7CFD9FF1200D9CF0A
:10466000E6FFE1CFD9FF050EE126010EF36EDB6E0A
:10467000020EDB6A030EDB6A040EDB6ADF6ADFCF41
:1046800014F0156A14BE1568FB0EDBCF16F0FC0E95
:10469000DBCF17F015501718E8AE02D0173404D04E
:1046A0001650145C175015582DE2FD0EDBCF14F098
:1046B000FE0EDBCF15F0166A176A15AE02D016682B
:1046C0001768D950010FE96EDACFEAFF14C00BF07A
:1046D00015C00CF016C00DF017C00EF0EECF06F0AE
:1046E000EECF07F0EECF08F0EFCF09F0E1EC27F0C6
:1046F00005C0EDFF04C0EDFF03C0EDFF02C0EFFFFA
:10470000DF2ABDD7010EDBCF14F0020EDBCF15F090
:10471000030EDBCF16F0040EDBCF17F014C006F04B
:1047200015C007F016C008F017C009F0050EE15CCF
:1047300002E2E16AE552E16EE552E7CFD9FF1200ED
:10474000D9CFE6FFE1CFD9FF020EE126FE0EDB5006
:104750000F0BDF6EFE0EDB380F0B0A0D010EF3CFD1
:10476000DBFFDB50DF24146E020EE15C02E2E16A43
:10477000E552E16E1450E552E7CFD9FF1200D9CFD0
:10478000E6FFE1CFD9FF020EE1260A0E146E0E6E8F
:10479000FE0EDBCF09F0AAEC28F00550DF6E0A0E02
:1047A000146E0E6EFE0EDBCF09F0AAEC28F0095055
:1047B000100D010EF3CFDBFFDB50DF24146E020E71
:1047C000E15C02E2E16AE552E16E1450E552E7CFA6
:1047D000D9FF120094869488C79EC79CC690C69243
:1047E000C694C686310EC86EC68A1200D9CFE6FFBF
:1047F000E1CFD9FF9E96FE0EDB50D00FC96E9EA66C
:10480000FED7E552E7CFD9FF1200D9CFE6FFE1CFBF
:10481000D9FF9E96FE0EDB50A00FC96E9EA6FED756
:10482000E552E7CFD9FF12009E96C5809EA6FED71F
:1048300012009E96C5849EA6FED71200D9CFE6FF31
:10484000E1CFD9FF9E96FE0EDB50C96E9EA6FED725
:10485000E552E7CFD9FF12009E96C5869EA6FED7E9
:10486000C95012009E96C59AC5889EA6FED7120012
:104870009E96C58AC5889EA6FED71200D9CFE6FFB0
:10488000E1CFD9FFD1DFE66AB1DFE5520101010EC8
:10489000FE6FE85004E0C550400BFAE0F8D7FE0E7A
:1048A000DBCFE6FFCBDFE5520101010EFE6FE850E2
:1048B00004E0C550400BFAE0F8D7FD0EDBCFE6FF71
:1048C0005EDFE552E66EBADFE5520101010EFE6FD2
:1048D000E85004E0C550400BFAE0F8D7AADFE552F3
:1048E000E7CFD9FF1200D9CFE6FFE1CFD9FF9CDF98
:1048F000E66A8BDFE5520101010EFE6FE85004E02D
:10490000C550400BFAE0F8D7FE0EDBCFE6FF96DF8E
:10491000E5520101010EFE6FE85004E0C550400B66
:10492000FAE0F8D7FD0EDBCF14F0FE0EDBCF15F06A
:104930000001156A1450E66E81DFE5520101010E97
:10494000FE6FE85004E0C550400BFAE0F8D7FC0ECB
:10495000DBCFE6FF73DFE5520101010EFE6FE85089
:1049600004E0C550400BFAE0F8D763DFE552E7CF2B
:10497000D9FF1200D9CFE6FFE1CFD9FFE65254DFCD
:10498000E66A34DFE5520101010EFE6FE85004E0F3
:10499000C550400BFAE0F8D7FE0EDBCFE6FF4EDF46
:1049A000E5520101010EFE6FE85004E0C550400BD6
:1049B000FAE0F8D739DF010EE66E18DFE5520101A3
:1049C000010EFE6FE85004E0C550400BFAE0F8D746
:1049D00043DFDF6EDFCFE6FFB3DEE552DF6EDF5091
:1049E000E552E552E7CFD9FF1200D9CFE6FFE1CF7C
:1049F000D9FFE65219DFE66A08DFE5520101010E30
:104A0000FE6FE85004E0C550400BFAE0F8D7FE0E08
:104A1000DBCFE6FF13DFE5520101010EFE6FE85028
:104A200004E0C550400BFAE0F8D7FD0EDBCF14F0E0
:104A3000FE0EDBCF15F00001156A1450E66EFEDEA7
:104A4000E5520101010EFE6FE85004E0C550400B35
:104A5000FAE0F8D7E9DE010EE66ED7DEE552010195
:104A6000010EFE6FE85004E0C550400BFAE0F8D7A5
:104A7000F3DEDF6EDF50E552E552E7CFD9FF1200DB
:104A8000F28ED08EF28C1200F19CF292F28812001B
:104A9000D8CFE4FFE0CFE4FFE46EDACFE4FFE2CF6B
:104AA000DAFFE9CFE4FFEACFE4FFF6CFE4FFF7CF88
:104AB000E4FFF5CFE4FFF3CFE4FFF4CFE4FFFACF58
:104AC000E4FF00EE00F0140EE80403E3EECFE4FF91
:104AD000FBD700EE14F00A0EE80403E3EECFE4FF88
:104AE000FBD7E652F2A407D0F4EC1CF0F294F6ECFB
:104AF0001CF0A0EC1EF09EA007D0DFEC1DF09E90F5
:104B000099EC1DF0AEEC1EF09EA207D0FBEC1DF060
:104B10009E92F7EC1DF0BCEC1EF0A1A207D09EEC1B
:104B20001EF0A19258EC1EF0CAEC1EF0F2B2F29206
:104B30009EAA03D09E9A40EC00F0E55200EE1DF0D4
:104B40000A0EE80403E3E5CFEDFFFBD700EE13F018
:104B5000140EE80403E3E5CFEDFFFBD7E5CFFAFF42
:104B6000E5CFF4FFE5CFF3FFE5CFF5FFE5CFF7FFA6
:104B7000E5CFF6FFE5CFEAFFE5CFE9FFE5CFDAFFC6
:104B8000E550E5CFE0FFE5CFD8FF1000DACFE4FF36
:104B9000E2CFDAFFE9CFE4FFEACFE4FFF6CFE4FFAC
:104BA000F7CFE4FFF5CFE4FFF3CFE4FFF4CFE4FF6A
:104BB000FACFE4FF00EE00F0140EE80403E3EECFBA
:104BC000E4FFFBD700EE14F00A0EE80403E3EECF97
:104BD000E4FFFBD7E652F2A407D0F4EC1CF0F29409
:104BE000F6EC1CF0A0EC1EF09EA007D0DFEC1DF050
:104BF0009E9099EC1DF0AEEC1EF0A1A207D09EECA9
:104C00001EF0A19258EC1EF0CAEC1EF0F2B2F29225
:104C10009EAA03D09E9A40EC00F0E55200EE1DF0F3
:104C20000A0EE80403E3E5CFEDFFFBD700EE13F037
:104C3000140EE80403E3E5CFEDFFFBD7E5CFFAFF61
:104C4000E5CFF4FFE5CFF3FFE5CFF5FFE5CFF7FFC5
:104C5000E5CFF6FFE5CFEAFFE5CFE9FFE5CFDAFFE5
:024C6000110041
:0E4C6200D9CFE6FFE1CFD9FFE652AE50DF6EAC
:104C7000DFCFE6FFC0EC21F0E55202011C51050A2E
:104C80002AE0010A21E0070A11E0010A0AE0020A0B
:104C900002E0010A2AE1FE0EDF5C28E11F6B020E32
:104CA00022D0FE0EDF5C15E1030E1DD01F51EA6A13
:104CB000900FE96E010EEA22DFCFEFFF1F2B21518B
:104CC0001F5D14E3040E0FD0FF0EDF5C02E1050E42
:104CD0000AD0010E08D0FF0EDF5C04E1010E1D6F4B
:104CE0001C6B04D0010E1C6F01D01C6BE552E55209
:104CF000E7CFD9FF1200120002011D054AE1C80EDC
:104D0000E66E420EE66EE66AE66A95EC18F0E5524B
:104D1000E552E552E55201018F6B0201215101017B
:104D20008F5D21E28F51EA6A900FE96E010EEA224F
:104D3000EFCF14F0156A166A176A14C0E6FF15C0A3
:104D4000E6FF16C0E6FF17C0E6FF030E8F03F35021
:104D5000E66EE66A6EEC17F0186E060EE15E18500D
:104D600001018F2BDAD71CC214F0156A166A176A74
:104D70001CC2E6FF15C0E6FF16C0E6FF17C0E6FF3F
:104D80000F0EE66EE66A6EEC17F0186E060EE15E28
:044D900018501200A5
:0C4D9400006A0EAED3EF26F00D6C0E1E70
:104DA000E86A0E22001E09AEDBEF26F0086C091E31
:104DB000E86A0922001E76EC28F009BEEBEF26F027
:104DC00000AE000C086C091EE86A0922046C051E7E
:104DD000E86A0522000C00BEE2EF26F00188FF0C15
:104DE000006A0EAEFBEF26F00C6C0D1E0E1EE86A7C
:104DF0000D220E22001E09AE05EF27F0076C081EDB
:104E0000091EE86A08220922001E3DEC28F009BEAE
:104E100018EF27F000AE000C076C081E091EE86AA8
:104E200008220922036C041E051E04220522000C20
:104E300000BE0CEF27F00188FF0C09C013F008C07A
:104E400012F008500D02F4CF07F0F3CF06F009502E
:104E50000E02F4CF09F0F3CF08F00D02F35007264D
:104E6000F4500822E86A092212500E02F350072675
:104E7000F4500822E86A09220EAE43EF27F01250E0
:104E8000085E1350095A13AE000C0D50085E0E5008
:044E9000095A000CAF
:0C4E94001E0EF66E000EF76E000EF86E9B
:104EA00001010900F550F96F0900F550FA6F03E1AF
:104EB000F96701D03DD00900F550F46F0900F550B5
:104EC000F56F0900F550F66F09000900F550E96E1D
:104ED0000900F550EA6E090009000900F550F76F66
:104EE0000900F550F86F09000900F6CFFBF1F7CF84
:104EF000FCF1F8CFFDF1F4C1F6FFF5C1F7FFF6C103
:104F0000F8FF0101F75302E1F85307E00900F550FB
:104F1000EE6EF707F8E2F807F9D7FBC1F6FFFCC120
:104F2000F7FFFDC1F8FF0101F907000EFA5BBFD7DB
:024F300012006D
:0E4F3200010E926E0E0EC16EC26A040EC06EAB
:104F4000C2801200D9CFE6FFE1CFD9FF020EE126E1
:104F5000DE6ADD6AC282C2B2FED7C450DE6EDD6A8E
:104F6000DECF16F0DDCF17F0D89016361736D89072
:104F700016361736060EC3CFE7FF070B04E0E742ED
:104F8000E79EE806FCE1E7501624146E000E172099
:104F900014C0DEFFDD6EDECF00F2DDCF01F2DECF2A
:104FA00014F0DDCF15F014C0F3FF15C0F4FF020EAE
:104FB000E15C02E2E16AE552E16EE552E7CFD9FF3A
:024FC0001200DD
:0E4FC20006500B02F3CF02F0F4CF03F00C0206
:104FD000F3500326000EF420046E06500D02F35029
:104FE0000426000EF420056E06500E02F35005262E
:104FF00007500B02F3500326F4500422000E052242
:1050000007500C02F3500426F450052207500D02FD
:10501000F350052608500B02F3500426F4500522E5
:1050200008500C02F350052609500B02F3500526D8
:0250300012006C
:0E503200056A046A036A026A200EE76ED890CF
:105040000636073608360936023603360436053684
:105050000B50025C0C5003580D5004580E5005586C
:1050600009E30B50025E0C50035A0D50045A0E50C7
:0A507000055A062AE72EE4D71200C5
:06507A00056A046A036AE6
:10508000180EE76ED8900736083609360336043610
:1050900005360C50035C0D5004580E50055807E3BC
:1050A0000C50035E0D50045A0E50055A072AE72E85
:0450B000EAD7120029
:0C50B400CA94CA90CA829B0ECB6EBD98B5
:1050C000BD9ABE6ABD9CBD9EBD90BD92BD84BD868D
:1050D0009494CA841200D9CFE6FFE1CFD9FFFE0E27
:0C50E000DB50BE6EE552E7CFD9FF120096
:0450EC00056A046AE3
:1050F000100EE76ED89008360936043605360D5086
:10510000045C0E50055805E30D50045E0E50055A20
:08511000082AE72EF0D7120077
:08511800800EF36E00EE00F0C2
:105120000F0E01D81200EA6002D0EE6AFCD7F350ED
:08513000E9601200EE6AFCD7F1
:085138001EEE00F02EEE00F067
:10514000F86A019C4AEC27F003EC00F04EEC03F007
:04515000FBD7120077
:0C515400056A080EE76ED8900936053693
:105160000E50055C02E3056E092AE72EF7D7120000
:10517000000000000000000000000000000000002F
:10518000000000000000000001000100010001001B
:105190000000000000000005050000000000000005
:0351A0000000000C
:0D51A3000102040810204080000000000000
:1051B0000000000102034104050642070809432AD2
:1051C0000045440102030402070809030303030422
:1051D00008060805414243FF00000100FF000000EF
:1051E0000000000B000B0007000700040004000390
:1051F00000C342BA42B342AB4200000003009F002A
:1052000025000D009900490041001F000100090020
:105210000D00010204050608090A00000000000054
:10522000000000000000000000000000000000007E
:0252300000007C
:0E52320000000000000000001010101010100E
:10524000101018181818181818181C1C1C1C1C1CD6
:105250001C1C1E1E1E1E1E1E1E1E1F1F1F1F1F1F6C
:105260001F1F000000000000000000000000000000
:10527000000000000000000000000000000000002E
:10528000000000000000000000000000000000001E
:035290000000001B
:0D529300000000D000222222072509100093
:0E52A0000100000000000000000000000000FF
:0252AE000000FE
:1052B00000000000000000000000000000000000EE
:1052C00000000000000000000000000000001020AE
:0652D00040800102040809
:020000040030CA
:0100010002FC
:0100020003FA
:010003001EDE
:010005008179
:010006008178
:010008000FE8
:01000900C036
:01000A000FE6
:01000B00E014
:01000C000FE4
:01000D0040B2
:00000001FF
