:020000040000FA
:06000000E9EF24F01200FC
:020006001200E6
:060008000AEF22F01200D5
:02000E000000F0
:020010000000EE
:060018008CEF21F0120044
:02001E000800D8
:100020003A4B0000000F0000280000001F4B0000AA
:10003000E10000001B0000000E0000006B0F00003C
:1000400004000000BE4A00008000000061000000C3
:100050003D4A00000001000081000000074300004D
:10006000710F0000010000002A4A0000480F000044
:10007000130000000A4A0000280F000020000000C2
:10008000AECF6AFF410E0F016A5D02E1010E09D099
:100090004D0E6A5D02E1020E04D0530E6A5D08E166
:1000A000030E0101376F386B0F015A0E6A6F120091
:1000B000430E6A5D07E1040E0101376F386B0F01D3
:1000C0005A0E6A6F1200D9CFE6FFE1CFD9FF040EB6
:1000D000E126DE6ADD6A020EDB6A030EDB6A26D9E0
:1000E000956ACEDF0F01335107E0336BFFEC15F05B
:1000F00022EC05F073EC13F00F01305112E0306B7D
:10010000D9CFE9FFDACFEAFF010EEE1806E1ED5094
:1001100004E144D9DE6ADD6A04D0DF2A010E01E37E
:10012000DB2A73EC13F0DDD7D9CFE6FFE1CFD9FF9F
:10013000020EE126DE6ADD6ADECF14F0DDCF15F0B7
:10014000D890155004E6100E145C000E155830E2DD
:10015000DECFE9FFDDCFEAFFD890E936EA36000EC0
:10016000E9260F0EEA22010EEE181DE1ED501BE10B
:10017000DECF14F0DDCF15F0166A176A15AE02D087
:100180001668176814C0E6FF15C0E6FF16C0E6FF44
:1001900017C0E6FFE66A010EE66EA1EC14F0186ED9
:1001A000060EE15E1850DF2A010EC6E3DB2AC4D733
:1001B000020EE15C02E2E16AE552E16EE552E7CF50
:1001C000D9FF12004EC1E6FF4FC1E6FFE66AE66ABC
:1001D000C8EC15F0E552E552E552E55250C1E6FF94
:1001E00051C1E6FF070EE66EE66AC8EC15F0E5526F
:1001F000E552E552E55252C1E6FF53C1E6FFE66A19
:10020000010EE66EC8EC15F0E552E552E552E552F6
:1002100054C1E6FF55C1E6FF070EE66E010EE66E1D
:10022000C8EC15F0E552E552E552E552040E010125
:10023000371901E1385124E0030E371901E1385133
:1002400017E0020E371901E138510CE0010E3719A1
:1002500001E1385101E01200D70EE66E420EE66E63
:10026000060E0BD0D70EE66E420EE66E060E0DD0D1
:10027000D70EE66E420EE66E0F0EE66EE66A08D008
:10028000D70EE66E420EE66E0F0EE66E010EE66EBD
:10029000C8EC15F0E552E552E552E5521200D9CF0F
:1002A000E6FFE1CFD9FF040EE126DE6ADD6ADECF8C
:1002B00014F0DDCF15F0FD0EDBCF16F0FE0EDBCF18
:1002C00017F015501718E8AE02D0173404D01650A6
:1002D000145C175015581DE2020EDB6A030EDB6A30
:1002E000020EDBCF14F0030EDBCF15F0D8901550C3
:1002F00004E6EE0E145C000E155806E2020EDB2A30
:10030000030EEEE3DB2AECD7DF2A010ED0E3DB2A73
:10031000CED7040EE15C02E2E16AE552E16EE552FD
:10032000E7CFD9FF1200956A836A120033D85BECDD
:100330001CF0F9DFA3EC0FF0F7EC15F084EC21F0E2
:100340004DEC11F044EC13F0F40EE66E010EE66E87
:10035000A6DFE552E552570EE66E120EE66ECDECC4
:1003600019F0E552E552660EE66EB70EE66E30EC19
:100370001BF0E552E552020EE66EE66A0BEC1CF04D
:10038000E552E552320EE66EE66A3CEC1CF0E552B0
:10039000E5521200926A806A966A1200030E010109
:1003A000601901E1615101E1F7D0020E601901E12C
:1003B000615101E1A4D0010E601901E161514CE0ED
:1003C000605101E02AD1615101E027D1060EE66EAD
:1003D000E66A37D9E552E552070EE66EE66A59D964
:1003E000E552E5520101001D8414846E011D841440
:1003F000846E846A3EC1E9FF3FC1EAFFE80E0D6EDC
:10040000030E0E6E3EC108F03FC109F017EC23F059
:1004100008C0E9FF09C0EAFF560EE926010EEA22EC
:10042000EF50806E0B0E0101395D01E1F6D00C0E2C
:10043000395D01E1F2D00E0E395D01E1EED00D0E15
:10044000395D01E1EAD0200E395D01E1E6D0210EEF
:10045000395D01E1E2D0DFD0060EE66EE66A19D919
:10046000E552E552070EE66EE66AEBD8E552E55234
:100470000101001D8414846E011D8414846E846A3D
:100480003EC1E9FF3FC1EAFFE80E0D6E030E0E6E9E
:100490003EC108F03FC109F017EC23F004C0E9FFAA
:1004A00005C0EAFF640E0D6E0E6A04C008F005C0B8
:1004B00009F017EC23F008C0E9FF09C0EAFF560E67
:1004C000E926010EEA22EF50806E0B0E0101395D24
:1004D00001E1A3D00C0E395D01E19FD00E0E395D14
:1004E00001E19BD00D0E395D01E197D0200E395D01
:1004F00001E193D0210E395D01E18FD08CD0060E41
:10050000E66EE66AC6D8E552E552070EE66EE66A82
:10051000C0D8E552E552010100518410846E011DDE
:100520008414846E010E846E3EC1E9FF3FC1EAFF70
:10053000640E0D6E0E6A3EC108F03FC109F017EC63
:1005400023F004C0E9FF05C0EAFF0A0E0D6E0E6A33
:1005500004C008F005C009F017EC23F008C0E9FF5B
:1005600009C0EAFF560EE926010EEA22EF50806E1E
:100570000B0E0101395D51E00C0E395D4EE00E0E9F
:10058000395D4BE00D0E395D48E0200E395D45E0E8
:10059000210E395D42E03FD0060EE66EE66A79D85C
:1005A000E552E552070EE66EE66A73D8E552E5526B
:1005B0000101001D8414846E01518410846E020EAA
:1005C000846E3EC1E9FF3FC1EAFF0A0E0D6E0E6A5E
:1005D0003EC108F03FC109F017EC23F004C0E9FF69
:1005E00005C0EAFF560EE926010EEA22EF50806EA2
:1005F0000B0E0101395D11E00C0E395D0EE00E0E9F
:10060000395D0BE00D0E395D08E0200E395D05E027
:10061000210E395D02E056C180FF010E6025606F3A
:10062000000E6121616F040E0D6E0E6A60C108F04C
:1006300061C109F017EC23F004C060F105C061F15D
:100640001200D9CFE6FFE1CFD9FFFE0EDBCF15F0C8
:10065000800E15141AE1FD0EDBCF16F0FE0EDBCF77
:1006600017F0173404E216500708000E17540DE374
:10067000FD0EDBCFE9FFFE0EDBCFEAFF000EE92621
:10068000010EEA22EF508310836EE552E7CFD9FFC7
:100690001200D9CFE6FFE1CFD9FFFE0EDBCF15F078
:1006A000800E15141AE1FD0EDBCF16F0FE0EDBCF27
:1006B00017F0173404E216500708000E17540DE324
:1006C000FD0EDBCFE9FFFE0EDBCFEAFF000EE926D1
:1006D000010EEA22EF1C8314836EE552E7CFD9FFA7
:1006E0001200D9CFE6FFE1CFD9FFFD0EDBCFE9FF46
:1006F000FE0EDBCFEAFF080EE926010EEA22EF0428
:1007000015E1FD0EDBCFE6FFFE0EDBCFE6FFC1DF1E
:10071000E552E552FD0EDBCFE9FFFE0EDBCFEAFF2F
:10072000080EE926010EEA22EF6A15D0FD0EDBCF96
:10073000E6FFFE0EDBCFE6FF84DFE552E552FD0E5D
:10074000DBCFE9FFFE0EDBCFEAFF080EE926010E44
:10075000EA22010EEF6EE552E7CFD9FF1200D9CFA2
:10076000E6FFE1CFD9FF020EE126DE6ADD6ADECFC9
:1007700014F0DDCF15F0D890155004E60E0E145C81
:10078000000E155821E2DECFE6FFDDCFE6FF59DF90
:10079000E552E552F40EE66E010EE66E80DDE5529E
:1007A000E552DECFE6FFDDCFE6FF73DFE552E5522F
:1007B000F40EE66E010EE66E72DDE552E552DF2ABA
:1007C000010ED5E3DB2AD3D7020EE15C02E2E16A37
:1007D000E552E16EE552E7CFD9FF1200000EE66E5A
:1007E000E66A2FDFE552E5521200000EE66EE66A79
:1007F00050DFE552E5521200040EE66EE66A21DF94
:10080000E552E5521200040EE66EE66A42DFE5525A
:10081000E5521200060EE66EE66A13DFE552E55277
:100820001200060EE66EE66A34DFE552E55212006B
:10083000010EE66EE66A05DFE552E5521200010E92
:10084000E66EE66A26DFE552E5521200050EE66E18
:10085000E66AF7DEE552E5521200050EE66EE66A3C
:1008600018DFE552E5521200070EE66EE66AE9DE91
:10087000E552E5521200070EE66EE66A0ADFE5521F
:10088000E55212000F01010E081903E1095101E1BF
:10089000010C000C0F01010E0A1903E10B5101E1DB
:1008A000010C000C0F01010E0C1903E10D5101E1C7
:1008B000010C000CD9CFE6FFE1CFD9FFFD0EDBCF55
:1008C00008F0FE0EDBCF09F0030E081801E1095015
:1008D00011E0020E081801E1095018E0010E081895
:1008E00022E1095020E1C60EE66E420EE66EE66A8F
:1008F000E66A13D0C60EE66E420EE66EE66AE66A59
:10090000C8EC15F0E552E552E552E552C60EE66E2A
:10091000420EE66EE66A010EE66EC8EC15F0E55290
:10092000E552E552E552E552E7CFD9FF1200D9CFA3
:10093000E6FFE1CFD9FF020EE126DE6ADD6ADECFF7
:1009400014F0DDCF15F0D890155004E60A0E145CB3
:10095000000E15581DE2DECFE9FFDDCFEAFF620E83
:10096000E926010EEA22EF34EA6AFE0BEA36E96E66
:10097000000EE9260F0EEA22010EEE1804E1ED50FA
:1009800002E1010E06D0DF2A010ED9E3DB2AD7D718
:10099000000E146E020EE15C02E2E16AE552E16EC5
:1009A0001450E552E7CFD9FF1200D9CFE6FFE1CFCF
:1009B000D9FF020EE126DE6ADD6ADECF14F0DDCF5C
:1009C00015F0D890155004E60A0E145C000E155868
:1009D00029E2DECFE9FFDDCFEAFF620EE926010E54
:1009E000EA22EF34EA6AFE0BEA36E96E000EE926E7
:1009F0000F0EEA22010EEE1810E1ED500EE1FE0E90
:100A0000EA6ADB34FE0BEA36E96E3A0EE926010E9D
:100A1000EA22DECFEEFFDDCFEDFFDF2A010ECDE3D0
:100A2000DB2ACBD7020EE15C02E2E16AE552E16E1D
:100A3000E552E7CFD9FF120001013A6B3B6B3C6BEB
:100A40003D6B12000101752B000E7623706B712B2C
:100A500072236E6B7D2B7E23110E711906E172518C
:100A600004E1716B726B010E6E6FAA0E751906E1CF
:100A7000765104E1756B766B010E706F3951280A5F
:100A800002E159EF0EF0090A02E193EF0DF0010ABD
:100A900002E1E3EF0CF03F0A02E177EF0CF0010A0C
:100AA00002E10BEF0CF00B0A02E191EF0AF0010AF0
:100AB00002E1CDEF09F0190A01E16AD3030A01E16D
:100AC00066D2020A01E165D1070A69E0F40A01E091
:100AD000120044EC13F0010E01014225406F000E9C
:100AE0004321416F010E4625446F000E4721456F9B
:100AF000E2EC00F0C7DE00090EE00101372B000E2A
:100B00003823383508E237510408000E385503E21F
:100B1000010E376F386BBEDE000902E1D2EF0EF036
:100B2000040E0101371901E138512CE0030E371989
:100B300001E1385118E0020E371901E1385111E096
:100B4000010E371901E1385101E01200AB0EE66EDB
:100B5000420EE66EDCEC1CF0E552E55201010B0E94
:100B60001BD01E0E19D068DF0101140E396F910ED3
:100B7000E66E420EE66EDCEC1CF0E552E552010139
:100B8000BFEF0AF0820EE66E420EE66EDCEC1CF061
:100B9000E552E5520101280E396FBFEF0AF0000E51
:100BA000E66EE66A4EDDE552E552010EE66EE66A55
:100BB00070DDE552E552020EE66EE66A6ADDE55248
:100BC000E552030EE66EE66A64DDE552E552040E78
:100BD000E66EE66A5EDDE552E552050EE66EE66A11
:100BE00030DDE552E55244EC13F07B0EE66E420E2A
:100BF000E66EE66AE66AC8EC15F0E552E552E552A3
:100C0000E552740EE66E420EE66EE66A010EE66E80
:100C1000C8EC15F0E552E552E552E55201014535C3
:100C200001E3A6D044510008000E455501E3A0D0D1
:100C300040C114F041C115F0166A176A15AE02D012
:100C40001668176814C0E6FF15C0E6FF16C0E6FF79
:100C500017C0E6FF0E0EE66EE66AA1EC14F0186E01
:100C6000060EE15E185044C114F045C115F0166A35
:100C7000176A15AE02D01668176814C0E6FF15C0D3
:100C8000E6FF16C0E6FF17C0E6FF0E0EE66E010E89
:100C9000E66EA1EC14F0186E060EE15E1850640EBC
:100CA000086E096A40C10DF041C10EF06AEC23F0F4
:100CB0000650010144253E6F075045213F6F6E519C
:100CC00061E0660EE66E420EE66EDCEC1CF0E5526C
:100CD000E55240C114F041C115F0166A176A15AE0D
:100CE00002D01668176814C0E6FF15C0E6FF16C0EC
:100CF000E6FF17C0E6FF02EC1DF0E552E552E552B3
:100D0000E552630EE66E420EE66EDCEC1CF0E55238
:100D1000E552530EE66E420EE66EDCEC1CF0E55238
:100D2000E55244C114F045C115F0166A176A15AEB4
:100D300002D01668176814C0E6FF15C0E6FF16C09B
:100D4000E6FF17C0E6FF02EC1DF0E552E552E55262
:100D5000E552630EE66E420EE66EDCEC1CF0E552E8
:100D6000E55201014007000E415B4407455B0AD094
:100D7000776B786B0C0E396F010E4625446F000EB1
:100D80004721456F8FDD000902E1D2EF0EF0CFEF72
:100D90000EF0000EE66EE66A54DCE552E552010EF6
:100DA000E66EE66A76DCE552E552020EE66EE66A2B
:100DB00070DCE552E552030EE66EE66A6ADCE55247
:100DC000E552040EE66EE66A3CDCE552E552050E9D
:100DD000E66EE66A5EDCE552E55244EC13F07B0E0B
:100DE000E66E420EE66EE66AE66AC8EC15F0E5527B
:100DF000E552E552E5524C0EE66E420EE66EE66AAC
:100E0000010EE66EC8EC15F0E552E552E552E552EA
:100E10000101413501E3A6D040510008000E4155C3
:100E200001E3A0D040C114F041C115F0166A176A61
:100E300015AE02D01668176814C0E6FF15C0E6FFAD
:100E400016C0E6FF17C0E6FF0E0EE66EE66AA1ECDE
:100E500014F0186E060EE15E185048C114F049C136
:100E600015F0166A176A15AE02D01668176814C016
:100E7000E6FF15C0E6FF16C0E6FF17C0E6FF0E0E40
:100E8000E66E010EE66EA1EC14F0186E060EE15E41
:100E90001850640E086E096A40C10DF041C10EF091
:100EA0006AEC23F00650010148253E6F07504921A6
:100EB0003F6F6E5165E0660EE66E420EE66EDCEC4C
:100EC0001CF0E552E55240C114F041C115F0166A1C
:100ED000176A15AE02D01668176814C0E6FF15C071
:100EE000E6FF16C0E6FF17C0E6FF02EC1DF0E55274
:100EF000E552E552E552630EE66E420EE66EDCEC1C
:100F00001CF0E552E5523B0EE66E420EE66EDCEC5E
:100F10001CF0E552E55248C114F049C115F0166ABB
:100F2000176A15AE02D01668176814C0E6FF15C020
:100F3000E6FF16C0E6FF17C0E6FF02EC1DF0E55223
:100F4000E552E552E552630EE66E420EE66EDCECCB
:100F50001CF0E552E55201014007000E415B4807D5
:100F6000495B0ED0776B786B0E0E396F010E422500
:100F7000406F000E4321416F4AC148F14BC149F116
:100F800091DC000902E1D2EF0EF0CFEF0EF0000E7F
:100F9000E66EE66A49EC03F0E552E552010EE66EB4
:100FA000E66A49EC03F0E552E552020EE66EE66AA7
:100FB00021EC03F0E552E552030EE66EE66A21EC01
:100FC00003F0E552E552040EE66EE66A49EC03F0E2
:100FD000E552E552050EE66EE66A49EC03F0E5528D
:100FE000E55244EC13F0350EE66E420EE66EE66A0C
:100FF000E66AC8EC15F0E552E552E552E552310ECD
:10100000E66E420EE66EE66A010EE66EC8EC15F07C
:10101000E552E552E552E5520101453501E3A6D01E
:1010200044510008000E455501E3A0D044C114F01E
:1010300045C115F0166A176A15AE02D01668176812
:1010400014C0E6FF15C0E6FF16C0E6FF17C0E6FFB6
:101050000E0EE66EE66AA1EC14F0186E060EE15E66
:10106000185040C114F041C115F0166A176A15AE48
:1010700002D01668176814C0E6FF15C0E6FF16C058
:10108000E6FF17C0E6FF0E0EE66E010EE66EA1EC5F
:1010900014F0186E060EE15E1850640E086E096AB0
:1010A00044C10DF045C10EF06AEC23F00650010179
:1010B00040253E6F075041213F6F6E5161E0210E88
:1010C000E66E420EE66EDCEC1CF0E552E55244C1E1
:1010D00014F045C115F0166A176A15AE02D01668ED
:1010E000176814C0E6FF15C0E6FF16C0E6FF17C07C
:1010F000E6FF02EC1DF0E552E552E552E552630EC3
:10110000E66E420EE66EDCEC1CF0E552E552130E84
:10111000E66E420EE66EDCEC1CF0E552E55240C194
:1011200014F041C115F0166A176A15AE02D01668A0
:10113000176814C0E6FF15C0E6FF16C0E6FF17C02B
:10114000E6FF02EC1DF0E552E552E552E552630E72
:10115000E66E420EE66EDCEC1CF0E552E552010153
:101160004407000E455B4007415B0AD0776B786B04
:101170000D0E396F010E4625446F000E4721456F55
:1011800052EC04F0000902E1D2EF0EF0CFEF0EF0C6
:10119000000EE66EE66A49EC03F0E552E552010EF8
:1011A000E66EE66A21EC03F0E552E552020EE66EC9
:1011B000E66A49EC03F0E552E552030EE66EE66A94
:1011C00021EC03F0E552E552040EE66EE66A49ECC6
:1011D00003F0E552E552050EE66EE66A49EC03F0CF
:1011E000E552E55244EC13F04C0EE66E420EE66E0C
:1011F000E66AE66AC8EC15F0E552E552E552E552BA
:10120000310EE66E420EE66EE66A010EE66EC8EC40
:1012100015F0E552E552E552E5520101413501E391
:10122000A6D040510008000E415501E3A0D048C1AE
:1012300014F049C115F0166A176A15AE02D0166887
:10124000176814C0E6FF15C0E6FF16C0E6FF17C01A
:10125000E6FF0E0EE66EE66AA1EC14F0186E060EBE
:10126000E15E185040C114F041C115F0166A176ACA
:1012700015AE02D01668176814C0E6FF15C0E6FF69
:1012800016C0E6FF17C0E6FF0E0EE66E010EE66E14
:10129000A1EC14F0186E060EE15E1850640E086E94
:1012A000096A48C10DF049C10EF06AEC23F00650FE
:1012B000010140253E6F075041213F6F6E5165E0AF
:1012C000020EE66E420EE66EDCEC1CF0E552E552D4
:1012D00048C114F049C115F0166A176A15AE02D05C
:1012E0001668176814C0E6FF15C0E6FF16C0E6FFD3
:1012F00017C0E6FF02EC1DF0E552E552E552E5525B
:10130000630EE66E420EE66EDCEC1CF0E552E55232
:10131000130EE66E420EE66EDCEC1CF0E552E55272
:1013200040C114F041C115F0166A176A15AE02D01B
:101330001668176814C0E6FF15C0E6FF16C0E6FF82
:1013400017C0E6FF02EC1DF0E552E552E552E5520A
:10135000630EE66E420EE66EDCEC1CF0E552E552E2
:1013600001014807000E495B4007415B0ED0776BD7
:10137000786B0B0E396F010E4225406F000E432132
:10138000416F4AC148F14BC149F152EC04F00009E8
:1013900002E1D2EF0EF0CFEF0EF044EC13F0F20EBC
:1013A000E66E410EE66EE66AE66AC8EC15F0E552B6
:1013B000E552E552E552EC0EE66E410EE66EE66A47
:1013C000010EE66EC8EC15F0E552E552E552E55225
:1013D00001017B517C110CE1B70EE66E410EE66E09
:1013E000DCEC1CF0E552E552010E01017B6F7C6BD9
:1013F000705101E0C3D06C516D110FE1B50EE66E76
:10140000410EE66E0F0EE66E010EE66EC8EC15F0AC
:10141000E552E552E552E5521CD03CC114F03DC105
:1014200015F0166A176A15AE02D01668176814C050
:10143000E6FF15C0E6FF16C0E6FF17C0E6FF0F0E79
:10144000E66E010EE66EA1EC14F0186E060EE15E7B
:10145000185073EC13F042EC04F0010813E10101A1
:101460003C2B000E3D233D3508E23C510908000E9F
:101470003D5503E2010E3C6F3D6B010E6C6F6D6BD1
:10148000756B766B52EC04F0010809E11CEC05F079
:101490000101150E396F820EE66E410E27D14AEC1E
:1014A00004F0010802E0D2EF0EF03CC14AF13DC168
:1014B0004BF101014A514625426F4B514721436F81
:1014C000150E396F1CEC05F001016C6B6D6B5D0E38
:1014D000E66E410EE66EDCEC1CF0E552E5524AC1C8
:1014E00014F04BC115F0166A176A15AE02D01668D3
:1014F000176814C0E6FF15C0E6FF16C0E6FF17C068
:10150000E6FF02EC1DF0E552E552E552E552510EC0
:10151000E66E410EE66EDCEC1CF0E552E552010190
:1015200077D144EC13F0420EE66E410EE66EE66AA9
:10153000E66AC8EC15F0E552E552E552E5523A0E7E
:10154000E66E410EE66EE66A010EE66EC8EC15F038
:10155000E552E552E552E55201017B517C110CE167
:10156000060EE66E410EE66EDCEC1CF0E552E5522E
:10157000010E01017B6F7C6B705104E039697B6B5C
:101580007C6B12006C516D1106E1030EE66E410E8C
:10159000E66E0E0E26D0010E6C192DE16D512BE179
:1015A0003AC114F03BC115F0166A176A15AE02D0A5
:1015B0001668176814C0E6FF15C0E6FF16C0E6FF00
:1015C00017C0E6FF0E0EE66E010EE66EA1EC14F0FB
:1015D000186E060EE15E1850B50EE66E410EE66E10
:1015E0000F0EE66E010EE66EC8EC15F0E552E55200
:1015F000E552E5523DD0020E6C193CE16D513AE1E5
:101600003AC114F03BC115F0166A176A15AE02D044
:101610001668176814C0E6FF15C0E6FF16C0E6FF9F
:1016200017C0E6FF0E0EE66E010EE66EA1EC14F09A
:10163000186E060EE15E18503CC114F03DC115F065
:10164000166A176A15AE02D01668176814C0E6FF4E
:1016500015C0E6FF16C0E6FF17C0E6FF0F0EE66EE8
:10166000010EE66EA1EC14F0186E060EE15E185045
:1016700073EC13F042EC04F001082DE101016C5110
:101680006D1103E1010E6C6F6D6B010E6C1910E1B1
:101690006D510EE13A2B000E3B233B351AE23A51D5
:1016A0000908000E3B5515E2010E3A6F3B6B11D055
:1016B000020E6C190EE16D510CE13C2B000E3D2326
:1016C0003D3507E23C510908000E3D5502E23C6BF6
:1016D0003D6B756B766B52EC04F001080DE11CEC70
:1016E00005F001013969D10EE66E400EE66EDCECC4
:1016F0001CF0E552E55212004AEC04F0000901E149
:1017000051D30101010E6C1906E16D5104E1020E85
:101710006C6F6D6B7DD0020E6C1901E079D06D514C
:1017200001E076D00B0E396F0A0E086E096A3AC1D5
:101730000DF03BC10EF06AEC23F0065001013C2590
:10174000466F07503D21476F46514A25426F47512A
:101750004B21436F42C140F1416F46C144F147C143
:1017600045F14AC148F14BC149F1AD0EE66E400E5C
:10177000E66EDCEC1CF0E552E55246C114F047C1C0
:1017800015F0166A176A15AE02D01668176814C0ED
:10179000E6FF15C0E6FF16C0E6FF17C0E6FF02EC45
:1017A0001DF0E552E552E552E552510EE66E410E4E
:1017B000E66EDCEC1CF0E552E552970EE66E400E4C
:1017C000E66EDCEC1CF0E552E55242C114F043C178
:1017D00015F0166A176A15AE02D01668176814C09D
:1017E000E6FF15C0E6FF16C0E6FF17C0E6FF02ECF5
:1017F0001DF0E552E552E552E552510EE66E410EFE
:10180000E66EDCEC1CF0E552E55201017B6B7C6B73
:10181000756B766B120044EC13F0310EE66E420EDF
:10182000E66EE66AE66AC8EC15F0E552E552E55266
:10183000E552350EE66E420EE66EE66A010EE66E83
:10184000C8EC15F0E552E552E552E552000EE66EA1
:10185000E66A21EC03F0E552E552010EE66EE66A17
:1018600049EC03F0E552E552020EE66EE66A49ECF9
:1018700003F0E552E552030EE66EE66A49EC03F02A
:10188000E552E552040EE66EE66A49EC03F0E552D5
:10189000E552050EE66EE66A21EC03F0E552E552EC
:1018A00001017B517C1114E1890EE66E400EE66E5B
:1018B000DCEC1CF0E552E552790EE66E400EE66E69
:1018C000DCEC1CF0E552E552010E01017B6F7C6BF4
:1018D00042EC04F0010805E10101200E396F7B6B39
:1018E0007C6B52EC04F0000901E15CD258D244EC6C
:1018F00013F0350EE66E420EE66EE66AE66AC8EC56
:1019000015F0E552E552E552E552310EE66E420E13
:10191000E66EE66A010EE66EC8EC15F0E552E55299
:10192000E552E552000EE66EE66A49EC03F0E55238
:10193000E552010EE66EE66A49EC03F0E552E55227
:10194000020EE66EE66A21EC03F0E552E552030E64
:10195000E66EE66A21EC03F0E552E552040EE66E0F
:10196000E66A49EC03F0E552E552050EE66EE66ADA
:1019700049EC03F0E552E55201017B517C1114E181
:10198000790EE66E400EE66EDCEC1CF0E552E55298
:10199000890EE66E400EE66EDCEC1CF0E552E55278
:1019A000010E01017B6F7C6B42EC04F0010805E144
:1019B0000101210E396F7B6B7C6B52EC04F0000946
:1019C00001E1F0D1ECD144EC13F0310EE66E420EA1
:1019D000E66EE66AE66AC8EC15F0E552E552E552B5
:1019E000E5524C0EE66E420EE66EE66A010EE66EBB
:1019F000C8EC15F0E552E552E552E552000EE66EF0
:101A0000E66A21EC03F0E552E552010EE66EE66A65
:101A100049EC03F0E552E552020EE66EE66A49EC47
:101A200003F0E552E552030EE66EE66A49EC03F078
:101A3000E552E552040EE66EE66A21EC03F0E5524B
:101A4000E552050EE66EE66A49EC03F0E552E55212
:101A500001014D355DE24C510008000E4D5558E234
:101A60004CC114F04DC115F0166A176A15AE02D0BC
:101A70001668176814C0E6FF15C0E6FF16C0E6FF3B
:101A800017C0E6FF0E0EE66E010EE66EA1EC14F036
:101A9000186E060EE15E18504CC13EF14DC13FF18B
:101AA00001016E513AE0890EE66E400EE66EDCEC06
:101AB0001CF0E552E552680EE66E400EE66EDCEC78
:101AC0001CF0E552E5524CC114F04DC115F0166AF8
:101AD000176A15AE02D01668176814C0E6FF15C065
:101AE000E6FF16C0E6FF17C0E6FF02EC1DF0E55268
:101AF000E552E552E552630EE66E420EE66EDCEC10
:101B00001CF0E552E55201014C07000E4D5B05D07B
:101B10001F0E396F030E4C6F4D6B52EC04F0000931
:101B200001E140D13CD144EC13F04C0EE66E420E84
:101B3000E66EE66AE66AC8EC15F0E552E552E55253
:101B4000E552310EE66E420EE66EE66A010EE66E74
:101B5000C8EC15F0E552E552E552E552000EE66E8E
:101B6000E66A49EC03F0E552E552010EE66EE66ADC
:101B700021EC03F0E552E552020EE66EE66A49EC0E
:101B800003F0E552E552030EE66EE66A21EC03F03F
:101B9000E552E552040EE66EE66A49EC03F0E552C2
:101BA000E552050EE66EE66A49EC03F0E552E552B1
:101BB00001014D356DE24C510008000E4D5568E2B3
:101BC0004CC114F04DC115F0166A176A15AE02D05B
:101BD0001668176814C0E6FF15C0E6FF16C0E6FFDA
:101BE00017C0E6FF0E0EE66EE66AA1EC14F0186E62
:101BF000060EE15E1850640E086E096A4CC10DF0C5
:101C00004DC10EF06AEC23F006C03EF107C03FF173
:101C100001016E5142E0680EE66E400EE66EDCECAD
:101C20001CF0E552E5524CC114F04DC115F0166A96
:101C3000176A15AE02D01668176814C0E6FF15C003
:101C4000E6FF16C0E6FF17C0E6FF02EC1DF0E55206
:101C5000E552E552E552630EE66E420EE66EDCECAE
:101C60001CF0E552E5525C0EE66E400EE66EDCECD2
:101C70001CF0E552E552630EE66E420EE66EDCECB9
:101C80001CF0E552E55201014C07000E4D5B05D0FA
:101C90001E0E396F030E4C6F4D6B52EC04F00009B1
:101CA00002E00101396952EC04F0010801E07AD048
:101CB00076D044EC13F04C0EE66E420EE66EE66A09
:101CC000010EE66EC8EC15F0E552E552E552E5521C
:101CD0004C0EE66E420EE66EE66AE66AC8EC15F059
:101CE000E552E552E552E5520101800E721529E1F7
:101CF000723504E271510708000E725522E3000E9E
:101D0000E66EE66A49EC03F0E552E552010EE66E36
:101D1000E66A49EC03F0E552E552020EE66EE66A29
:101D200049EC03F0E552E552030EE66EE66A49EC33
:101D300003F0E552E552040EE66EE66A49EC03F064
:101D400021D0000EE66EE66A49EC03F0E552E5525A
:101D5000010EE66EE66A21EC03F0E552E552020E52
:101D6000E66EE66A49EC03F0E552E552030EE66ED4
:101D7000E66A49EC03F0E552E552040EE66EE66AC7
:101D800021EC03F0E552E552050EE66EE66A49ECF9
:101D900003F0E552E55252EC04F0010803E10101C1
:061DA00039691200120077
:0A1DA600D9CFE6FFE1CFD9FF040E0C
:101DB000E126DE6ADD6ADECF14F0DDCF15F0166AAB
:101DC000176A15AE02D016681768D950FB0FE96E76
:101DD000FF0EDA20EA6EEE50145CEE501558EE500D
:101DE0001658EE5017581DE2020EDB6A030EDB6A2E
:101DF000020EDBCF14F0030EDBCF15F0D890155098
:101E000004E6050E145C000E155806E2020EDB2AED
:101E1000030EEEE3DB2AECD7DF2A010ECCE3DB2A4C
:101E2000CAD7040EE15C02E2E16AE552E16EE552D6
:101E3000E7CFD9FF1200D9CFE6FFE1CFD9FF040EDB
:101E4000E126DE6ADD6ADECF14F0DDCF15F0166A1A
:101E5000176A15AE02D016681768D950FB0FE96EE5
:101E6000FF0EDA20EA6EEE50145CEE501558EE507C
:101E70001658EE5017581DE2020EDB6A030EDB6A9D
:101E8000020EDBCF14F0030EDBCF15F0D890155007
:101E900004E6EE0E145C000E155806E2020EDB2A74
:101EA000030EEEE3DB2AECD7DF2A010ECCE3DB2ABC
:101EB000CAD7040EE15C02E2E16AE552E16EE55246
:101EC000E7CFD9FF1200D9CFE6FFE1CFD9FF0F0E40
:101ED0008116FE0EDB50F00B81128186010EE66E3C
:101EE000E66AE66AE66AA7DFE552E552E552E552A0
:101EF0008196010EE66EE66AE66AE66A9CDFE552C6
:101F0000E552E552E5520F0E8116FE0EDB38F00B5E
:101F100081128186010EE66EE66AE66AE66A8BDF6A
:101F2000E552E552E552E5528196010EE66EE66A0B
:101F3000E66AE66A80DFE552E552E552E552E5528F
:101F4000E7CFD9FF1200D9CFE6FFE1CFD9FFE652A4
:101F5000936A190EE66EE66AE66AE66A6CDFE55297
:101F6000E552E552E5520F0E8116F80E81160F0E5E
:101F70008116300E81128186010EE66EE66AE66AEF
:101F8000E66A59DFE552E552E552E5528196010EC7
:101F9000E66EE66AE66AE66A4EDFE552E552E5522B
:101FA000E5520F0E8116300E81128186010EE66E0B
:101FB000E66AE66AE66A3FDFE552E552E552E55237
:101FC0008196010EE66EE66AE66AE66A34DFE5525D
:101FD000E552E552E5520F0E8116300E81128186D0
:101FE000010EE66EE66AE66AE66A25DFE552E5522C
:101FF000E552E5528196010EE66EE66AE66AE66A09
:102000001ADFE552E552E552E5520F0E8116818A3C
:102010008186010EE66EE66AE66AE66A0CDFE55244
:10202000E552E552E5528196010EE66EE66AE66AF1
:10203000E66A01DFE552E552E552E552280EE66E0A
:1020400042DFE5520C0EE66E3EDFE552E552E55208
:10205000E7CFD9FF1200D9CFE6FFE1CFD9FF020EBB
:10206000E126DF6A010EDB6A81940F0EE66EE66AF6
:10207000E66AE66A98DEE552E552E552E5520F0E51
:1020800081128186E66EE66AE66AE66A8CDEE552D1
:10209000E552E552E5520F0E8114E76E010EE7CFCF
:1020A000DBFF81960F0EE66EE66AE66AE66A7BDE85
:1020B000E552E552E552E5520F0E81128186E66E39
:1020C000E66AE66AE66A6FDEE552E552E552E552F7
:1020D0000F0E8114DF6E010EDB50DF128196010EB0
:1020E000E66EE66AE66AE66A5EDEE552E552E552CB
:1020F000E552DF50146E020EE15C02E2E16AE55245
:10210000E16E1450E552E7CFD9FF1200D9CFE6FFB8
:10211000E1CFD9FFE652DF6A9EDFDF6EDFBEFCD77C
:10212000DF50E552E552E7CFD9FF1200D9CFE6FFE5
:10213000E1CFD9FF0F0E8116FE0EDB508112818692
:10214000050EE66EE66AE66AE66A2DDEE552E552BF
:10215000E552E5528196050EE66EE66AE66AE66AA3
:1021600022DEE552E552E552E552E552E7CFD9FFCE
:102170001200D9CFE6FFE1CFD9FF8194050EE66EBC
:10218000E66AE66AE66A0FDEE552E552E552E55296
:10219000FE0EDBCFE6FFCADFE552FE0EDB38F00BAA
:1021A000E66EC4DFE552E552E7CFD9FF1200D9CF82
:1021B000E6FFE1CFD9FF8184050EE66EE66AE66AA6
:1021C000E66AF1DDE552E552E552E552FE0EDBCF5F
:1021D000E6FFACDFE552FE0EDB38F00BE66EA6DF65
:1021E000E5528194E552E7CFD9FF1200D9CFE6FF3F
:1021F000E1CFD9FFFE0EDBCFE6FFD9DFE552E55296
:10220000E7CFD9FF1200D9CFE6FFE1CFD9FFFE0E0D
:10221000DBCFE6FFCCDFE552E552E7CFD9FF120076
:10222000D9CFE6FFE1CFD9FFFD0EDBCFF6FFFE0EE3
:10223000DBCFF7FF0800F5500FE0FD0EDBCFF6FF18
:10224000DB2AFE0EDBCFF7FF01E3DB2A0800F550A7
:10225000E66ED9DFE552E8D7E552E7CFD9FF1200A5
:10226000D9CFE6FFE1CFD9FFE652FD0EDB500F0BD1
:10227000146EFE0EDB50010B400DF3501424DF6E84
:102280007F0EDF14800FDF6EDFCFE6FF72DFE552D7
:10229000E552E552E7CFD9FF1200010EE66E69DF85
:1022A000E552E66AE66ADCDFE552E5521200D9CF74
:1022B000E6FFE1CFD9FF050EE126010EF36EDB6EDE
:1022C000020EDB6A030EDB6A040EDB6ADF6ADFCF15
:1022D00014F0156A14BE1568FB0EDBCF16F0FC0E69
:1022E000DBCF17F015501718E8AE02D0173404D022
:1022F0001650145C175015582DE2FD0EDBCF14F06C
:10230000FE0EDBCF15F0166A176A15AE02D01668FE
:102310001768D950010FE96EDACFEAFF14C00BF04D
:1023200015C00CF016C00DF017C00EF0EECF06F081
:10233000EECF07F0EECF08F0EFCF09F02EEC24F04F
:1023400005C0EDFF04C0EDFF03C0EDFF02C0EFFFCD
:10235000DF2ABDD7010EDBCF14F0020EDBCF15F064
:10236000030EDBCF16F0040EDBCF17F014C006F01F
:1023700015C007F016C008F017C009F0050EE15CA3
:1023800002E2E16AE552E16EE552E7CFD9FF1200C1
:10239000D9CFE6FFE1CFD9FF020EE126DF6AFB0EBF
:1023A000DBCF14F0FC0EDBCF15F0FD0EDBCF16F00B
:1023B000FE0EDBCF17F0145015101610171005E1A4
:1023C000300EE66E20DFE552F4D0D950FB0FE96EF7
:1023D000FF0EDA20EA6ED890030EEB50000A08E6F2
:1023E000000EEE5C000EEE58000EEE58000EEE5899
:1023F00015E22D0EE66E07DFE552D950FB0FE96EB0
:10240000FF0EDA20EA6E000EEE6CEF1EEE22EF1EDB
:10241000EE22EF1EEF22ED52ED52ED52DE52070E8C
:10242000DD6E010EDBCF14F0000EE76E1418E8AE7F
:1024300002D0143403D0E750D880145401E3B9D04B
:10244000010EDB04186E196A18BE196818C0E6FF81
:1024500019C0E6FF0A0EE66EE66A29DFE552E5528C
:10246000E552E55206C014F007C015F008C016F09A
:1024700009C017F006C00BF007C00CF008C00DF043
:1024800009C00EF0FB0EDBCF06F0FC0EDBCF07F031
:10249000FD0EDBCF08F0FE0EDBCF09F066EC24F07A
:1024A000065007100810091041E0010EDF6EDB0432
:1024B0001C6E1D6A1CBE1D681CC0E6FF1DC0E6FF29
:1024C0000A0EE66EE66AF3DEE552E552E552E552A3
:1024D00006C018F007C019F008C01AF009C01BF0B8
:1024E00006C00BF007C00CF008C00DF009C00EF0DC
:1024F000FB0EDBCF06F0FC0EDBCF07F0FD0EDBCFD3
:1025000008F0FE0EDBCF09F066EC24F006C014F0F4
:1025100007C015F008C016F009C017F0300E1426D9
:10252000000E152216221722145003D0DF5004E0AB
:10253000300EE66E68DEE552010EDB04186E196A95
:1025400018BE196818C0E6FF19C0E6FF0A0EE66E4D
:10255000E66AADDEE552E552E552E55206C014F0FA
:1025600007C015F008C016F009C017F0D950FB0FCE
:10257000E96EFF0EDA20EA6E06C00BF007C00CF021
:1025800008C00DF009C00EF0EECF06F0EECF07F058
:10259000EECF08F0EFCF09F066EC24F005C0EDFFB8
:1025A00004C0EDFF03C0EDFF02C0EFFF010EDB062C
:1025B00038D7020EE15C02E2E16AE552E16EE552D3
:1025C000E7CFD9FF1200D9CFE6FFE1CFD9FFFD0E4B
:1025D000DBCFE6FFFE0EDBCFE6FF42DEE552E55243
:1025E000D950F90FE96EFF0EDA20EA6EEECFE6FF62
:1025F000EECFE6FFEECFE6FFEFCFE6FFC9DEE55216
:10260000E552E552E552E552E7CFD9FF1200D9CFA6
:10261000E6FFE1CFD9FFFD0EDBCFE6FFFE0EDBCFFD
:10262000E6FF1EDEE552E552FB0EDBCFE6FFFC0EB9
:10263000DBCFE6FFF5DDE552E552E552E7CFD9FF06
:102640001200D9CFE6FFE1CFD9FFFCC014F0FDC0E6
:1026500015F0040ED89014361536E806FBE1C10ECD
:102660001426000E152214500001FE25E96E1550A7
:10267000FF21EA6EFE0EDBCFEFFFFE2B000EFF23E5
:10268000E552E7CFD9FF1200D9CFE6FFE1CFD9FF5E
:10269000E652DF6ADFCF14F0100EE76E1418E8AED2
:1026A00002D0E73402D0E750145C18E2DFCFE9FF34
:1026B000EA6AE9BEEA68C10EE926000EEA22200EA7
:1026C000EF6EDFCFE9FFEA6AE9BEEA68D10EE926DC
:1026D000000EEA22200EEF6EDF2ADCD7E552E5522B
:1026E000E7CFD9FF1200D9CFE6FFE1CFD9FFE652FD
:1026F0000001C051030A52E0010A36E0030A1AE061
:10270000010A67E1E66AE66AABDDE552E552DF6A97
:10271000080EDF5C0CE2DF50EA6AC10FE96E000EC2
:10272000EA22EF50E66E6FDDE552DF2AF1D70001B5
:10273000010E32D0080EE66EE66A92DDE552E552F1
:10274000DF6A080EDF5C0DE2080EDF24EA6AC10FC3
:10275000E96E000EEA22EF50E66E55DDE552DF2A03
:10276000F0D70001020E18D0E66A010EE66E78DDA1
:10277000E552E552DF6A080EDF5C0CE2DF50EA6AE0
:10278000D10FE96E000EEA22EF50E66E3CDDE55215
:10279000DF2AF1D70001030EC06F1CD0080EE66ED1
:1027A000010EE66E5DDDE552E552DF6A080EDF5C84
:1027B0000DE2080EDF24EA6AD10FE96E000EEA226C
:1027C000EF50E66E20DDE552DF2AF0D70001C06B46
:1027D00001D0C06BE552E552E7CFD9FF1200D9CF47
:1027E000E6FFE1CFD9FFE6520001C051010A1BE02C
:1027F000010A32E1E66AE66A33DDE552E552DF6A54
:10280000100EDF5C0CE2DF50EA6AC10FE96E000EC9
:10281000EA22EF50E66EF7DCE552DF2AF1D700013D
:10282000010EC06F1AD0E66A010EE66E19DDE552A0
:10283000E552DF6A100EDF5C0CE2DF50EA6AD10F6E
:10284000E96E000EEA22EF50E66EDDDCE552DF2A8B
:10285000F1D70001C06B01D0C06BE552E552E7CF64
:10286000D9FF1200D9CFE6FFE1CFD9FFE652E66AE1
:10287000E66AF6DCE552E552DF6A100EDF5C0CE238
:10288000DF50EA6AC10FE96E000EEA22EF50E66EF1
:10289000BADCE552DF2AF1D7E66A010EE66EE0DC2B
:1028A000E552E552DF6A100EDF5C0CE2DF50EA6AA7
:1028B000D10FE96E000EEA22EF50E66EA4DCE5527D
:1028C000DF2AF1D7E552E552E7CFD9FF1200D9CF81
:1028D000E6FFE1CFD9FFFE0EDB50010B0001FC6FDC
:1028E000FD6BFD0EDB500F0BFE6FFF6BFC0EDB5024
:1028F0000A0802E1610E05D0FC0EDB500D0805E16F
:10290000640EF36EFC0EF3CFDBFFFCC014F0FDC0D1
:1029100015F0040ED89014361536E806FBE1C10E0A
:102920001426000E152214500001FE25E96E1550E4
:10293000FF21EA6EFC0EDBCFEFFFE552E7CFD9FFB8
:102940001200D9CFE6FFE1CFD9FF020EE126DF6A00
:10295000FE0EDB50010B0001FC6FFD6BFD0EDB502A
:102960000F0BFE6FFF6BF90EDBCF14F0FA0EDBCF0F
:1029700015F0FB0EDBCF16F0FC0EDBCF17F014507A
:1029800015101610171005E1300EE66E5ADEE552EE
:10299000F5D0D950F90FE96EFF0EDA20EA6ED89023
:1029A000030EEB50000A08E6000EEE5C000EEE5837
:1029B000000EEE58000EEE5815E22D0EE66E41DECA
:1029C000E552D950F90FE96EFF0EDA20EA6E000EDB
:1029D000EE6CEF1EEE22EF1EEE22EF1EEF22ED5206
:1029E000ED52ED52DE52070EDD6E010EDBCF14F01C
:1029F000000EE76E1418E8AE02D0143403D0E7508E
:102A0000D880145401E3BAD0010EDB04186E196AA1
:102A100018BE196818C0E6FF19C0E6FF0A0EE66E78
:102A2000E66A45DCE552E552E552E55206C014F08F
:102A300007C015F008C016F009C017F006C00BF06B
:102A400007C00CF008C00DF009C00EF0F90EDBCF86
:102A500006F0FA0EDBCF07F0FB0EDBCF08F0FC0E22
:102A6000DBCF09F066EC24F00650071008100910BF
:102A700041E0010EDF6EDB041C6E1D6A1CBE1D688A
:102A80001CC0E6FF1DC0E6FF0A0EE66EE66A0FDC1C
:102A9000E552E552E552E55206C018F007C019F0BC
:102AA00008C01AF009C01BF006C00BF007C00CF0FC
:102AB00008C00DF009C00EF0F90EDBCF06F0FA0EDB
:102AC000DBCF07F0FB0EDBCF08F0FC0EDBCF09F00D
:102AD00066EC24F006C014F007C015F008C016F02C
:102AE00009C017F0300E1426000E152216221722E8
:102AF000145003D0DF5004E0300EE66EA2DDE55244
:102B0000010EDB04186E196A18BE196818C0E6FFBA
:102B100019C0E6FF0A0EE66EE66A57EC11F0E552C0
:102B2000E552E552E55206C014F007C015F008C0A2
:102B300016F009C017F0D950F90FE96EFF0EDA2030
:102B4000EA6E06C00BF007C00CF008C00DF009C01B
:102B50000EF0EECF06F0EECF07F0EECF08F0EFCF9D
:102B600009F066EC24F005C0EDFF04C0EDFF03C0E2
:102B7000EDFF02C0EFFF010EDB0637D7020EE15C6E
:102B800002E2E16AE552E16EE552E7CFD9FF1200B9
:102B9000D9CFE6FFE1CFD9FFFE0EDB50010B0001DC
:102BA000FC6FFD6BFD0EDB500F0BFE6FFF6BFB0E22
:102BB000DBCFF6FFFC0EDBCFF7FF0800F5500FE090
:102BC000FB0EDBCFF6FFDB2AFC0EDBCFF7FF01E3CA
:102BD000DB2A0800F550E66E34DDE552E8D7E55211
:062BE000E7CFD9FF12004F
:0A2BE6000F0E946E82681200070EB5
:102BF0009410946EDF0E9414946E82681200D9CFF4
:102C0000E6FFE1CFD9FF040EE126DE6ADD6ADECF02
:102C100014F0DDCF15F0D890155004E6040E145CC6
:102C2000000E155801E390D0DECFE9FFDDCFEAFFBB
:102C3000200EE9260F0EEA22EF1C826E020EDB6ADE
:102C4000030EDB6A020EDBCF14F0030EDBCF15F0B0
:102C5000D890155004E6040E145C000E15586EE270
:102C6000020EDBCFE9FF030EDBCFEAFF240EE926DD
:102C70000F0EEA22EF5082143FE1DECF18F0DDCFD5
:102C800019F0D89018361936D89018361936020E21
:102C9000DB501824E96E030EDB501920EA6ED89041
:102CA000E936EA36000EE9260F0EEA22EECF16F0DC
:102CB000EFCF17F0010E1626000E1722DECF14F00C
:102CC000DDCF15F0D89014361536D8901436153659
:102CD000020EDB501424E96E030EDB501520EA6E61
:102CE000D890E936EA36000EE9260F0EEA2216C021
:102CF000EEFF17C0EDFF1BD0DECF14F0DDCF15F0D7
:102D0000D89014361536D89014361536020EDB508E
:102D10001424E96E030EDB501520EA6ED890E936D4
:102D2000EA36000EE9260F0EEA22EE6AED6A020E7E
:102D3000DB2A030E01E286D7DB2A84D7DF2A010EC5
:102D400001E265D7DB2A63D7040EE15C02E2E16AA7
:102D5000E552E16EE552E7CFD9FF1200D9CFE6FF89
:102D6000E1CFD9FF040EE126DE6ADD6ADECF14F082
:102D7000DDCF15F0D890155004E6020E145C000E5D
:102D8000155801E391D0DECFE9FFDDCFEAFF200E39
:102D9000E9260F0EEA22EF1C8214826E020EDB6A15
:102DA000030EDB6A020EDBCF14F0030EDBCF15F04F
:102DB000D890155004E6040E145C000E15586EE20F
:102DC000020EDBCFE9FF030EDBCFEAFF240EE9267C
:102DD0000F0EEA22EF5082143FE1DECF18F0DDCF74
:102DE00019F0D89018361936D89018361936020EC0
:102DF000DB501824E96E030EDB501920EA6ED890E0
:102E0000E936EA36000EE9260F0EEA22EECF16F07A
:102E1000EFCF17F0010E1626000E1722DECF14F0AA
:102E2000DDCF15F0D89014361536D89014361536F7
:102E3000020EDB501424E96E030EDB501520EA6EFF
:102E4000D890E936EA36000EE9260F0EEA2216C0BF
:102E5000EEFF17C0EDFF1BD0DECF14F0DDCF15F075
:102E6000D89014361536D89014361536020EDB502D
:102E70001424E96E030EDB501520EA6ED890E93673
:102E8000EA36000EE9260F0EEA22EE6AED6A020E1D
:102E9000DB2A030E01E286D7DB2A84D7DF2A010E64
:102EA00001E264D7DB2A62D7040EE15C02E2E16A48
:102EB000E552E16EE552E7CFD9FF1200D9CFE6FF28
:102EC000E1CFD9FF040EE126DE6ADD6A020EDB6A7D
:102ED000030EDB6A0F01201D8214826E020EDB6A74
:102EE000030EDB6A020EDBCF14F0030EDBCF15F00E
:102EF000D890155004E6040E145C000E15586EE2CE
:102F0000020EDBCFE9FF030EDBCFEAFF240EE9263A
:102F10000F0EEA22EF5082143FE1DECF18F0DDCF32
:102F200019F0D89018361936D89018361936020E7E
:102F3000DB501824E96E030EDB501920EA6ED8909E
:102F4000E936EA36000EE9260F0EEA22EECF16F039
:102F5000EFCF17F0010E1626000E1722DECF14F069
:102F6000DDCF15F0D89014361536D89014361536B6
:102F7000020EDB501424E96E030EDB501520EA6EBE
:102F8000D890E936EA36000EE9260F0EEA2216C07E
:102F9000EEFF17C0EDFF1BD0DECF14F0DDCF15F034
:102FA000D89014361536D89014361536020EDB50EC
:102FB0001424E96E030EDB501520EA6ED890E93632
:102FC000EA36000EE9260F0EEA22EE6AED6A020EDC
:102FD000DB2A030E01E286D7DB2A84D7040EE15CEC
:102FE00002E2E16AE552E16EE552E7CFD9FF120055
:102FF000D9CFE6FFE1CFD9FF040EE126DE6ADD6A14
:10300000020EDB6A030EDB6A010EDE6EDD6ADECFC6
:10301000E9FFDDCFEAFF200EE9260F0EEA22EF1CC2
:103020008214826E020EDB6A030EDB6A020EDBCFB5
:1030300014F0030EDBCF15F0D890155004E6030E04
:10304000145C000E15586EE2020EDBCFE9FF030E92
:10305000DBCFEAFF240EE9260F0EEA22EF5082149E
:103060003FE1DECF18F0DDCF19F0D89018361936D1
:10307000D89018361936020EDB501824E96E030E6C
:10308000DB501920EA6ED890E936EA36000EE926C0
:103090000F0EEA22EECF16F0EFCF17F0010E162634
:1030A000000E1722DECF14F0DDCF15F0D8901436C5
:1030B0001536D89014361536020EDB501424E96EFE
:1030C000030EDB501520EA6ED890E936EA36000E82
:1030D000E9260F0EEA2216C0EEFF17C0EDFF1BD047
:1030E000DECF14F0DDCF15F0D89014361536D89019
:1030F00014361536020EDB501424E96E030EDB5035
:103100001520EA6ED890E936EA36000EE9260F0E51
:10311000EA22EE6AED6A020EDB2A030E01E286D78E
:10312000DB2A84D7040EE15C02E2E16AE552E16E3B
:10313000E552E7CFD9FF1200D9CFE6FFE1CFD9FFA3
:10314000040EE126DE6ADD6ADECF14F0DDCF15F075
:10315000FD0EDBCF16F0FE0EDBCF17F01550171863
:10316000E8AE02D0173404D01650145C175015582E
:103170001DE2020EDB6A030EDB6A020EDBCF14F0E7
:10318000030EDBCF15F0D890155004E6EE0E145C5C
:10319000000E155806E2020EDB2A030EEEE3DB2AD0
:1031A000ECD7DF2A010ED0E3DB2ACED7040EE15C98
:1031B00002E2E16AE552E16EE552E7CFD9FF120083
:1031C000D9CFE6FFE1CFD9FF040EE126DE6ADD6A42
:1031D000DECF14F0DDCF15F0D890155004E6040EC4
:1031E000145C000E155875E2DECFE9FFDDCFEAFF73
:1031F000200EE9260F0EEA22EF1C826E020EDB6A19
:10320000030EDB6A020EDBCF14F0030EDBCF15F0EA
:10321000D890155004E6040E145C000E15584AE2CE
:10322000DECF14F0DDCF15F0D89014361536D890D7
:1032300014361536020EDB501424E96E030EDB50F3
:103240001520EA6ED890E936EA36000EE9260F0E10
:10325000EA22EE6AED6A020EDBCFE9FF030EDBCF56
:10326000EAFF240EE9260F0EEA22EF5082141CE139
:10327000DECF14F0DDCF15F0D89014361536D89087
:1032800014361536020EDB501424E96E030EDB50A3
:103290001520EA6ED890E936EA36000EE9260F0EC0
:1032A000EA22010EEE6EED6A020EDB2A030EAAE39D
:1032B000DB2AA8D78250816EE80EE66E030EE66E1A
:1032C0003BDFE552E552DF2A010E01E281D7DB2A1E
:1032D0007FD7040EE15C02E2E16AE552E16EE5525D
:1032E000E7CFD9FF1200D9CFE6FF040EE12684B064
:1032F00005D00F01002B000E012303D00F01006B3E
:10330000016B84B204D0022B000E032302D0026BA7
:10331000036B84B404D0042B000E052302D0046B8D
:10332000056B82B004D0062B000E072302D0066B7B
:10333000076B82B204D0082B000E092302D0086B61
:10334000096B82B404D00A2B000E0B2302D00A6B47
:103350000B6B82BA04D00C2B000E0D2302D00C6B29
:103360000D6B81B004D00E2B000E0F2302D00E6B1C
:103370000F6B040EE15C02E2E16AE552E16EE55298
:10338000E7CFD9FF1200070E9610966E270E941005
:0A339000946E010E9310936E12006C
:06339A00D9CFE6FFE1CFF0
:1033A000D9FFD59EFD0EDBCF28FFFE0EDBCF29FF18
:1033B000D59C17681868196A28CF1AF029CF1BF016
:1033C0001C6A1A50175C146E1B501858156E1C504E
:1033D0001958166E0C6A010E0D6E0E6A14C007F0B5
:1033E00015C008F016C009F03DEC23F00350D66E6E
:1033F00017681868196A28CF1AF029CF1BF01C6AC1
:103400001A50175C146E1B501858156E1C50195822
:10341000166E0C6A010E0D6E0E6A14C007F015C010
:1034200008F016C009F03DEC23F007C014F008C006
:1034300015F009C016F00750D76ED59AD586F28AD6
:10344000F294F184D58EE552E7CFD9FF1200D59ED4
:10345000120017681868196A28CF1AF029CF1BF0D4
:103460001C6A1A50175C146E1B501858156E1C50AD
:103470001958166E0C6A010E0D6E0E6A14C007F014
:1034800015C008F016C009F03DEC23F00350D66ECD
:1034900017681868196A28CF1AF029CF1BF01C6A20
:1034A0001A50175C146E1B501858156E1C50195882
:1034B000166E0C6A010E0D6E0E6A14C007F015C070
:1034C00008F016C009F03DEC23F007C014F008C066
:1034D00015F009C016F00750D76ED58E1200D9CF5F
:1034E000E6FFE1CFD9FFCD90FD0EDBCF2AFFFE0E28
:1034F000DBCF2BFF17681868196A2ACF1AF02BCF79
:103500001BF01C6A1A50175C146E1B501858156E6D
:103510001C501958166E0C6A010E0D6E0E6A14C0FE
:1035200007F015C008F016C009F03DEC23F0075075
:10353000CF6E17681868196A2ACF1AF02BCF1BF0C4
:103540001C6A1A50175C146E1B501858156E1C50CC
:103550001958166E0C6A010E0D6E0E6A14C007F033
:1035600015C008F016C009F03DEC23F003C014F0BC
:1035700004C015F005C016F00350CE6E9D809E90DD
:103580009F90CD8ECD8CCD98CD9ACD96CD92CD807D
:10359000E552E7CFD9FF120017681868196A2ACFD9
:1035A0001AF02BCF1BF01C6A1A50175C146E1B50BC
:1035B0001858156E1C501958166E0C6A010E0D6EB7
:1035C0000E6A14C007F015C008F016C009F03DECF3
:1035D00023F00750CF6E17681868196A2ACF1AF0BF
:1035E0002BCF1BF01C6A1A50175C146E1B50185816
:1035F000156E1C501958166E0C6A010E0D6E0E6A6F
:1036000014C007F015C008F016C009F03DEC23F017
:1036100003C014F004C015F005C016F00350CE6EC0
:10362000CD801200CD901200D9CFE6FFE1CFD9FFB7
:10363000CA94CC6AFE0EDB500F012C6F2D6BCB6E43
:103640009D829E929F92CA90CA92CA84E552E7CF09
:10365000D9FF12002CCFCBFFCA841200CA941200EB
:10366000D9CFE6FFE1CFD9FFB190FD0EDBCF2EFF22
:10367000FE0EDBCF2FFF17681868196A2ECF1AF0DD
:103680002FCF1BF01C6A1A50175C146E1B50185871
:10369000156E1C501958166E0C6A010E0D6E0E6ACE
:1036A00014C007F015C008F016C009F03DEC23F077
:1036B0000750B36E17681868196A2ECF1AF02FCF0B
:1036C0001BF01C6A1A50175C146E1B501858156EAC
:1036D0001C501958166E0C6A010E0D6E0E6A14C03D
:1036E00007F015C008F016C009F03DEC23F003C048
:1036F00014F004C015F005C016F00350B26EA0829D
:10370000A192A292B18EB198B19AB192B180E552D4
:10371000E7CFD9FF120017681868196A2ECF1AF080
:103720002FCF1BF01C6A1A50175C146E1B501858D0
:10373000156E1C501958166E0C6A010E0D6E0E6A2D
:1037400014C007F015C008F016C009F03DEC23F0D6
:103750000350B26E17681868196A2ECF1AF02FCF6F
:103760001BF01C6A1A50175C146E1B501858156E0B
:103770001C501958166E0C6A010E0D6E0E6A14C09C
:1037800007F015C008F016C009F03DEC23F007C0A3
:1037900014F008C015F009C016F00750B36EB180E0
:1037A0001200B19012000F01382B000E3923405146
:1037B000385D4151395904E3386B396B010E306F74
:1037C00012000F013A2B000E3B2342513A5D435148
:1037D0003B5904E33A6B3B6B010E316F12000F0152
:1037E0003C2B000E3D2344513C5D45513D5904E3C3
:1037F0003C6B3D6B010E326F12000F013E2B000E31
:103800003F2346513E5D47513F5904E33E6B3F6BBA
:10381000010E336F1200D9CFE6FFE1CFD9FFFD0EC5
:10382000DBCF40FFFE0EDBCF41FF0F01386B396B62
:10383000306BE552E7CFD9FF1200D9CFE6FFE1CFD9
:10384000D9FFFD0EDBCF42FFFE0EDBCF43FF050E9F
:103850000D6E0E6A42CF08F043CF09F017EC23F04B
:1038600008C042FF09C043FF0F013A6B3B6B316B4D
:10387000E552E7CFD9FF1200D9CFE6FFE1CFD9FF5C
:10388000FD0EDBCF46FFFE0EDBCF47FF0A0E0D6EAF
:103890000E6A46CF08F047CF09F017EC23F008C0B6
:1038A00046FF09C047FF0F013E6B3F6B336BE5528C
:0638B000E7CFD9FF120072
:0A38B600B06A810EAF6EAC8AAC94CC
:1038C000B886AC98AB8EAB889E9A9D8A9F9A949C42
:1038D000948E1200D9CFE6FFE1CFD9FF040EE12686
:1038E000DE6ADD6ADECF14F0DDCF15F0FD0EDBCF32
:1038F00016F0FE0EDBCF17F015501718E8AE02D009
:10390000173404D01650145C175015581DE2020EDF
:10391000DB6A030EDB6A020EDBCF14F0030EDBCF93
:1039200015F0D890155004E6EE0E145C000E1558F4
:1039300006E2020EDB2A030EEEE3DB2AECD7DF2AD7
:10394000010ED0E3DB2ACED7040EE15C02E2E16A8D
:10395000E552E16EE552E7CFD9FF1200D9CFE6FF7D
:10396000E1CFD9FF9EA8FED7FE0EDB50AD6E9E982C
:10397000E552E7CFD9FF1200D9CFE6FFE1CFD9FF5B
:10398000FD0EDBCFE9FFFE0EDBCFEAFFEF5010E0CC
:10399000FD0EDBCFE9FFFE0EDBCFEAFFEF50E66E58
:1039A000DDDFE552FD0EDB2AFE0EEAE3DB2AE8D777
:1039B000E552E7CFD9FF1200D9CFE6FFE1CFD9FF1B
:1039C000FD0EDBCFF6FFFE0EDBCFF7FF0800F55054
:1039D00015E0FD0EDBCFF6FFFE0EDBCFF7FF080094
:1039E000F550E66EBBDFE552FD0EDBCFF6FFDB2ABE
:1039F000FE0EDBCFF7FFE4E3DB2AE2D7E552E7CFA9
:103A0000D9FF1200D9CFE6FFE1CFD9FF020EE126A0
:103A1000DF6AFB0EDBCF14F0FC0EDBCF15F0FD0EE2
:103A2000DBCF16F0FE0EDBCF17F01450151016107A
:103A3000171005E1300EE66E91DFE552F4D0D95053
:103A4000FB0FE96EFF0EDA20EA6ED890030EEB5002
:103A5000000A08E6000EEE5C000EEE58000EEE586E
:103A6000000EEE5815E22D0EE66E78DFE552D950C5
:103A7000FB0FE96EFF0EDA20EA6E000EEE6CEF1E11
:103A8000EE22EF1EEE22EF1EEF22ED52ED52ED522E
:103A9000DE520A0EDD6E010EDBCF14F0000EE76E73
:103AA0001418E8AE02D0143403D0E750D880145470
:103AB00001E3B9D0010EDB04186E196A18BE19684B
:103AC00018C0E6FF19C0E6FF0A0EE66EE66AB5D832
:103AD000E552E552E552E55206C014F007C015F074
:103AE00008C016F009C017F006C00BF007C00CF0B4
:103AF00008C00DF009C00EF0FB0EDBCF06F0FC0E87
:103B0000DBCF07F0FD0EDBCF08F0FE0EDBCF09F0B8
:103B100066EC24F0065007100810091041E0010E71
:103B2000DF6EDB041C6E1D6A1CBE1D681CC0E6FF38
:103B30001DC0E6FF0A0EE66EE66A7FD8E552E55242
:103B4000E552E55206C018F007C019F008C01AF097
:103B500009C01BF006C00BF007C00CF008C00DF048
:103B600009C00EF0FB0EDBCF06F0FC0EDBCF07F03A
:103B7000FD0EDBCF08F0FE0EDBCF09F066EC24F083
:103B800006C014F007C015F008C016F009C017F001
:103B9000300E1426000E152216221722145003D0C0
:103BA000DF5004E0300EE66ED9DEE552010EDB0494
:103BB000186E196A18BE196818C0E6FF19C0E6FF2A
:103BC0000A0EE66EE66A39D8E552E552E552E5524C
:103BD00006C014F007C015F008C016F009C017F0B1
:103BE000D950FB0FE96EFF0EDA20EA6E06C00BF02B
:103BF00007C00CF008C00DF009C00EF0EECF06F0C3
:103C0000EECF07F0EECF08F0EFCF09F066EC24F02E
:103C100005C0EDFF04C0EDFF03C0EDFF02C0EFFFE4
:103C2000010EDB0638D7020EE15C02E2E16AE552E2
:103C3000E16EE552E7CFD9FF1200D9CFE6FFE1CF21
:103C4000D9FF050EE126010EF36EDB6E020EDB6A74
:103C5000030EDB6A040EDB6ADF6ADFCF14F0156A3D
:103C600014BE1568FB0EDBCF16F0FC0EDBCF17F091
:103C700015501718E8AE02D0173404D01650145C53
:103C8000175015582DE2FD0EDBCF14F0FE0EDBCFE2
:103C900015F0166A176A15AE02D016681768D95063
:103CA000010FE96EDACFEAFF14C00BF015C00CF07B
:103CB00016C00DF017C00EF0EECF06F0EECF07F0F5
:103CC000EECF08F0EFCF09F02EEC24F005C0EDFFA9
:103CD00004C0EDFF03C0EDFF02C0EFFFDF2ABDD738
:103CE000010EDBCF14F0020EDBCF15F0030EDBCF9D
:103CF00016F0040EDBCF17F014C006F015C007F065
:103D000016C008F017C009F0050EE15C02E2E16A96
:0C3D1000E552E16EE552E7CFD9FF12004A
:043D1C00D9CFE6FF16
:103D2000E1CFD9FF020EE126FE0EDB500F0BDF6E56
:103D3000FE0EDB380F0B0A0D010EF3CFDBFFDB505D
:103D4000DF24146E020EE15C02E2E16AE552E16EEC
:103D50001450E552E7CFD9FF1200D9CFE6FFE1CFEB
:103D6000D9FF020EE1260A0E146E0E6EFE0EDBCF98
:103D700009F0F7EC24F00550DF6E0A0E146E0E6E9B
:103D8000FE0EDBCF09F0F7EC24F00950100D010E08
:103D9000F3CFDBFFDB50DF24146E020EE15C02E2A6
:103DA000E16AE552E16E1450E552E7CFD9FF120007
:103DB00094869488C79EC79CC690C692C694C686B1
:103DC000310EC86EC68A1200D9CFE6FFE1CFD9FF07
:103DD0009E96FE0EDB50D00FC96E9EA6FED7E55212
:103DE000E7CFD9FF1200D9CFE6FFE1CFD9FF9E96EA
:103DF000FE0EDB50A00FC96E9EA6FED7E552E7CFA0
:103E0000D9FF12009E96C5809EA6FED712009E96F0
:103E1000C5849EA6FED71200D9CFE6FFE1CFD9FF19
:103E20009E96FE0EDB50C96E9EA6FED7E552E7CFEA
:103E3000D9FF12009E96C5869EA6FED7C9501200D5
:103E40009E96C59AC5889EA6FED712009E96C58AE4
:103E5000C5889EA6FED71200D9CFE6FFE1CFD9FFD5
:103E6000D1DFE66AB1DFE5520F01010E706FE85055
:103E700004E0C550400BFAE0F8D7FE0EDBCFE6FFBA
:103E8000CBDFE5520F01010E706FE85004E0C55022
:103E9000400BFAE0F8D7FD0EDBCFE6FF5EDFE55220
:103EA000E66EBADFE5520F01010E706FE85004E0D4
:103EB000C550400BFAE0F8D7AADFE552E7CFD9FFAB
:103EC0001200D9CFE6FFE1CFD9FF9CDFE66A8BDF96
:103ED000E5520F01010E706FE85004E0C550400B31
:103EE000FAE0F8D7FE0EDBCFE6FF96DFE5520F01D2
:103EF000010E706FE85004E0C550400BFAE0F8D7AF
:103F0000FD0EDBCF14F0FE0EDBCF15F00001156ABD
:103F10001450E66E81DFE5520F01010E706FE8501C
:103F200004E0C550400BFAE0F8D7FC0EDBCFE6FF0B
:103F300073DFE5520F01010E706FE85004E0C550C9
:103F4000400BFAE0F8D763DFE552E7CFD9FF120064
:103F5000D9CFE6FFE1CFD9FFE65254DFE66A34DF7E
:103F6000E5520F01010E706FE85004E0C550400BA0
:103F7000FAE0F8D7FE0EDBCFE6FF4EDFE5520F0189
:103F8000010E706FE85004E0C550400BFAE0F8D71E
:103F900039DF010EE66E18DFE5520F01010E706F7A
:103FA000E85004E0C550400BFAE0F8D743DFDF6E7D
:103FB000DFCFE6FFB3DEE552DF6EDF50E552E552BC
:103FC000E7CFD9FF1200D9CFE6FFE1CFD9FFE65204
:103FD00019DFE66A08DFE5520F01010E706FE85045
:103FE00004E0C550400BFAE0F8D7FE0EDBCFE6FF49
:103FF00013DFE5520F01010E706FE85004E0C55069
:10400000400BFAE0F8D7FD0EDBCF14F0FE0EDBCF4D
:1040100015F00001156A1450E66EFEDEE5520F0140
:10402000010E706FE85004E0C550400BFAE0F8D77D
:10403000E9DE010EE66ED7DEE5520F01010E706F6C
:10404000E85004E0C550400BFAE0F8D7F3DEDF6E2D
:0C405000DF50E552E552E7CFD9FF120027
:04405C005B4D414E29
:1040600055414C5D524544005B4D414E55414C5DC0
:1040700059454C4C4F573A20005B4D414E55414CF1
:104080005D475245454E0D0A005B4D414E55414C32
:104090005D5245440D0A00596F75722072656420A7
:1040A00074696D65206973206E6F772000537563A6
:1040B0006365737366756C6C79206368616E6765A0
:1040C0006420677265656E2074696D6520746F2069
:1040D00000596F7520657363617065642066726F47
:1040E0006D2073657420677265656E206D6F646501
:1040F00020776974686F757420736176696E672EB6
:104100000D0A002D2D0055736520627574746F6E55
:104110007320696E20796F757220626F61726420FE
:10412000746F206368616E676520677265656E20D5
:1041300074696D652E2E2E0D0A002831302D393907
:10414000290053455420475245454E2054494D457A
:1041500000207365636F6E64732E0D0A00537563E0
:104160006365737366756C6C79206368616E6765EF
:10417000642079656C6C6F772074696D6520746F4D
:104180002000596F752065736361706564206672E5
:104190006F6D207365742079656C6C6F77206D6F1F
:1041A000646520776974686F757420736176696ED1
:1041B000672E0D0A002D0055736520627574746FAB
:1041C0006E7320696E20796F757220626F61726400
:1041D00020746F206368616E67652079656C6C6F11
:1041E000772074696D652E2E2E0D0A0028312D3929
:1041F00029005345542059454C4C4F572054494DA4
:1042000045005B526F616420315D59454C4C4F57FE
:104210003A20005B526F616420325D5245443A207F
:10422000005B526F616420315D475245454E3A2034
:104230000052454400475245454E005B526F616451
:1042400020325D59454C4C4F573A200059454C4C53
:104250004F57005B526F616420325D475245454EB7
:104260003A20000D0A005B526F616420315D5245B7
:10427000443A2000475245454E20005245442020F4
:10428000200043415554494F4E204D4F44450D0A9F
:10429000002D2D2D2D2D5345542054494D45204D95
:1042A0004F44452D2D2D2D2D0D0A002D2D2D2D2D5D
:1042B0004155544F4D41544943204D4F44452D2DB8
:1042C0002D2D2D0D0A002020202020202020202010
:1042D000202020202020003C0043415554494F4ECF
:1042E000004D414E55414C005345542054494D45D5
:1042F000004155544F002020202020202020202045
:0743000020202020202000F6
:0143070000B5
:08430800F28ED08EF28C12003F
:10431000F19CF292F2881200D8CFE4FFE0CFE4FFE4
:10432000E46EDACFE4FFE2CFDAFFE9CFE4FFEACFD1
:10433000E4FFF6CFE4FFF7CFE4FFF5CFE4FFF3CFE0
:10434000E4FFF4CFE4FFFACFE4FF00EE00F0140E38
:10435000E80403E3EECFE4FFFBD700EE14F00A0E0F
:10436000E80403E3EECFE4FFFBD7E652F2A407D064
:1043700027EC1AF0F29429EC1AF0D3EC1BF09EA073
:1043800007D012EC1BF09E90CCEC1AF0E1EC1BF085
:104390009EA207D02EEC1BF09E922AEC1BF0EFECB5
:1043A0001BF0A1A207D0D1EC1BF0A1928BEC1BF06B
:1043B000FDEC1BF0F2B2F2929EAA03D09E9A40EC62
:1043C00000F0E55200EE1DF00A0EE80403E3E5CF2D
:1043D000EDFFFBD700EE13F0140EE80403E3E5CF86
:1043E000EDFFFBD7E5CFFAFFE5CFF4FFE5CFF3FF15
:1043F000E5CFF5FFE5CFF7FFE5CFF6FFE5CFEAFF25
:10440000E5CFE9FFE5CFDAFFE550E5CFE0FFE5CF07
:10441000D8FF1000DACFE4FFE2CFDAFFE9CFE4FF04
:10442000EACFE4FFF6CFE4FFF7CFE4FFF5CFE4FFF8
:10443000F3CFE4FFF4CFE4FFFACFE4FF00EE00F0A7
:10444000140EE80403E3EECFE4FFFBD700EE14F014
:104450000A0EE80403E3EECFE4FFFBD7E652F2A432
:1044600007D027EC1AF0F29429EC1AF0D3EC1BF0E9
:104470009EA007D012EC1BF09E90CCEC1AF0E1EC61
:104480001BF09EA207D02EEC1BF09E922AEC1BF094
:10449000EFEC1BF0A1A207D0D1EC1BF0A1928BECAA
:1044A0001BF0FDEC1BF0F2B2F2929EAA03D09E9A92
:1044B00040EC00F0E55200EE1DF00A0EE80403E3C4
:1044C000E5CFEDFFFBD700EE13F0140EE80403E395
:1044D000E5CFEDFFFBD7E5CFFAFFE5CFF4FFE5CF62
:1044E000F3FFE5CFF5FFE5CFF7FFE5CFF6FFE5CF2B
:0C44F000EAFFE5CFE9FFE5CFDAFF11009D
:0444FC00D9CFE6FF2F
:10450000E1CFD9FFE652AE50DF6EDFCFE6FFAEEC73
:104510001CF0E5520F014A51050A2AE0010A21E088
:10452000070A11E0010A0AE0020A02E0010A2AE190
:10453000FE0EDF5C28E14D6B020E22D0FE0EDF5C2A
:1045400015E1030E1DD04D51EA6A820FE96E010E8E
:10455000EA22DFCFEFFF4D2B4F514D5D14E3040EE8
:104560000FD0FF0EDF5C02E1050E0AD0010E08D06D
:10457000FF0EDF5C04E1010E4B6F4A6B04D0010EAD
:104580004A6F01D04A6BE552E552E7CFD9FF1200DE
:1045900012000F014B054AE1F60EE66E420EE66E82
:1045A000E66AE66AC8EC15F0E552E552E552E552D6
:1045B0000101816B0F014F510101815D21E28151A8
:1045C000EA6A820FE96E010EEA22EFCF14F0156A53
:1045D000166A176A14C0E6FF15C0E6FF16C0E6FFAC
:1045E00017C0E6FF030E8103F350E66EE66AA1EC06
:1045F00014F0186E060EE15E18500101812BDAD717
:104600004ACF14F0156A166A176A4ACFE6FF15C03A
:10461000E6FF16C0E6FF17C0E6FF0F0EE66EE66A7D
:0E462000A1EC14F0186E060EE15E18501200A8
:02462E00006A20
:104630000EAE20EF23F00D6C0E1EE86A0E22001E57
:1046400009AE28EF23F0086C091EE86A0922001E53
:10465000C3EC24F009BE38EF23F000AE000C086C68
:10466000091EE86A0922046C051EE86A0522000C8E
:1046700000BE2FEF23F00188FF0C006A0EAE48EF5A
:1046800023F00C6C0D1E0E1EE86A0D220E22001E79
:1046900009AE52EF23F0076C081E091EE86A0822D3
:1046A0000922001E8AEC24F009BE65EF23F000AE5B
:1046B000000C076C081E091EE86A08220922036C18
:1046C000041E051E04220522000C00BE59EF23F033
:1046D0000188FF0C09C013F008C012F008500D0249
:1046E000F4CF07F0F3CF06F009500E02F4CF09F033
:1046F000F3CF08F00D02F3500726F4500822E86AC1
:10470000092212500E02F3500726F4500822E86ADC
:1047100009220EAE90EF23F01250085E1350095A92
:0E47200013AE000C0D50085E0E50095A000C2E
:02472E001E0E5D
:10473000F66E000EF76E000EF86E0F010900F550D0
:10474000606F0900F550616F03E1606701D03DD0F3
:104750000900F5505B6F0900F5505C6F0900F550DA
:104760005D6F09000900F550E96E0900F550EA6E29
:10477000090009000900F5505E6F0900F5505F6FF0
:1047800009000900F6CF62FFF7CF63FFF8CF64FF9F
:104790005BCFF6FF5CCFF7FF5DCFF8FF0F015E53F5
:1047A00002E15F5307E00900F550EE6E5E07F8E2A4
:1047B0005F07F9D762CFF6FF63CFF7FF64CFF8FF4B
:0C47C0000F016007000E615BBFD7120004
:0447CC00010E926EDA
:1047D0000E0EC16EC26A040EC06EC2801200D9CF26
:1047E000E6FFE1CFD9FF020EE126DE6ADD6AC28272
:1047F000C2B2FED7C450DE6EDD6ADECF16F0DDCF6A
:1048000017F0D89016361736D89016361736060E8B
:10481000C3CFE7FF070B04E0E742E79EE806FCE1B1
:10482000E7501624146E000E172014C0DEFFDD6E54
:10483000DECFE6F1DDCFE7F1DECF14F0DDCF15F00E
:1048400014C0F3FF15C0F4FF020EE15C02E2E16A5E
:0C485000E552E16EE552E7CFD9FF1200FF
:04485C0006500B02F5
:10486000F3CF02F0F4CF03F00C02F3500326000E56
:10487000F420046E06500D02F3500426000EF420BE
:10488000056E06500E02F350052607500B02F3503A
:104890000326F4500422000E052207500C02F350A8
:1048A0000426F450052207500D02F3500526085047
:1048B0000B02F3500426F450052208500C02F3506A
:0C48C000052609500B02F35005261200DB
:0448CC00056A046A0B
:1048D000036A026A200EE76ED8900636073608365D
:1048E000093602360336043605360B50025C0C508E
:1048F00003580D5004580E50055809E30B50025E42
:104900000C50035A0D50045A0E50055A062AE72E31
:04491000E4D71200D6
:0C491400056A046A036A180EE76ED8906A
:104920000736083609360336043605360C50035C64
:104930000D5004580E50055807E30C50035E0D50FF
:0E494000045A0E50055A072AE72EEAD7120035
:02494E00CA9409
:10495000CA90CA829B0ECB6EBD98BD9ABE6ABD9CA2
:10496000BD9EBD90BD92BD84BD869494CA84120044
:10497000D9CFE6FFE1CFD9FFFE0EDB50BE6EE55288
:06498000E7CFD9FF120091
:0A498600056A046A100EE76ED8906F
:1049900008360936043605360D50045C0E500558AD
:1049A00005E30D50045E0E50055A082AE72EF0D795
:0249B0001200F3
:0E49B200800EF36E00EE00F00F0E01D8120022
:1049C000EA6002D0EE6AFCD7F350E9601200EE6AAA
:0249D000FCD712
:0E49D2001EEE00F02EEE00F0F86A019C97EC4D
:0E49E00023F003EC00F063EC00F0FBD71200B4
:0249EE00056A58
:1049F000080EE76ED890093605360E50055C02E3C6
:0A4A0000056E092AE72EF7D7120011
:064A0A00000000000000A6
:104A10000000000000000000000000000000000096
:0A4A20000000010001000100010088
:064A2A0000000000000086
:0D4A3000000505000000000000000000006F
:034A3D000102046F
:104A40000810204080000000000000000001020368
:104A50004104050642070809432A004544010203B0
:104A6000040207080903030303040806080541427A
:104A700043FF00000100FF0000000000000B000BDE
:104A80000007000700040004000300F142E842E1CF
:104A900042D9420001020304050607080900000D7F
:104AA00000010204050608090A00000000000000D9
:0E4AB0000000000000000000000000000000F8
:024ABE000000F6
:104AC0000000000000001010101010101010181836
:104AD0001818181818181C1C1C1C1C1C1C1C1E1E2A
:104AE0001E1E1E1E1E1E1F1F1F1F1F1F1F1F00001A
:104AF00000000000000000000000000000000000B6
:104B000000000000000000000000000000000000A5
:0F4B100000000000000000000000000000000096
:014B1F000095
:104B20000000D00022222207250910000100000009
:0A4B3000000000000000000000007B
:064B3A0000000000000075
:104B40000000000000000000000000000000000065
:104B50000000000000000000000010204080010262
:024B6000040847
:020000040030CA
:0100010002FC
:0100020003FA
:010003001EDE
:010005008179
:010006008178
:010008000FE8
:01000900C036
:01000A000FE6
:01000B00E014
:01000C000FE4
:01000D0040B2
:00000001FF
