:020000040000FA
:0600000017EF27F01200CB
:020006001200E6
:0600080041EF24F012009C
:01000E0000F1
:01000F0000F0
:03001000000000ED
:06001800C3EF23F012000B
:02001E000800D8
:10002000A14F0000330F000028000000864F0000A1
:10003000E10000001B0000000F000000FB010000B9
:1000400004000000254F0000800000006100000057
:10005000994E0000000100008C0000000E0000001E
:100060007C0F000001000000864E00001A02000014
:1000700013000000664E00005B0F0000200000002F
:10008000D9CFE6FFE1CFD9FFE652AE50DF6E0101D6
:100090005651EA6A1B0FE96E0F0EEA22DFCFEFFF1F
:1000A000585138E15651EA6A1B0FE96E0F0EEA22E9
:1000B000EF50410802E1010E05D25651EA6A1B0FCA
:1000C000E96E0F0EEA22EF504D0802E10B0EFAD155
:1000D0005651EA6A1B0FE96E0F0EEA22EF505308E1
:1000E00002E1150EEFD15651EA6A1B0FE96E0F0EB1
:1000F000EA22EF50430802E11F0EE4D15651EA6AAA
:100100001B0FE96E0F0EEA22EF50510801E0F2D109
:10011000290ED8D158050CE15651EA6A1B0FE96E39
:100120000F0EEA22EF50550801E0E4D1020ECAD1C9
:10013000020E585D0CE15651EA6A1B0FE96E0F0E74
:10014000EA22EF50540801E0D5D1030EBBD1030ED3
:10015000585D1AE15651EA6A1B0FE96E0F0EEA224A
:10016000EF504F0801E0C6D1586B0B0E396F42C1FA
:1001700040F143C141F14AC148F14BC149F146C187
:1001800044F147C145F1B6D10B0E585D0CE1565113
:10019000EA6A1B0FE96E0F0EEA22EF50410801E0F8
:1001A000A9D10C0E8FD10C0E585D11E15651EA6A9F
:1001B0001B0FE96E0F0EEA22EF504E0801E09AD1B4
:1001C000586B1E0E396F030E4C6F4D6B93D1150E8D
:1001D000585D0CE15651EA6A1B0FE96E0F0EEA22D8
:1001E000EF50450801E086D1160E6CD1160E585D11
:1001F0000CE15651EA6A1B0FE96E0F0EEA22EF502E
:10020000540801E077D1170E5DD1170E585D17E144
:100210005651EA6A1B0FE96E0F0EEA22EF50590899
:1002200002E1180E4FD15651EA6A1B0FE96E0F0E0C
:10023000EA22EF50470801E05DD11A0E43D1180EB3
:10024000585D26E15651EA6A1B0FE96E0F0EEA224D
:10025000EF50D00F146E000E145C01E2F5D0565131
:10026000EA6A1B0FE96E0F0EEA22EF50D00F090861
:1002700001E2EAD05651EA6A1B0FE96E0F0EEA223C
:10028000EF50D00F0F012F6F306B0101190E1AD1F3
:10029000190E585D48E15651EA6A1B0FE96E0F0EC0
:1002A000EA22EF50D00F146E000E145C01E2CCD0A5
:1002B0005651EA6A1B0FE96E0F0EEA22EF50D00F7B
:1002C000090801E2C1D05651EA6A1B0FE96E0F0E10
:1002D000EA22EF50D00F0F01316F326B0A0E086E19
:1002E000096A2FCF0DF030CF0EF098EC25F00650B4
:1002F0000F01312501014A6F07500F013221010121
:100300004B6F586B130EE66E470EE66ED3EC1EF085
:10031000E552E5524AC114F04BC115F0166A176A4E
:1003200015AE74D071D01A0E585D26E15651EA6AA6
:100330001B0FE96E0F0EEA22EF50D00F146E000E65
:10034000145C01E281D05651EA6A1B0FE96E0F0E70
:10035000EA22EF50D00F090801E276D05651EA6A3E
:100360001B0FE96E0F0EEA22EF50D00F0F012F6F17
:10037000306B01011B0EA6D01B0E585D6AE1565171
:10038000EA6A1B0FE96E0F0EEA22EF50D00F146ECF
:10039000000E145C59E35651EA6A1B0FE96E0F0E0A
:1003A000EA22EF50D00F09084FE35651EA6A1B0FBB
:1003B000E96E0F0EEA22EF50D00F0F01316F326B52
:1003C0000A0E086E096A2FCF0DF030CF0EF098ECB0
:1003D00025F006500F0131250101466F07500F012E
:1003E00032210101476F586BEF0EE66E460EE66E46
:1003F000D3EC1EF0E552E55246C114F047C115F0AA
:10040000166A176A15AE02D01668176814C0E6FFA0
:1004100015C0E6FF16C0E6FF17C0E6FFF9EC1EF0B8
:10042000E552E552E552E552010EE66E470EE66EE4
:10043000D3EC1EF0E552E552010146514A25426FC8
:1004400047514B21436F56D0586B260EE66E470E30
:100450004CD01F0E585D0BE15651EA6A1B0FE96E36
:100460000F0EEA22EF50410845E1200E2BD0200E5E
:10047000585D0DE15651EA6A1B0FE96E0F0EEA2234
:10048000EF50550837E1586B280E396F33D0290EDD
:10049000585D0BE15651EA6A1B0FE96E0F0EEA2216
:1004A000EF50550827E12A0E0DD02A0E585D0CE1B9
:1004B0005651EA6A1B0FE96E0F0EEA22EF50490807
:1004C00019E12B0E586F16D02B0E585D13E15651C3
:1004D000EA6A1B0FE96E0F0EEA22EF5054080AE198
:1004E0003969586BDF0EE66E460EE66ED3EC1EF0F1
:1004F000E552E55201015629146E140E156E0E6E6A
:1005000014C009F025EC27F005C056F10101572B66
:10051000E552E552E7CFD9FF1200D9CFE6FFE1CF90
:10052000D9FF040EE126DE6ADD6A020EDB6A030EE5
:10053000DB6A0FD9956A0F01665106E0666BA0DD94
:10054000EFEC19F003EC07F06AEC15F0F4D7D9CF13
:10055000E6FFE1CFD9FF020EE126DE6ADD6ADECFDB
:1005600014F0DDCF15F0D890155004E6100E145C91
:10057000000E155830E2DECFE9FFDDCFEAFFD8905C
:10058000E936EA36330EE9260F0EEA22010EEE189E
:100590001DE1ED501BE1DECF14F0DDCF15F0166A42
:1005A000176A15AE02D01668176814C0E6FF15C0AA
:1005B000E6FF16C0E6FF17C0E6FFE66A010EE66E2C
:1005C00098EC16F0186E060EE15E1850DF2A010E48
:1005D000C6E3DB2AC4D7020EE15C02E2E16AE5521F
:1005E000E16EE552E7CFD9FF12004EC1E6FF4FC1E1
:1005F000E6FFE66AE66ABFEC17F0E552E552E5521F
:10060000E55250C1E6FF51C1E6FF070EE66EE66A0D
:10061000BFEC17F0E552E552E552E55252C1E6FF54
:1006200053C1E6FFE66A010EE66EBFEC17F0E55235
:10063000E552E552E55254C1E6FF55C1E6FF070E0B
:10064000E66E010EE66EBFEC17F0E552E552E5529C
:10065000E552040E0101371901E1385124E0030E7F
:10066000371901E1385117E0020E371901E138510D
:100670000CE0010E371901E1385101E01200DD0EE6
:10068000E66E460EE66E060E0BD0DD0EE66E460EEC
:10069000E66E060E0DD0DD0EE66E460EE66E0F0E11
:1006A000E66EE66A08D0DD0EE66E460EE66E0F0ECA
:1006B000E66E010EE66EBFEC17F0E552E552E5522C
:1006C000E5521200D9CFE6FFE1CFD9FF040EE126B3
:1006D000DE6ADD6ADECF14F0DDCF15F0FD0EDBCF74
:1006E00016F0FE0EDBCF17F015501718E8AE02D04B
:1006F000173404D01650145C175015581DE2020E22
:10070000DB6A030EDB6A020EDBCF14F0030EDBCFD5
:1007100015F0D890155004E6EE0E145C000E155836
:1007200006E2020EDB2A030EEEE3DB2AECD7DF2A19
:10073000010ED0E3DB2ACED7040EE15C02E2E16ACF
:10074000E552E16EE552E7CFD9FF1200956A836A60
:10075000120033D852EC1EF0F9DF9AEC11F0EEECF7
:1007600017F0BBEC23F044EC13F03BEC15F0F40E67
:10077000E66E010EE66EA6DFE552E552570EE66E16
:10078000120EE66EC4EC1BF0E552E552660EE66E04
:10079000B70EE66E27EC1DF0E552E552020EE66E4E
:1007A000E66A02EC1EF0E552E552320EE66EE66AAB
:1007B00033EC1EF0E552E5521200926A806A966AA6
:1007C0001200060EE66EE66A71D9E552E552060E93
:1007D000E66EE66A93D9E552E5521200070EE66E20
:1007E000E66A64D9E552E552070EE66EE66A86D9F6
:1007F000E552E5521200D9CFE6FFE1CFD9FF020E54
:10080000E126DE6ADD6ADECF14F0DDCF15F0D89088
:10081000155004E6080E145C000E155822E2FD0E79
:10082000DBCF16F0FE0EDBCF17F0DF5016C014F052
:1008300017C015F005E0D89015321432E804FBE13A
:100840001450010B04E001010051841003D0010198
:10085000001D8414846EB5DFDF2A010ED4E3DB2A89
:10086000D2D7020EE15C02E2E16AE552E16EE552A6
:10087000E7CFD9FF1200D9CFE6FFE1CFD9FFFD0EB8
:10088000DBCFE9FFFE0EDBCFEAFF0A0E0D6E0E6A2C
:10089000E9CF08F0EACF09F0F1EC26F004C0E9FF57
:1008A00005C0EAFF010ED890E936EA36E806FBE11A
:1008B000590EE926010EEA22EECFE6FFEFCFE6FF62
:1008C0009ADFE552E552FD0EDBCFE9FFFE0EDBCFEE
:1008D000EAFF0A0E0D6E0E6AE9CF08F0EACF09F0C2
:1008E000F1EC26F008C0E9FF09C0EAFF010ED8903C
:1008F000E936EA36E806FBE1590EE926010EEA225E
:10090000EECFE6FFEFCFE6FF76DFE552E55266DF9A
:10091000E552E7CFD9FF1200010E806E806A120007
:10092000020E806E806A1200D9CFE6FFE1CFD9FFB8
:10093000020EE126DE6ADD6ADECF14F0DDCF15F0AF
:10094000D890155004E6080E145C000E155822E2EB
:10095000FD0EDBCF16F0FE0EDBCF17F0DF5016C01A
:1009600014F017C015F005E0D89015321432E804E1
:10097000FBE11450010B04E001010151841003D08C
:100980000101011D8414846EC7DFDF2A010ED4E348
:10099000DB2AD2D7020EE15C02E2E16AE552E16EA7
:1009A000E552E7CFD9FF1200D9CFE6FFE1CFD9FF5B
:1009B000FD0EDBCFE9FFFE0EDBCFEAFF0A0E0D6E68
:1009C0000E6AE9CF08F0EACF09F0F1EC26F004C096
:1009D000E9FF05C0EAFF010ED890E936EA36E806DD
:1009E000FBE1590EE926010EEA22EECFE6FFEFCF3A
:1009F000E6FF9ADFE552E552FD0EDBCFE9FFFE0E82
:100A0000DBCFEAFF0A0E0D6E0E6AE9CF08F0EACFDF
:100A100009F0F1EC26F008C0E9FF09C0EAFF010E79
:100A2000D890E936EA36E806FBE1590EE926010ED0
:100A3000EA22EECFE6FFEFCFE6FF76DFE552E552A2
:100A40006FDFE552E7CFD9FF12003EC114F03FC17E
:100A500015F0640E0D6E0E6A3EC108F03FC109F03C
:100A600045EC25F004C014F005C015F004C0E6FF05
:100A700005C0E6FF00DFE552E5523EC114F03FC17C
:100A800015F0640E0D6E0E6A3EC108F03FC109F00C
:100A900045EC25F008C014F009C015F008C0E6FFC9
:100AA00009C0E6FF81DFE552E5521200D9CFE6FF2B
:100AB000E1CFD9FFFE0EDBCF15F0800E15141AE141
:100AC000FD0EDBCF16F0FE0EDBCF17F0173404E27D
:100AD00016500708000E17540DE3FD0EDBCFE9FF9B
:100AE000FE0EDBCFEAFF000EE926010EEA22EF50F0
:100AF0008310836EE552E7CFD9FF1200D9CFE6FF0E
:100B0000E1CFD9FFFE0EDBCF15F0800E15141AE1F0
:100B1000FD0EDBCF16F0FE0EDBCF17F0173404E22C
:100B200016500708000E17540DE3FD0EDBCFE9FF4A
:100B3000FE0EDBCFEAFF000EE926010EEA22EF1CD3
:100B40008314836EE552E7CFD9FF1200D9CFE6FFB9
:100B5000E1CFD9FFFD0EDBCFE9FFFE0EDBCFEAFFD1
:100B6000080EE926010EEA22EF0415E1FD0EDBCFA7
:100B7000E6FFFE0EDBCFE6FFC1DFE552E552FD0EDC
:100B8000DBCFE9FFFE0EDBCFEAFF080EE926010E00
:100B9000EA22EF6A15D0FD0EDBCFE6FFFE0EDBCFBB
:100BA000E6FF84DFE552E552FD0EDBCFE9FFFE0EE6
:100BB000DBCFEAFF080EE926010EEA22010EEF6EF6
:100BC000E552E7CFD9FF1200D9CFE6FFE1CFD9FF39
:100BD000020EE126DE6ADD6ADECF14F0DDCF15F00D
:100BE000D890155004E60E0E145C000E155821E244
:100BF000DECFE6FFDDCFE6FF59DFE552E552F40E2A
:100C0000E66E010EE66E5EDDE552E552DECFE6FFF2
:100C1000DDCFE6FF73DFE552E552F40EE66E010E1E
:100C2000E66E50DDE552E552DF2A010ED5E3DB2A00
:100C3000D3D7020EE15C02E2E16AE552E16EE552D1
:100C4000E7CFD9FF12000F01010E3B1903E13C5120
:100C500001E1010C000C0F01010E3D1903E13E51B1
:100C600001E1010C000C0F01010E3F1903E140519D
:100C700001E1010C000CD9CFE6FFE1CFD9FFFD0E59
:100C8000DBCF08F0FE0EDBCF09F0030E081801E100
:100C9000095011E0020E081801E1095018E0010E98
:100CA000081822E1095020E1CC0EE66E460EE66EF1
:100CB000E66AE66A13D0CC0EE66E460EE66EE66A8B
:100CC000E66ABFEC17F0E552E552E552E552CC0E6C
:100CD000E66E460EE66EE66A010EE66EBFEC17F0B3
:100CE000E552E552E552E552E552E7CFD9FF120051
:100CF000D9CFE6FFE1CFD9FF020EE126DE6ADD6A39
:100D0000DECF14F0DDCF15F0D890155004E60A0EB2
:100D1000145C000E15581DE2DECFE9FFDDCFEAFFBF
:100D20006D0EE926010EEA22EF34EA6AFE0BEA367E
:100D3000E96E330EE9260F0EEA22010EEE1804E1E9
:100D4000ED5002E1010E06D0DF2A010ED9E3DB2AC5
:100D5000D7D7000E146E020EE15C02E2E16AE552A2
:100D6000E16E1450E552E7CFD9FF1200D9CFE6FF6C
:100D7000E1CFD9FF020EE126DE6ADD6ADECF14F094
:100D8000DDCF15F0D890155004E60A0E145C000E65
:100D9000155829E2DECFE9FFDDCFEAFF6D0EE92627
:100DA000010EEA22EF34EA6AFE0BEA36E96E330EF0
:100DB000E9260F0EEA22010EEE1810E1ED500EE1C9
:100DC000FE0EEA6ADB34FE0BEA36E96E3A0EE926DD
:100DD000010EEA22DECFEEFFDDCFEDFFDF2A010EAE
:100DE000CDE3DB2ACBD7020EE15C02E2E16AE552F9
:100DF000E16EE552E7CFD9FF120001013A6B3B6B80
:100E00003C6B3D6B12000101802B000E81237B6B3C
:100E10007C2B7D23796B882B8923110E7C1906E1AD
:100E20007D5104E17C6B7D6B010E796FAA0E8019F8
:100E300006E1815104E1806B816B010E7B6F05DE61
:100E400001013951280A02E141EF10F0090A02E1DB
:100E50007BEF0FF0010A02E1CBEF0EF03F0A02E157
:100E60005FEF0EF0010A02E1EBEF0DF00B0A02E179
:100E700071EF0CF0010A02E1ADEF0BF0190A01E18C
:100E800067D3030A01E163D2020A01E162D1070AD2
:100E900057E0F40A01E012003BEC15F0010E0101ED
:100EA0004225406F000E4321416F010E4625446FDD
:100EB000000E4721456FF5EC02F0C5DE00090EE09B
:100EC0000101372B000E3823383508E2375104086A
:100ED000000E385503E2010E376F386BBCDE000997
:100EE00002E1C9EF10F0040E0101371901E1385198
:100EF00023E0030E371901E138510FE0020E3719D4
:100F000001E1385108E0010E371901E1385101E0E3
:100F100012000B0E12D01E0E10D06FDF0101140E46
:100F2000396FB20EE66E460EE66ED3EC1EF0E55259
:100F3000E55201019FEF0CF0280E396F9FEF0CF086
:100F4000865187110CE1970EE66E460EE66ED3ECE5
:100F50001EF0E552E552010E0101866F876B000E0F
:100F6000E66EE66AA3DDE552E552010EE66EE66A3C
:100F7000C5DDE552E552020EE66EE66ABFDDE552DA
:100F8000E552030EE66EE66AB9DDE552E552040E5F
:100F9000E66EE66AB3DDE552E552050EE66EE66AF8
:100FA00085DDE552E5523BEC15F0900EE66E460EFF
:100FB000E66EE66AE66ABFEC17F0E552E552E552E6
:100FC000E552890EE66E460EE66EE66A010EE66EA4
:100FD000BFEC17F0E552E552E552E5520101453507
:100FE00001E3A6D044510008000E455501E3A0D00E
:100FF00040C114F041C115F0166A176A15AE02D04F
:101000001668176814C0E6FF15C0E6FF16C0E6FFB5
:1010100017C0E6FF0E0EE66EE66A98EC16F0186E44
:10102000060EE15E185044C114F045C115F0166A71
:10103000176A15AE02D01668176814C0E6FF15C00F
:10104000E6FF16C0E6FF17C0E6FF0E0EE66E010EC5
:10105000E66E98EC16F0186E060EE15E1850640EFF
:10106000086E096A40C10DF041C10EF098EC25F000
:101070000650010144253E6F075045213F6F7951CD
:1010800061E07B0EE66E460EE66ED3EC1EF0E55296
:10109000E55240C114F041C115F0166A176A15AE49
:1010A00002D01668176814C0E6FF15C0E6FF16C028
:1010B000E6FF17C0E6FFF9EC1EF0E552E552E552F7
:1010C000E552780EE66E460EE66ED3EC1EF0E55263
:1010D000E552680EE66E460EE66ED3EC1EF0E55263
:1010E000E55244C114F045C115F0166A176A15AEF1
:1010F00002D01668176814C0E6FF15C0E6FF16C0D8
:10110000E6FF17C0E6FFF9EC1EF0E552E552E552A6
:10111000E552780EE66E460EE66ED3EC1EF0E55212
:10112000E55201014007000E415B4407455B0AD0D0
:10113000826B836B0C0E396F010E4625446F000ED7
:101140004721456F90DD000902E1C9EF10F0C6EFBD
:1011500010F0000EE66EE66AA9DCE552E552010EDB
:10116000E66EE66ACBDCE552E552020EE66EE66A12
:10117000C5DCE552E552030EE66EE66ABFDCE552D9
:10118000E552040EE66EE66A91DCE552E552050E84
:10119000E66EE66AB3DCE552E5523BEC15F0900EE4
:1011A000E66E460EE66EE66AE66ABFEC17F0E552BA
:1011B000E552E552E552610EE66E460EE66EE66ACF
:1011C000010EE66EBFEC17F0E552E552E552E5522E
:1011D0000101413501E3A6D040510008000E415500
:1011E00001E3A0D040C114F041C115F0166A176A9E
:1011F00015AE02D01668176814C0E6FF15C0E6FFEA
:1012000016C0E6FF17C0E6FF0E0EE66EE66A98EC23
:1012100016F0186E060EE15E185048C114F049C170
:1012200015F0166A176A15AE02D01668176814C052
:10123000E6FF15C0E6FF16C0E6FF17C0E6FF0E0E7C
:10124000E66E010EE66E98EC16F0186E060EE15E84
:101250001850640E086E096A40C10DF041C10EF0CD
:1012600098EC25F00650010148253E6F07504921B2
:101270003F6F795165E07B0EE66E460EE66ED3EC6D
:101280001EF0E552E55240C114F041C115F0166A56
:10129000176A15AE02D01668176814C0E6FF15C0AD
:1012A000E6FF16C0E6FF17C0E6FFF9EC1EF0E552B8
:1012B000E552E552E552780EE66E460EE66ED3EC48
:1012C0001EF0E552E552500EE66E460EE66ED3EC89
:1012D0001EF0E552E55248C114F049C115F0166AF6
:1012E000176A15AE02D01668176814C0E6FF15C05D
:1012F000E6FF16C0E6FF17C0E6FFF9EC1EF0E55268
:10130000E552E552E552780EE66E460EE66ED3ECF7
:101310001EF0E552E55201014007000E415B48070F
:10132000495B0ED0826B836B0E0E396F010E422526
:10133000406F000E4321416F4AC148F14BC149F152
:1013400092DC000902E1C9EF10F0C6EF10F0000EC8
:10135000E66EE66A7EEC05F0E552E552010EE66EB9
:10136000E66A7EEC05F0E552E552020EE66EE66AAC
:1013700056EC05F0E552E552030EE66EE66A56ECD1
:1013800005F0E552E552040EE66EE66A7EEC05F0E5
:10139000E552E552050EE66EE66A7EEC05F0E55292
:1013A000E5523BEC15F04A0EE66E460EE66EE66A36
:1013B000E66ABFEC17F0E552E552E552E552460EFB
:1013C000E66E460EE66EE66A010EE66EBFEC17F0BC
:1013D000E552E552E552E5520101453501E3A6D05B
:1013E00044510008000E455501E3A0D044C114F05B
:1013F00045C115F0166A176A15AE02D0166817684F
:1014000014C0E6FF15C0E6FF16C0E6FF17C0E6FFF2
:101410000E0EE66EE66A98EC16F0186E060EE15EA9
:10142000185040C114F041C115F0166A176A15AE84
:1014300002D01668176814C0E6FF15C0E6FF16C094
:10144000E6FF17C0E6FF0E0EE66E010EE66E98ECA4
:1014500016F0186E060EE15E1850640E086E096AEA
:1014600044C10DF045C10EF098EC25F00650010185
:1014700040253E6F075041213F6F795161E0360EA4
:10148000E66E460EE66ED3EC1EF0E552E55244C120
:1014900014F045C115F0166A176A15AE02D0166829
:1014A000176814C0E6FF15C0E6FF16C0E6FF17C0B8
:1014B000E6FFF9EC1EF0E552E552E552E552780EF2
:1014C000E66E460EE66ED3EC1EF0E552E552280EAF
:1014D000E66E460EE66ED3EC1EF0E552E55240C1D4
:1014E00014F041C115F0166A176A15AE02D01668DD
:1014F000176814C0E6FF15C0E6FF16C0E6FF17C068
:10150000E6FFF9EC1EF0E552E552E552E552780EA1
:10151000E66E460EE66ED3EC1EF0E552E552010192
:101520004407000E455B4007415B0AD0826B836B2A
:101530000D0E396F010E4625446F000E4721456F91
:1015400033EC06F0000902E1C9EF10F0C6EF10F02D
:10155000000EE66EE66A7EEC05F0E552E552010EFD
:10156000E66EE66A56EC05F0E552E552020EE66ECE
:10157000E66A7EEC05F0E552E552030EE66EE66A99
:1015800056EC05F0E552E552040EE66EE66A7EEC96
:1015900005F0E552E552050EE66EE66A7EEC05F0D2
:1015A000E552E5523BEC15F0610EE66E460EE66E36
:1015B000E66AE66ABFEC17F0E552E552E552E552FD
:1015C000460EE66E460EE66EE66A010EE66EBFEC6D
:1015D00017F0E552E552E552E5520101413501E3CC
:1015E000A6D040510008000E415501E3A0D048C1EB
:1015F00014F049C115F0166A176A15AE02D01668C4
:10160000176814C0E6FF15C0E6FF16C0E6FF17C056
:10161000E6FF0E0EE66EE66A98EC16F0186E060E01
:10162000E15E185040C114F041C115F0166A176A06
:1016300015AE02D01668176814C0E6FF15C0E6FFA5
:1016400016C0E6FF17C0E6FF0E0EE66E010EE66E50
:1016500098EC16F0186E060EE15E1850640E086ED7
:10166000096A48C10DF049C10EF098EC25F006500A
:10167000010140253E6F075041213F6F795165E0E0
:10168000170EE66E460EE66ED3EC1EF0E552E552FE
:1016900048C114F049C115F0166A176A15AE02D098
:1016A0001668176814C0E6FF15C0E6FF16C0E6FF0F
:1016B00017C0E6FFF9EC1EF0E552E552E552E5529F
:1016C000780EE66E460EE66ED3EC1EF0E552E5525D
:1016D000280EE66E460EE66ED3EC1EF0E552E5529D
:1016E00040C114F041C115F0166A176A15AE02D058
:1016F0001668176814C0E6FF15C0E6FF16C0E6FFBF
:1017000017C0E6FFF9EC1EF0E552E552E552E5524E
:10171000780EE66E460EE66ED3EC1EF0E552E5520C
:1017200001014807000E495B4007415B0ED0826B08
:10173000836B0B0E396F010E4225406F000E432163
:10174000416F4AC148F14BC149F133EC06F0000941
:1017500002E1C9EF10F0C6EF10F03BEC15F0070EF8
:10176000E66E460EE66EE66AE66ABFEC17F0E552F4
:10177000E552E552E552010EE66E460EE66EE66A69
:10178000010EE66EBFEC17F0E552E552E552E55268
:101790000101865187110CE1CC0EE66E450EE66E16
:1017A000D3EC1EF0E552E552010E0101866F876B06
:1017B0007B5101E0C3D0775178110FE1CA0EE66E7C
:1017C000450EE66E0F0EE66E010EE66EBFEC17F0EC
:1017D000E552E552E552E5521CD03CC114F03DC142
:1017E00015F0166A176A15AE02D01668176814C08D
:1017F000E6FF15C0E6FF16C0E6FF17C0E6FF0F0EB6
:10180000E66E010EE66E98EC16F0186E060EE15EBE
:1018100018506AEC15F023EC06F0010813E1010101
:101820003C2B000E3D233D3508E23C510908000EDB
:101830003D5503E2010E3C6F3D6B010E776F786BF7
:10184000806B816B33EC06F0010809E1FDEC06F0DA
:101850000101150E396F970EE66E450E27D12BEC60
:1018600006F0010802E0C9EF10F03CC14AF13DC1A9
:101870004BF101014A514625426F4B514721436FBD
:10188000150E396FFDEC06F00101776B786B720E67
:10189000E66E450EE66ED3EC1EF0E552E5524AC107
:1018A00014F04BC115F0166A176A15AE02D016680F
:1018B000176814C0E6FF15C0E6FF16C0E6FF17C0A4
:1018C000E6FFF9EC1EF0E552E552E552E552660EF0
:1018D000E66E450EE66ED3EC1EF0E552E5520101D0
:1018E00077D13BEC15F0570EE66E450EE66EE66AD4
:1018F000E66ABFEC17F0E552E552E552E5524F0EAD
:10190000E66E450EE66EE66A010EE66EBFEC17F077
:10191000E552E552E552E5520101865187110CE18D
:101920001B0EE66E450EE66ED3EC1EF0E552E55258
:10193000010E0101866F876B7B5104E03969866B6C
:10194000876B12007751781106E1180EE66E450E8E
:10195000E66E0E0E26D0010E77192DE178512BE19F
:101960003AC114F03BC115F0166A176A15AE02D0E1
:101970001668176814C0E6FF15C0E6FF16C0E6FF3C
:1019800017C0E6FF0E0EE66E010EE66E98EC16F03E
:10199000186E060EE15E1850CA0EE66E450EE66E33
:1019A0000F0EE66E010EE66EBFEC17F0E552E55243
:1019B000E552E5523DD0020E77193CE178513AE10B
:1019C0003AC114F03BC115F0166A176A15AE02D081
:1019D0001668176814C0E6FF15C0E6FF16C0E6FFDC
:1019E00017C0E6FF0E0EE66E010EE66E98EC16F0DE
:1019F000186E060EE15E18503CC114F03DC115F0A2
:101A0000166A176A15AE02D01668176814C0E6FF8A
:101A100015C0E6FF16C0E6FF17C0E6FF0F0EE66E24
:101A2000010EE66E98EC16F0186E060EE15E185088
:101A30006AEC15F023EC06F001082DE10101775165
:101A4000781103E1010E776F786B010E771910E1C1
:101A500078510EE13A2B000E3B233B351AE23A5106
:101A60000908000E3B5515E2010E3A6F3B6B11D091
:101A7000020E77190EE178510CE13C2B000E3D234C
:101A80003D3507E23C510908000E3D5502E23C6B32
:101A90003D6B806B816B33EC06F001080DE1FDECD2
:101AA00006F001013969E60EE66E440EE66ED3ECEF
:101AB0001EF0E552E55212002BEC06F0000901E1A0
:101AC00068D30101010E771906E1785104E1020E95
:101AD000776F786B7DD0020E771901E079D078515D
:101AE00001E076D00B0E396F0A0E086E096A3AC112
:101AF0000DF03BC10EF098EC25F0065001013C259D
:101B0000466F07503D21476F46514A25426F475166
:101B10004B21436F42C140F1416F46C144F147C17F
:101B200045F14AC148F14BC149F1C20EE66E440E7F
:101B3000E66ED3EC1EF0E552E55246C114F047C103
:101B400015F0166A176A15AE02D01668176814C029
:101B5000E6FF15C0E6FF16C0E6FF17C0E6FFF9EC8A
:101B60001EF0E552E552E552E552660EE66E450E70
:101B7000E66ED3EC1EF0E552E552AC0EE66E440E76
:101B8000E66ED3EC1EF0E552E55242C114F043C1BB
:101B900015F0166A176A15AE02D01668176814C0D9
:101BA000E6FF15C0E6FF16C0E6FF17C0E6FFF9EC3A
:101BB0001EF0E552E552E552E552660EE66E450E20
:101BC000E66ED3EC1EF0E552E5520101866B876BA1
:101BD000806B816B12003BEC15F0460EE66E460EF4
:101BE000E66EE66AE66ABFEC17F0E552E552E552AA
:101BF000E5524A0EE66E460EE66EE66A010EE66EA7
:101C0000BFEC17F0E552E552E552E552000EE66EE4
:101C1000E66A56EC05F0E552E552010EE66EE66A1C
:101C20007EEC05F0E552E552020EE66EE66A7EECC9
:101C300005F0E552E552030EE66EE66A7EEC05F02D
:101C4000E552E552040EE66EE66A7EEC05F0E552DA
:101C5000E552050EE66EE66A56EC05F0E552E552F1
:101C60000101865187111CE1940EE66E440EE66E6A
:101C7000D3EC1EF0E552E552860EE66E440EE66E9B
:101C8000D3EC1EF0E552E552760EE66E440EE66E9B
:101C9000D3EC1EF0E552E552010E0101866F876B11
:101CA00023EC06F0010805E10101200E396F866B77
:101CB000876B33EC06F0000901E16BD267D23BEC95
:101CC00015F04A0EE66E460EE66EE66AE66ABFEC70
:101CD00017F0E552E552E552E552460EE66E460E25
:101CE000E66EE66A010EE66EBFEC17F0E552E552CD
:101CF000E552E552000EE66EE66A7EEC05F0E5522E
:101D0000E552010EE66EE66A7EEC05F0E552E5521C
:101D1000020EE66EE66A56EC05F0E552E552030E59
:101D2000E66EE66A56EC05F0E552E552040EE66E04
:101D3000E66A7EEC05F0E552E552050EE66EE66ACF
:101D40007EEC05F0E552E55201018651871114E160
:101D5000760EE66E440EE66ED3EC1EF0E552E552CA
:101D6000860EE66E440EE66ED3EC1EF0E552E552AA
:101D7000010E0101866F876B23EC06F0010805E177
:101D80000101210E396F866B876B33EC06F0000979
:101D900001E1FFD1FBD13BEC15F0460EE66E460E9D
:101DA000E66EE66AE66ABFEC17F0E552E552E552E8
:101DB000E552610EE66E460EE66EE66A010EE66ECE
:101DC000BFEC17F0E552E552E552E552000EE66E23
:101DD000E66A56EC05F0E552E552010EE66EE66A5B
:101DE0007EEC05F0E552E552020EE66EE66A7EEC08
:101DF00005F0E552E552030EE66EE66A7EEC05F06C
:101E0000E552E552040EE66EE66A56EC05F0E55240
:101E1000E552050EE66EE66A7EEC05F0E552E55207
:101E200001014D355DE24C510008000E4D5558E260
:101E30004CC114F04DC115F0166A176A15AE02D0E8
:101E40001668176814C0E6FF15C0E6FF16C0E6FF67
:101E500017C0E6FF0E0EE66E010EE66E98EC16F069
:101E6000186E060EE15E18504CC13EF14DC13FF1B7
:101E7000010179513AE0860EE66E440EE66ED3EC2F
:101E80001EF0E552E552650EE66E440EE66ED3ECAA
:101E90001EF0E552E5524CC114F04DC115F0166A22
:101EA000176A15AE02D01668176814C0E6FF15C091
:101EB000E6FF16C0E6FF17C0E6FFF9EC1EF0E5529C
:101EC000E552E552E552780EE66E460EE66ED3EC2C
:101ED0001EF0E552E55201014C07000E4D5B05D0A6
:101EE0001F0E396F030E4C6F4D6B33EC06F000097B
:101EF00001E14FD14BD13BEC15F0610EE66E460E81
:101F0000E66EE66AE66ABFEC17F0E552E552E55286
:101F1000E552460EE66E460EE66EE66A010EE66E87
:101F2000BFEC17F0E552E552E552E552000EE66EC1
:101F3000E66A7EEC05F0E552E552010EE66EE66AD1
:101F400056EC05F0E552E552020EE66EE66A7EECCE
:101F500005F0E552E552030EE66EE66A56EC05F032
:101F6000E552E552040EE66EE66A7EEC05F0E552B7
:101F7000E552050EE66EE66A7EEC05F0E552E552A6
:101F800001014D356DE24C510008000E4D5568E2DF
:101F90004CC114F04DC115F0166A176A15AE02D087
:101FA0001668176814C0E6FF15C0E6FF16C0E6FF06
:101FB00017C0E6FF0E0EE66EE66A98EC16F0186E95
:101FC000060EE15E1850640E086E096A4CC10DF0F1
:101FD0004DC10EF098EC25F006C03EF107C03FF170
:101FE0000101795142E0650EE66E440EE66ED3ECD7
:101FF0001EF0E552E5524CC114F04DC115F0166AC1
:10200000176A15AE02D01668176814C0E6FF15C02F
:10201000E6FF16C0E6FF17C0E6FFF9EC1EF0E5523A
:10202000E552E552E552780EE66E460EE66ED3ECCA
:102030001EF0E552E552590EE66E440EE66ED3EC04
:102040001EF0E552E552780EE66E460EE66ED3ECD3
:102050001EF0E552E55201014C07000E4D5B05D024
:102060001E0E396F030E4C6F4D6B33EC06F00009FA
:1020700002E00101396933EC06F0010801E089D082
:1020800085D0865187110CE14A0EE66E440EE66E4D
:10209000D3EC1EF0E552E552010E0101866F876B0D
:1020A0003BEC15F0610EE66E460EE66EE66A010E3A
:1020B000E66EBFEC17F0E552E552E552E552610ECF
:1020C000E66E460EE66EE66AE66ABFEC17F0E5528B
:1020D000E552E552E5520101800E7D1529E17D357D
:1020E00004E27C510708000E7D5522E3000EE66EE7
:1020F000E66A7EEC05F0E552E552010EE66EE66A10
:102100007EEC05F0E552E552020EE66EE66A7EECE4
:1021100005F0E552E552030EE66EE66A7EEC05F048
:10212000E552E552040EE66EE66A7EEC05F021D03B
:10213000000EE66EE66A7EEC05F0E552E552010E11
:10214000E66EE66A56EC05F0E552E552020EE66EE2
:10215000E66A7EEC05F0E552E552030EE66EE66AAD
:102160007EEC05F0E552E552040EE66EE66A56ECAA
:1021700005F0E552E552050EE66EE66A7EEC05F0E6
:10218000E552E55233EC06F0010803E1010139693B
:042190001200120027
:0C219400D9CFE6FFE1CFD9FF040EE12611
:1021A000DE6ADD6ADECF14F0DDCF15F0166A176A3D
:1021B00015AE02D016681768D950FB0FE96EFF0EF6
:1021C000DA20EA6EEE50145CEE501558EE501658B8
:1021D000EE5017581DE2020EDB6A030EDB6A020E98
:1021E000DBCF14F0030EDBCF15F0D890155004E6CA
:1021F000050E145C000E155806E2020EDB2A030ED3
:10220000EEE3DB2AECD7DF2A010ECCE3DB2ACAD7C8
:10221000040EE15C02E2E16AE552E16EE552E7CFCD
:10222000D9FF1200D9CFE6FFE1CFD9FF040EE12696
:10223000DE6ADD6ADECF14F0DDCF15F0166A176AAC
:1022400015AE02D016681768D950FB0FE96EFF0E65
:10225000DA20EA6EEE50145CEE501558EE50165827
:10226000EE5017581DE2020EDB6A030EDB6A020E07
:10227000DBCF14F0030EDBCF15F0D890155004E639
:10228000EE0E145C000E155806E2020EDB2A030E59
:10229000EEE3DB2AECD7DF2A010ECCE3DB2ACAD738
:1022A000040EE15C02E2E16AE552E16EE552E7CF3D
:1022B000D9FF1200D9CFE6FFE1CFD9FF0F0E81166B
:1022C000FE0EDB50F00B81128186010EE66EE66A8F
:1022D000E66AE66AA7DFE552E552E552E5528196E5
:1022E000010EE66EE66AE66AE66A9CDFE552E552B2
:1022F000E552E5520F0E8116FE0EDB38F00B81120F
:102300008186010EE66EE66AE66AE66A8BDFE552D2
:10231000E552E552E5528196010EE66EE66AE66AFE
:10232000E66A80DFE552E552E552E552E552E7CF35
:10233000D9FF1200D9CFE6FFE1CFD9FFE652936A69
:10234000190EE66EE66AE66AE66A6CDFE552E55269
:10235000E552E5520F0E8116F80E81160F0E81160A
:10236000300E81128186010EE66EE66AE66AE66A42
:1023700059DFE552E552E552E5528196010EE66ECF
:10238000E66AE66AE66A4EDFE552E552E552E55254
:102390000F0E8116300E81128186010EE66EE66AFE
:1023A000E66AE66A3FDFE552E552E552E55281967C
:1023B000010EE66EE66AE66AE66A34DFE552E55249
:1023C000E552E5520F0E8116300E81128186010E04
:1023D000E66EE66AE66AE66A25DFE552E552E55210
:1023E000E5528196010EE66EE66AE66AE66A1ADF53
:1023F000E552E552E552E5520F0E8116818A81863B
:10240000010EE66EE66AE66AE66A0CDFE552E55220
:10241000E552E5528196010EE66EE66AE66AE66AE4
:1024200001DFE552E552E552E552280EE66E42DF45
:10243000E5520C0EE66E3EDFE552E552E552E7CF7F
:10244000D9FF1200D9CFE6FFE1CFD9FF020EE12676
:10245000DF6A010EDB6A81940F0EE66EE66AE66AB9
:10246000E66A98DEE552E552E552E5520F0E81121A
:102470008186E66EE66AE66AE66A8CDEE552E55239
:10248000E552E5520F0E8114E76E010EE7CFDBFF38
:1024900081960F0EE66EE66AE66AE66A7BDEE55234
:1024A000E552E552E5520F0E81128186E66EE66A2C
:1024B000E66AE66A6FDEE552E552E552E5520F0E36
:1024C0008114DF6E010EDB50DF128196010EE66E85
:1024D000E66AE66AE66A5EDEE552E552E552E552F4
:1024E000DF50146E020EE15C02E2E16AE552E16E39
:1024F0001450E552E7CFD9FF1200D9CFE6FFE1CF64
:10250000D9FFE652DF6A9EDFDF6EDFBEFCD7DF5009
:10251000E552E552E7CFD9FF1200D9CFE6FFE1CF70
:10252000D9FF0F0E8116FE0EDB5081128186050E3B
:10253000E66EE66AE66AE66A2DDEE552E552E552A7
:10254000E5528196050EE66EE66AE66AE66A22DEE6
:10255000E552E552E552E552E552E7CFD9FF1200C8
:10256000D9CFE6FFE1CFD9FF8194050EE66EE66A8A
:10257000E66AE66A0FDEE552E552E552E552FE0EE6
:10258000DBCFE6FFCADFE552FE0EDB38F00BE66E6E
:10259000C4DFE552E552E7CFD9FF1200D9CFE6FFFD
:1025A000E1CFD9FF8184050EE66EE66AE66AE66A47
:1025B000F1DDE552E552E552E552FE0EDBCFE6FFD6
:1025C000ACDFE552FE0EDB38F00BE66EA6DFE5521F
:1025D0008194E552E7CFD9FF1200D9CFE6FFE1CFD2
:1025E000D9FFFE0EDBCFE6FFD9DFE552E552E7CF9C
:1025F000D9FF1200D9CFE6FFE1CFD9FFFE0EDBCF26
:10260000E6FFCCDFE552E552E7CFD9FF1200D9CF84
:10261000E6FFE1CFD9FFFD0EDBCFF6FFFE0EDBCFED
:10262000F7FF0800F5500FE0FD0EDBCFF6FFDB2AC9
:10263000FE0EDBCFF7FF01E3DB2A0800F550E66E64
:10264000D9DFE552E8D7E552E7CFD9FF1200D9CF5D
:10265000E6FFE1CFD9FFE652FD0EDB500F0B146E03
:10266000FE0EDB50010B400DF3501424DF6E7F0E85
:10267000DF14800FDF6EDFCFE6FF72DFE552E55239
:10268000E552E7CFD9FF1200010EE66E69DFE55291
:10269000E66AE66ADCDFE552E5521200D9CFE6FFD2
:1026A000E1CFD9FF050EE126010EF36EDB6E020EBF
:1026B000DB6A030EDB6A040EDB6ADF6ADFCF14F02D
:1026C000156A14BE1568FB0EDBCF16F0FC0EDBCFCF
:1026D00017F015501718E8AE02D0173404D0165072
:1026E000145C175015582DE2FD0EDBCF14F0FE0ED2
:1026F000DBCF15F0166A176A15AE02D01668176898
:10270000D950010FE96EDACFEAFF14C00BF015C003
:102710000CF016C00DF017C00EF0EECF06F0EECFA5
:1027200007F0EECF08F0EFCF09F05CEC26F005C023
:10273000EDFF04C0EDFF03C0EDFF02C0EFFFDF2A95
:10274000BDD7010EDBCF14F0020EDBCF15F0030E68
:10275000DBCF16F0040EDBCF17F014C006F015C067
:1027600007F016C008F017C009F0050EE15C02E2A0
:10277000E16AE552E16EE552E7CFD9FF1200D9CF09
:10278000E6FFE1CFD9FF020EE126DF6AFB0EDBCFC9
:1027900014F0FC0EDBCF15F0FD0EDBCF16F0FE0EB5
:1027A000DBCF17F0145015101610171005E1300E7E
:1027B000E66E20DFE552F4D0D950FB0FE96EFF0E34
:1027C000DA20EA6ED890030EEB50000A08E6000EFD
:1027D000EE5C000EEE58000EEE58000EEE5815E2BC
:1027E0002D0EE66E07DFE552D950FB0FE96EFF0EA6
:1027F000DA20EA6E000EEE6CEF1EEE22EF1EEE22E5
:10280000EF1EEF22ED52ED52ED52DE52070EDD6E5D
:10281000010EDBCF14F0000EE76E1418E8AE02D004
:10282000143403D0E750D880145401E3B9D0010E1A
:10283000DB04186E196A18BE196818C0E6FF19C0C3
:10284000E6FF0A0EE66EE66A29DFE552E552E5523A
:10285000E55206C014F007C015F008C016F009C014
:1028600017F006C00BF007C00CF008C00DF009C04F
:102870000EF0FB0EDBCF06F0FC0EDBCF07F0FD0EFB
:10288000DBCF08F0FE0EDBCF09F094EC26F006500B
:1028900007100810091041E0010EDF6EDB041C6E0A
:1028A0001D6A1CBE1D681CC0E6FF1DC0E6FF0A0EA7
:1028B000E66EE66AF3DEE552E552E552E55206C001
:1028C00018F007C019F008C01AF009C01BF006C0C4
:1028D0000BF007C00CF008C00DF009C00EF0FB0EA5
:1028E000DBCF06F0FC0EDBCF07F0FD0EDBCF08F0F0
:1028F000FE0EDBCF09F094EC26F006C014F007C002
:1029000015F008C016F009C017F0300E1426000E9E
:10291000152216221722145003D0DF5004E0300E87
:10292000E66E68DEE552010EDB04186E196A18BE09
:10293000196818C0E6FF19C0E6FF0A0EE66EE66ADF
:10294000ADDEE552E552E552E55206C014F007C08F
:1029500015F008C016F009C017F0D950FB0FE96E4A
:10296000FF0EDA20EA6E06C00BF007C00CF008C0BC
:102970000DF009C00EF0EECF06F0EECF07F0EECF6F
:1029800008F0EFCF09F094EC26F005C0EDFF04C08D
:10299000EDFF03C0EDFF02C0EFFF010EDB0638D7ED
:1029A000020EE15C02E2E16AE552E16EE552E7CF38
:1029B000D9FF1200D9CFE6FFE1CFD9FFFD0EDBCF63
:1029C000E6FFFE0EDBCFE6FF42DEE552E552D950D0
:1029D000F90FE96EFF0EDA20EA6EEECFE6FFEECFDA
:1029E000E6FFEECFE6FFEFCFE6FFC9DEE552E552A8
:1029F000E552E552E552E7CFD9FF1200D9CFE6FF05
:102A0000E1CFD9FFFD0EDBCFE6FFFE0EDBCFE6FF09
:102A10001EDEE552E552FB0EDBCFE6FFFC0EDBCF00
:102A2000E6FFF5DDE552E552E552E7CFD9FF1200AA
:102A3000D9CFE6FFE1CFD9FFFCC014F0FDC015F0FF
:102A4000040ED89014361536E806FBE1C10E1426A4
:102A5000000E152214500001FE25E96E1550FF21CD
:102A6000EA6EFE0EDBCFEFFFFE2B000EFF23E552DA
:102A7000E7CFD9FF1200D9CFE6FFE1CFD9FFE65269
:102A8000DF6ADFCF14F0100EE76E1418E8AE02D044
:102A9000E73402D0E750145C18E2DFCFE9FFEA6ABE
:102AA000E9BEEA68C10EE926000EEA22200EEF6EAA
:102AB000DFCFE9FFEA6AE9BEEA68D10EE926000E37
:102AC000EA22200EEF6EDF2ADCD7E552E552E7CF8F
:102AD000D9FF1200D9CFE6FFE1CFD9FFE6520001BE
:102AE000C051030A52E0010A36E0030A1AE0010A63
:102AF00067E1E66AE66AABDDE552E552DF6A080E99
:102B0000DF5C0CE2DF50EA6AC10FE96E000EEA22D8
:102B1000EF50E66E6FDDE552DF2AF1D70001010EBE
:102B200032D0080EE66EE66A92DDE552E552DF6AC3
:102B3000080EDF5C0DE2080EDF24EA6AC10FE96EC1
:102B4000000EEA22EF50E66E55DDE552DF2AF0D79F
:102B50000001020E18D0E66A010EE66E78DDE5523D
:102B6000E552DF6A080EDF5C0CE2DF50EA6AD10F43
:102B7000E96E000EEA22EF50E66E3CDDE552DF2AF8
:102B8000F1D70001030EC06F1CD0080EE66E010ED7
:102B9000E66E5DDDE552E552DF6A080EDF5C0DE2B0
:102BA000080EDF24EA6AD10FE96E000EEA22EF5028
:102BB000E66E20DDE552DF2AF0D70001C06B01D0C0
:102BC000C06BE552E552E7CFD9FF1200D9CFE6FF3F
:102BD000E1CFD9FFE6520001C051010A1BE0010A12
:102BE00032E1E66AE66A33DDE552E552DF6A100E4D
:102BF000DF5C0CE2DF50EA6AC10FE96E000EEA22E8
:102C0000EF50E66EF7DCE552DF2AF1D70001010E46
:102C1000C06F1AD0E66A010EE66E19DDE552E55284
:102C2000DF6A100EDF5C0CE2DF50EA6AD10FE96E5A
:102C3000000EEA22EF50E66EDDDCE552DF2AF1D726
:102C40000001C06B01D0C06BE552E552E7CFD9FF60
:102C50001200D9CFE6FFE1CFD9FFE652E66AE66A75
:102C6000F6DCE552E552DF6A100EDF5C0CE2DF5065
:102C7000EA6AC10FE96E000EEA22EF50E66EBADC96
:102C8000E552DF2AF1D7E66A010EE66EE0DCE55296
:102C9000E552DF6A100EDF5C0CE2DF50EA6AD10F0A
:102CA000E96E000EEA22EF50E66EA4DCE552DF2A60
:102CB000F1D7E552E552E7CFD9FF1200D9CFE6FFB1
:102CC000E1CFD9FFFE0EDB50010B0001FC6FFD6B65
:102CD000FD0EDB500F0BFE6FFF6BFC0EDB500A0886
:102CE00002E1610E05D0FC0EDB500D0805E1640E1B
:102CF000F36EFC0EF3CFDBFFFCC014F0FDC015F04B
:102D0000040ED89014361536E806FBE1C10E1426E1
:102D1000000E152214500001FE25E96E1550FF210A
:102D2000EA6EFC0EDBCFEFFFE552E7CFD9FF1200D2
:102D3000D9CFE6FFE1CFD9FF020EE126DF6AFE0E12
:102D4000DB50010B0001FC6FFD6BFD0EDB500F0B28
:102D5000FE6FFF6BF90EDBCF14F0FA0EDBCF15F030
:102D6000FB0EDBCF16F0FC0EDBCF17F01450151066
:102D70001610171005E1300EE66E5ADEE552F5D05A
:102D8000D950F90FE96EFF0EDA20EA6ED890030EE3
:102D9000EB50000A08E6000EEE5C000EEE58000E46
:102DA000EE58000EEE5815E22D0EE66E41DEE552AD
:102DB000D950F90FE96EFF0EDA20EA6E000EEE6CC4
:102DC000EF1EEE22EF1EEE22EF1EEF22ED52ED522D
:102DD000ED52DE52070EDD6E010EDBCF14F0000E59
:102DE000E76E1418E8AE02D0143403D0E750D88050
:102DF000145401E3BAD0010EDB04186E196A18BE30
:102E0000196818C0E6FF19C0E6FF0A0EE66EE66A0A
:102E100045DCE552E552E552E55206C014F007C024
:102E200015F008C016F009C017F006C00BF007C077
:102E30000CF008C00DF009C00EF0F90EDBCF06F063
:102E4000FA0EDBCF07F0FB0EDBCF08F0FC0EDBCF7A
:102E500009F094EC26F0065007100810091041E024
:102E6000010EDF6EDB041C6E1D6A1CBE1D681CC0DB
:102E7000E6FF1DC0E6FF0A0EE66EE66A0FDCE552CD
:102E8000E552E552E55206C018F007C019F008C037
:102E90001AF009C01BF006C00BF007C00CF008C008
:102EA0000DF009C00EF0F90EDBCF06F0FA0EDBCF05
:102EB00007F0FB0EDBCF08F0FC0EDBCF09F094EC43
:102EC00026F006C014F007C015F008C016F009C0BF
:102ED00017F0300E1426000E152216221722145059
:102EE00003D0DF5004E0300EE66EA2DDE552010EA5
:102EF000DB04186E196A18BE196818C0E6FF19C0FD
:102F0000E6FF0A0EE66EE66A4EEC13F0E552E55275
:102F1000E552E55206C014F007C015F008C016F0DF
:102F200009C017F0D950F90FE96EFF0EDA20EA6EEA
:102F300006C00BF007C00CF008C00DF009C00EF081
:102F4000EECF06F0EECF07F0EECF08F0EFCF09F0AE
:102F500094EC26F005C0EDFF04C0EDFF03C0EDFFCB
:102F600002C0EFFF010EDB0637D7020EE15C02E282
:102F7000E16AE552E16EE552E7CFD9FF1200D9CF01
:102F8000E6FFE1CFD9FFFE0EDB50010B0001FC6F25
:102F9000FD6BFD0EDB500F0BFE6FFF6BFB0EDBCFEF
:102FA000F6FFFC0EDBCFF7FF0800F5500FE0FB0E3D
:102FB000DBCFF6FFDB2AFC0EDBCFF7FF01E3DB2ADA
:102FC0000800F550E66E34DDE552E8D7E552E7CF6C
:042FD000D9FF120013
:0C2FD4000F0E946E82681200070E94101D
:102FE000946EDF0E9414946E82681200D9CFE6FFBF
:102FF000E1CFD9FF040EE126DE6ADD6ADECF14F0F0
:10300000DDCF15F0D890155004E6040E145C000EC8
:10301000155801E390D0DECFE9FFDDCFEAFF530E74
:10302000E9260F0EEA22EF1C826E020EDB6A030E07
:10303000DB6A020EDBCF14F0030EDBCF15F0D89065
:10304000155004E6040E145C000E15586EE2020ED4
:10305000DBCFE9FF030EDBCFEAFF570EE9260F0EA9
:10306000EA22EF5082143FE1DECF18F0DDCF19F0F5
:10307000D89018361936D89018361936020EDB500B
:103080001824E96E030EDB501920EA6ED890E93659
:10309000EA36330EE9260F0EEA22EECF16F0EFCF16
:1030A00017F0010E1626000E1722DECF14F0DDCF2A
:1030B00015F0D89014361536D89014361536020E01
:1030C000DB501424E96E030EDB501520EA6ED89015
:1030D000E936EA36330EE9260F0EEA2216C0EEFF75
:1030E00017C0EDFF1BD0DECF14F0DDCF15F0D89068
:1030F00014361536D89014361536020EDB501424CB
:10310000E96E030EDB501520EA6ED890E936EA36F8
:10311000330EE9260F0EEA22EE6AED6A020EDB2A72
:10312000030E01E286D7DB2A84D7DF2A010E01E2F3
:1031300065D7DB2A63D7040EE15C02E2E16AE5525F
:10314000E16EE552E7CFD9FF1200D9CFE6FFE1CF1C
:10315000D9FF040EE126DE6ADD6ADECF14F0DDCF92
:1031600015F0D890155004E6020E145C000E1558A8
:1031700001E391D0DECFE9FFDDCFEAFF530EE92670
:103180000F0EEA22EF1C8214826E020EDB6A030E1F
:10319000DB6A020EDBCF14F0030EDBCF15F0D89004
:1031A000155004E6040E145C000E15586EE2020E73
:1031B000DBCFE9FF030EDBCFEAFF570EE9260F0E48
:1031C000EA22EF5082143FE1DECF18F0DDCF19F094
:1031D000D89018361936D89018361936020EDB50AA
:1031E0001824E96E030EDB501920EA6ED890E936F8
:1031F000EA36330EE9260F0EEA22EECF16F0EFCFB5
:1032000017F0010E1626000E1722DECF14F0DDCFC8
:1032100015F0D89014361536D89014361536020E9F
:10322000DB501424E96E030EDB501520EA6ED890B3
:10323000E936EA36330EE9260F0EEA2216C0EEFF13
:1032400017C0EDFF1BD0DECF14F0DDCF15F0D89006
:1032500014361536D89014361536020EDB50142469
:10326000E96E030EDB501520EA6ED890E936EA3697
:10327000330EE9260F0EEA22EE6AED6A020EDB2A11
:10328000030E01E286D7DB2A84D7DF2A010E01E292
:1032900064D7DB2A62D7040EE15C02E2E16AE55200
:1032A000E16EE552E7CFD9FF1200D9CFE6FFE1CFBB
:1032B000D9FF040EE126DE6ADD6A020EDB6A030E28
:1032C000DB6A0F01531D8214826E020EDB6A030E4D
:1032D000DB6A020EDBCF14F0030EDBCF15F0D890C3
:1032E000155004E6040E145C000E15586EE2020E32
:1032F000DBCFE9FF030EDBCFEAFF570EE9260F0E07
:10330000EA22EF5082143FE1DECF18F0DDCF19F052
:10331000D89018361936D89018361936020EDB5068
:103320001824E96E030EDB501920EA6ED890E936B6
:10333000EA36330EE9260F0EEA22EECF16F0EFCF73
:1033400017F0010E1626000E1722DECF14F0DDCF87
:1033500015F0D89014361536D89014361536020E5E
:10336000DB501424E96E030EDB501520EA6ED89072
:10337000E936EA36330EE9260F0EEA2216C0EEFFD2
:1033800017C0EDFF1BD0DECF14F0DDCF15F0D890C5
:1033900014361536D89014361536020EDB50142428
:1033A000E96E030EDB501520EA6ED890E936EA3656
:1033B000330EE9260F0EEA22EE6AED6A020EDB2AD0
:1033C000030E01E286D7DB2A84D7040EE15C02E219
:1033D000E16AE552E16EE552E7CFD9FF1200D9CF9D
:1033E000E6FFE1CFD9FF040EE126DE6ADD6A020EB8
:1033F000DB6A030EDB6A010EDE6EDD6ADECFE9FFFB
:10340000DDCFEAFF530EE9260F0EEA22EF1C8214ED
:10341000826E020EDB6A030EDB6A020EDBCF14F053
:10342000030EDBCF15F0D890155004E6030E145CA4
:10343000000E15586EE2020EDBCFE9FF030EDBCF64
:10344000EAFF570EE9260F0EEA22EF5082143FE101
:10345000DECF18F0DDCF19F0D89018361936D89095
:1034600018361936020EDB501824E96E030EDB50B5
:103470001920EA6ED890E936EA36330EE9260F0EA7
:10348000EA22EECF16F0EFCF17F0010E1626000E4F
:103490001722DECF14F0DDCF15F0D8901436153694
:1034A000D89014361536020EDB501424E96E030E44
:1034B000DB501520EA6ED890E936EA36330EE9265D
:1034C0000F0EEA2216C0EEFF17C0EDFF1BD0DECFB5
:1034D00014F0DDCF15F0D89014361536D890143688
:1034E0001536020EDB501424E96E030EDB50152056
:1034F000EA6ED890E936EA36330EE9260F0EEA2254
:10350000EE6AED6A020EDB2A030E01E286D7DB2AA1
:1035100084D7040EE15C02E2E16AE552E16EE55215
:10352000E7CFD9FF1200D9CFE6FFE1CFD9FF040ED4
:10353000E126DE6ADD6ADECF14F0DDCF15F0FD0E88
:10354000DBCF16F0FE0EDBCF17F015501718E8AEE4
:1035500002D0173404D01650145C175015581DE2D1
:10356000020EDB6A030EDB6A020EDBCF14F0030EE1
:10357000DBCF15F0D890155004E6EE0E145C000E6B
:10358000155806E2020EDB2A030EEEE3DB2AECD727
:10359000DF2A010ED0E3DB2ACED7040EE15C02E283
:1035A000E16AE552E16EE552E7CFD9FF1200D9CFCB
:1035B000E6FFE1CFD9FF040EE126DE6ADD6ADECF49
:1035C00014F0DDCF15F0D890155004E6040E145C0D
:1035D000000E155875E2DECFE9FFDDCFEAFF530E8E
:1035E000E9260F0EEA22EF1C826E020EDB6A030E42
:1035F000DB6A020EDBCF14F0030EDBCF15F0D890A0
:10360000155004E6040E145C000E15584AE2DECF95
:1036100014F0DDCF15F0D89014361536D890143646
:103620001536020EDB501424E96E030EDB50152014
:10363000EA6ED890E936EA36330EE9260F0EEA2212
:10364000EE6AED6A020EDBCFE9FF030EDBCFEAFF85
:10365000570EE9260F0EEA22EF5082141CE1DECF4E
:1036600014F0DDCF15F0D89014361536D8901436F6
:103670001536020EDB501424E96E030EDB501520C4
:10368000EA6ED890E936EA36330EE9260F0EEA22C2
:10369000010EEE6EED6A020EDB2A030EAAE3DB2AB0
:1036A000A8D78250816EE80EE66E030EE66E3BDF11
:1036B000E552E552DF2A010E01E281D7DB2A7FD7EE
:1036C000040EE15C02E2E16AE552E16EE552E7CF09
:1036D000D9FF1200D9CFE6FF040EE12684B005D051
:1036E0000F01332B000E342303D00F01336B346BE7
:1036F00084B204D0352B000E362302D0356B366BE6
:1037000084B404D0372B000E382302D0376B386BCB
:1037100082B004D0392B000E3A2302D0396B3A6BB9
:1037200082B204D03B2B000E3C2302D03B6B3C6B9F
:1037300082B404D03D2B000E3E2302D03D6B3E6B85
:1037400082BA04D03F2B000E402302D03F6B406B67
:1037500081B004D0412B000E422302D0416B426B5A
:10376000040EE15C02E2E16AE552E16EE552E7CF68
:10377000D9FF1200070E9610966E270E9410946EC5
:08378000010E9310936E12007C
:08378800D9CFE6FFE1CFD9FF24
:10379000D59EFD0EDBCF5BFFFE0EDBCF5CFFD59C25
:1037A00017681868196A5BCF1AF05CCF1BF01C6AA7
:1037B0001A50175C146E1B501858156E1C5019586F
:1037C000166E0C6A010E0D6E0E6A14C007F015C05D
:1037D00008F016C009F06BEC25F00350D66E1768A0
:1037E0001868196A5BCF1AF05CCF1BF01C6A1A507C
:1037F000175C146E1B501858156E1C501958166E15
:103800000C6A010E0D6E0E6A14C007F015C008F0A8
:1038100016C009F06BEC25F007C014F008C015F0D5
:1038200009C016F00750D76ED59AD586F28AF29461
:10383000F184D58EE552E7CFD9FF1200D59E120054
:1038400017681868196A5BCF1AF05CCF1BF01C6A06
:103850001A50175C146E1B501858156E1C501958CE
:10386000166E0C6A010E0D6E0E6A14C007F015C0BC
:1038700008F016C009F06BEC25F00350D66E1768FF
:103880001868196A5BCF1AF05CCF1BF01C6A1A50DB
:10389000175C146E1B501858156E1C501958166E74
:1038A0000C6A010E0D6E0E6A14C007F015C008F008
:1038B00016C009F06BEC25F007C014F008C015F035
:1038C00009C016F00750D76ED58E1200D9CFE6FF8B
:1038D000E1CFD9FFCD90FD0EDBCF5DFFFE0EDBCF3C
:1038E0005EFF17681868196A5DCF1AF05ECF1BF08B
:1038F0001C6A1A50175C146E1B501858156E1C5019
:103900001958166E0C6A010E0D6E0E6A14C007F07F
:1039100015C008F016C009F06BEC25F00750CF6E0B
:1039200017681868196A5DCF1AF05ECF1BF01C6A21
:103930001A50175C146E1B501858156E1C501958ED
:10394000166E0C6A010E0D6E0E6A14C007F015C0DB
:1039500008F016C009F06BEC25F003C014F004C0A9
:1039600015F005C016F00350CE6E9D809E909F907E
:10397000CD8ECD8CCD98CD9ACD96CD92CD80E55281
:10398000E7CFD9FF120017681868196A5DCF1AF0DF
:103990005ECF1BF01C6A1A50175C146E1B5018582F
:1039A000156E1C501958166E0C6A010E0D6E0E6ABB
:1039B00014C007F015C008F016C009F06BEC25F034
:1039C0000750CF6E17681868196A5DCF1AF05ECF7E
:1039D0001BF01C6A1A50175C146E1B501858156E99
:1039E0001C501958166E0C6A010E0D6E0E6A14C02A
:1039F00007F015C008F016C009F06BEC25F003C005
:103A000014F004C015F005C016F00350CE6ECD8042
:103A10001200CD901200D9CFE6FFE1CFD9FFCA94B2
:103A2000CC6AFE0EDB500F015F6F606BCB6E9D8228
:103A30009E929F92CA90CA92CA84E552E7CFD9FF5C
:103A400012005FCFCBFFCA841200CA941200D9CFF4
:103A5000E6FFE1CFD9FFB190FD0EDBCF61FFFE0E97
:103A6000DBCF62FF17681868196A61CF1AF062CF5E
:103A70001BF01C6A1A50175C146E1B501858156EF8
:103A80001C501958166E0C6A010E0D6E0E6A14C089
:103A900007F015C008F016C009F06BEC25F00750D0
:103AA000B36E17681868196A61CF1AF062CF1BF0FD
:103AB0001C6A1A50175C146E1B501858156E1C5057
:103AC0001958166E0C6A010E0D6E0E6A14C007F0BE
:103AD00015C008F016C009F06BEC25F003C014F017
:103AE00004C015F005C016F00350B26EA082A1927A
:103AF000A292B18EB198B19AB192B180E552E7CF5E
:103B0000D9FF120017681868196A61CF1AF062CFDE
:103B10001BF01C6A1A50175C146E1B501858156E57
:103B20001C501958166E0C6A010E0D6E0E6A14C0E8
:103B300007F015C008F016C009F06BEC25F0035033
:103B4000B26E17681868196A61CF1AF062CF1BF05D
:103B50001C6A1A50175C146E1B501858156E1C50B6
:103B60001958166E0C6A010E0D6E0E6A14C007F01D
:103B700015C008F016C009F06BEC25F007C014F072
:103B800008C015F009C016F00750B36EB1801200DE
:103B9000B19012000F016B2B000E6C2373516B5D03
:103BA00074516C5904E36B6B6C6B010E636F120004
:103BB0000F016D2B000E6E2375516D5D76516E59A0
:103BC00004E36D6B6E6B010E646F12000F016F2BBF
:103BD000000E702377516F5D7851705904E36F6B5D
:103BE000706B010E656F12000F01712B000E7223B6
:103BF0007951715D7A51725904E3716B726B010EE8
:103C0000666F1200D9CFE6FFE1CFD9FFFD0EDBCF03
:103C100073FFFE0EDBCF74FF0F016B6B6C6B636B7E
:103C2000E552E7CFD9FF1200D9CFE6FFE1CFD9FFA8
:103C3000FD0EDBCF75FFFE0EDBCF76FF050E0D6EA2
:103C40000E6A75CF08F076CF09F045EC25F008C074
:103C500075FF09C076FF0F016D6B6E6B646BE552EB
:103C6000E7CFD9FF1200D9CFE6FFE1CFD9FFFD0E94
:103C7000DBCF79FFFE0EDBCF7AFF0A0E0D6E0E6AE8
:103C800079CF08F07ACF09F045EC25F008C079FF2C
:103C900009C07AFF0F01716B726B666BE552E7CF5B
:043CA000D9FF120036
:0C3CA400B06A810EAF6EAC8AAC94B8869A
:103CB000AC98AB8EAB889E9A9D8A9F8A949C948E7A
:103CC0001200D9CFE6FFE1CFD9FF040EE126DE6A6C
:103CD000DD6ADECF14F0DDCF15F0FD0EDBCF16F080
:103CE000FE0EDBCF17F015501718E8AE02D01734D0
:103CF00004D01650145C175015581DE2020EDB6AF2
:103D0000030EDB6A020EDBCF14F0030EDBCF15F0DF
:103D1000D890155004E6EE0E145C000E155806E21D
:103D2000020EDB2A030EEEE3DB2AECD7DF2A010EBC
:103D3000D0E3DB2ACED7040EE15C02E2E16AE55271
:103D4000E16EE552E7CFD9FF1200D9CFE6FFE1CF10
:103D5000D9FF9EA8FED7FE0EDB50AD6E9E98E552B1
:103D6000E7CFD9FF1200D9CFE6FFE1CFD9FFFD0E93
:103D7000DBCFE9FFFE0EDBCFEAFFEF5010E0FD0ED8
:103D8000DBCFE9FFFE0EDBCFEAFFEF50E66EDDDFB3
:103D9000E552FD0EDB2AFE0EEAE3DB2AE8D7E55208
:103DA000E7CFD9FF1200D9CFE6FFE1CFD9FFFD0E53
:103DB000DBCFF6FFFE0EDBCFF7FF0800F55015E076
:103DC000FD0EDBCFF6FFFE0EDBCFF7FF0800F55050
:103DD000E66EBBDFE552FD0EDBCFF6FFDB2AFE0E03
:103DE000DBCFF7FFE4E3DB2AE2D7E552E7CFD9FFE9
:103DF0001200D9CFE6FFE1CFD9FF020EE126DF6A3C
:103E0000FB0EDBCF14F0FC0EDBCF15F0FD0EDBCF8D
:103E100016F0FE0EDBCF17F0145015101610171009
:103E200005E1300EE66E91DFE552F4D0D950FB0F7C
:103E3000E96EFF0EDA20EA6ED890030EEB50000A0E
:103E400008E6000EEE5C000EEE58000EEE58000E76
:103E5000EE5815E22D0EE66E78DFE552D950FB0FD5
:103E6000E96EFF0EDA20EA6E000EEE6CEF1EEE2217
:103E7000EF1EEE22EF1EEF22ED52ED52ED52DE521A
:103E80000A0EDD6E010EDBCF14F0000EE76E141883
:103E9000E8AE02D0143403D0E750D880145401E3C4
:103EA000B9D0010EDB04186E196A18BE196818C063
:103EB000E6FF19C0E6FF0A0EE66EE66AB5D8E552DF
:103EC000E552E552E55206C014F007C015F008C0EF
:103ED00016F009C017F006C00BF007C00CF008C0C0
:103EE0000DF009C00EF0FB0EDBCF06F0FC0EDBCFB1
:103EF00007F0FD0EDBCF08F0FE0EDBCF09F094ECEF
:103F000026F0065007100810091041E0010EDF6E80
:103F1000DB041C6E1D6A1CBE1D681CC0E6FF1DC0B4
:103F2000E6FF0A0EE66EE66A7FD8E552E552E552F4
:103F3000E55206C018F007C019F008C01AF009C011
:103F40001BF006C00BF007C00CF008C00DF009C054
:103F50000EF0FB0EDBCF06F0FC0EDBCF07F0FD0E04
:103F6000DBCF08F0FE0EDBCF09F094EC26F006C0A4
:103F700014F007C015F008C016F009C017F0300E95
:103F80001426000E152216221722145003D0DF50DB
:103F900004E0300EE66ED9DEE552010EDB04186E49
:103FA000196A18BE196818C0E6FF19C0E6FF0A0EA4
:103FB000E66EE66A39D8E552E552E552E55206C0AA
:103FC00014F007C015F008C016F009C017F0D9505A
:103FD000FB0FE96EFF0EDA20EA6E06C00BF007C099
:103FE0000CF008C00DF009C00EF0EECF06F0EECFD9
:103FF00007F0EECF08F0EFCF09F094EC26F005C003
:10400000EDFF04C0EDFF03C0EDFF02C0EFFF010EA6
:10401000DB0638D7020EE15C02E2E16AE552E16EAE
:10402000E552E7CFD9FF1200D9CFE6FFE1CFD9FFA4
:10403000050EE126010EF36EDB6E020EDB6A030E47
:10404000DB6A040EDB6ADF6ADFCF14F0156A14BE88
:104050001568FB0EDBCF16F0FC0EDBCF17F015500A
:104060001718E8AE02D0173404D01650145C17505D
:1040700015582DE2FD0EDBCF14F0FE0EDBCF15F050
:10408000166A176A15AE02D016681768D950010F64
:10409000E96EDACFEAFF14C00BF015C00CF016C0C1
:1040A0000DF017C00EF0EECF06F0EECF07F0EECF1A
:1040B00008F0EFCF09F05CEC26F005C0EDFF04C07E
:1040C000EDFF03C0EDFF02C0EFFFDF2ABDD7010EF9
:1040D000DBCF14F0020EDBCF15F0030EDBCF16F0B2
:1040E000040EDBCF17F014C006F015C007F016C0A1
:1040F00008F017C009F0050EE15C02E2E16AE55242
:0A410000E16EE552E7CFD9FF12008F
:06410A00D9CFE6FFE1CF72
:10411000D9FF020EE126FE0EDB500F0BDF6EFE0E06
:10412000DB380F0B0A0D010EF3CFDBFFDB50DF2472
:10413000146E020EE15C02E2E16AE552E16E145097
:10414000E552E7CFD9FF1200D9CFE6FFE1CFD9FF83
:10415000020EE1260A0E146E0E6EFE0EDBCF09F083
:1041600025EC27F00550DF6E0A0E146E0E6EFE0E63
:10417000DBCF09F025EC27F00950100D010EF3CF2D
:10418000DBFFDB50DF24146E020EE15C02E2E16A29
:10419000E552E16E1450E552E7CFD9FF1200948644
:1041A0009488C79EC79CC690C692C694C686310E98
:1041B000C86EC68A1200D9CFE6FFE1CFD9FF9E961E
:1041C000FE0EDB50D00FC96E9EA6FED7E552E7CF9C
:1041D000D9FF1200D9CFE6FFE1CFD9FF9E96FE0EA0
:1041E000DB50A00FC96E9EA6FED7E552E7CFD9FFE0
:1041F00012009E96C5809EA6FED712009E96C5848C
:104200009EA6FED71200D9CFE6FFE1CFD9FF9E963A
:10421000FE0EDB50C96E9EA6FED7E552E7CFD9FF52
:1042200012009E96C5869EA6FED7C95012009E9685
:10423000C59AC5889EA6FED712009E96C58AC588D7
:104240009EA6FED71200D9CFE6FFE1CFD9FFD1DF7E
:10425000E66AB1DFE5520F01010E7B6FE85004E022
:10426000C550400BFAE0F8D7FE0EDBCFE6FFCBDF00
:10427000E5520F01010E7B6FE85004E0C550400B82
:10428000FAE0F8D7FD0EDBCFE6FF5EDFE552E66E23
:10429000BADFE5520F01010E7B6FE85004E0C55014
:1042A000400BFAE0F8D7AADFE552E7CFD9FF1200BA
:1042B000D9CFE6FFE1CFD9FF9CDFE66A8BDFE5527D
:1042C0000F01010E7B6FE85004E0C550400BFAE08F
:1042D000F8D7FE0EDBCFE6FF96DFE5520F01010EA9
:1042E0007B6FE85004E0C550400BFAE0F8D7FD0EB4
:1042F000DBCF14F0FE0EDBCF15F00001156A145071
:10430000E66E81DFE5520F01010E7B6FE85004E09D
:10431000C550400BFAE0F8D7FC0EDBCFE6FF73DFA9
:10432000E5520F01010E7B6FE85004E0C550400BD1
:10433000FAE0F8D763DFE552E7CFD9FF1200D9CF13
:10434000E6FFE1CFD9FFE65254DFE66A34DFE552FB
:104350000F01010E7B6FE85004E0C550400BFAE0FE
:10436000F8D7FE0EDBCFE6FF4EDFE5520F01010E60
:104370007B6FE85004E0C550400BFAE0F8D739DF16
:10438000010EE66E18DFE5520F01010E7B6FE8505B
:1043900004E0C550400BFAE0F8D743DFDF6EDFCF13
:1043A000E6FFB3DEE552DF6EDF50E552E552E7CFC0
:1043B000D9FF1200D9CFE6FFE1CFD9FFE65219DFCE
:1043C000E66A08DFE5520F01010E7B6FE85004E05A
:1043D000C550400BFAE0F8D7FE0EDBCFE6FF13DF47
:1043E000E5520F01010E7B6FE85004E0C550400B11
:1043F000FAE0F8D7FD0EDBCF14F0FE0EDBCF15F0A0
:104400000001156A1450E66EFEDEE5520F01010E42
:104410007B6FE85004E0C550400BFAE0F8D7E9DEC6
:10442000010EE66ED7DEE5520F01010E7B6FE850FC
:1044300004E0C550400BFAE0F8D7F3DEDF6EDF5042
:0A444000E552E552E7CFD9FF120064
:06444A0043415554494FA7
:104450004E204D4F44450D0A005B4D414E55414C99
:104460005D524544005B4D414E55414C5D59454CB4
:104470004C4F573A20005B4D414E55414C5D4752E1
:1044800045454E0D0A005B4D414E55414C5D524530
:10449000440D0A002D2D2D2D2D4D414E55414C2002
:1044A0004D4F44452D2D2D2D2D0D0A00596F757240
:1044B000207265642074696D65206973206E6F7762
:1044C00020005375636365737366756C6C79206344
:1044D00068616E67656420677265656E2074696DDA
:1044E0006520746F2000596F752065736361706576
:1044F000642066726F6D2073657420677265656EE7
:10450000206D6F646520776974686F7574207361BE
:1045100076696E672E0D0A002D2D00557365206299
:104520007574746F6E7320696E20796F7572206276
:104530006F61726420746F206368616E67652067C5
:104540007265656E2074696D652E2E2E0D0A002829
:1045500031302D3939290053455420475245454EB5
:104560002054494D4500207365636F6E64732E0DB2
:104570000A005375636365737366756C6C792063A9
:1045800068616E6765642079656C6C6F772074690B
:104590006D6520746F2000596F75206573636170BD
:1045A00065642066726F6D207365742079656C6C2C
:1045B0006F77206D6F646520776974686F757420FC
:1045C000736176696E672E0D0A002D0055736520A4
:1045D000627574746F6E7320696E20796F757220C6
:1045E000626F61726420746F206368616E6765201A
:1045F00079656C6C6F772074696D652E2E2E0D0AAF
:104600000028312D3929005345542059454C4C4F31
:10461000572054494D45005B526F616420315D590C
:10462000454C4C4F573A20005B526F616420325D1D
:104630005245443A20005B526F616420315D47521D
:1046400045454E3A200052454400475245454E00EC
:104650005B526F616420325D59454C4C4F573A2094
:104660000059454C4C4F57005B526F616420325DDE
:10467000475245454E3A20000D0A005B526F616477
:1046800020315D5245443A2000475245454E2000B6
:10469000524544202020002D2D2D2D2D4155544FC5
:1046A0004D41544943204D4F44452D2D2D2D2D0D69
:1046B0000A002D2D2D2D2D5345542054494D4520B4
:1046C0004D4F44452D2D2D2D2D0D0A00202020204D
:1046D000202020202020202020202020003C0042DC
:1046E00061636B20746F206D656E752E0D0A00532B
:1046F000657420677265656E2074696D65203D2064
:1047000000206279207573696E6720554152542EDE
:104710000D0A005365742079656C6C6F772074699D
:104720006D65203D2000496E76616C696420746976
:104730006D652E20506C65617365207472792061FF
:104740006761696E2E0D0A0043415554494F4E0072
:104750004D414E55414C005345542054494D450060
:104760004155544F002020202020202020202020B0
:06477000202020202000A3
:0A477600F28ED08EF28C1200F19C3E
:10478000F292F2881200D8CFE4FFE0CFE4FFE46EAB
:10479000DACFE4FFE2CFDAFFE9CFE4FFEACFE4FFCC
:1047A000F6CFE4FFF7CFE4FFF5CFE4FFF3CFE4FF6C
:1047B000F4CFE4FFFACFE4FF00EE00F0140EE804BB
:1047C00003E3EECFE4FFFBD700EE14F00A0EE8049B
:1047D00003E3EECFE4FFFBD7E652F2A407D01EECD2
:1047E0001CF0F29420EC1CF0CAEC1DF09EA007D047
:1047F00009EC1DF09E90C3EC1CF0D8EC1DF09EA2BD
:1048000007D025EC1DF09E9221EC1DF0E6EC1DF08A
:10481000A1A207D0C8EC1DF0A19282EC1DF0F4EC2F
:104820001DF0F2B2F2929EAA03D09E9A40EC00F0E4
:10483000E55200EE1DF00A0EE80403E3E5CFEDFFBC
:10484000FBD700EE13F0140EE80403E3E5CFEDFF11
:10485000FBD7E5CFFAFFE5CFF4FFE5CFF3FFE5CFD8
:10486000F5FFE5CFF7FFE5CFF6FFE5CFEAFFE5CFB0
:10487000E9FFE5CFDAFFE550E5CFE0FFE5CFD8FF70
:104880001000DACFE4FFE2CFDAFFE9CFE4FFEACFAE
:10489000E4FFF6CFE4FFF7CFE4FFF5CFE4FFF3CF7B
:1048A000E4FFF4CFE4FFFACFE4FF00EE00F0140ED3
:1048B000E80403E3EECFE4FFFBD700EE14F00A0EAA
:1048C000E80403E3EECFE4FFFBD7E652F2A407D0FF
:1048D0001EEC1CF0F29420EC1CF0CAEC1DF09EA023
:1048E00007D009EC1DF09E90C3EC1CF0D8EC1DF035
:1048F000A1A207D0C8EC1DF0A19282EC1DF0F4EC4F
:104900001DF0F2B2F2929EAA03D09E9A40EC00F003
:10491000E55200EE1DF00A0EE80403E3E5CFEDFFDB
:10492000FBD700EE13F0140EE80403E3E5CFEDFF30
:10493000FBD7E5CFFAFFE5CFF4FFE5CFF3FFE5CFF7
:10494000F5FFE5CFF7FFE5CFF6FFE5CFEAFFE5CFCF
:08495000E9FFE5CFDAFF1100D9
:08495800D9CFE6FFE1CFD9FF42
:10496000E652AE50DF6EDFCFE6FFA5EC1EF0E5525B
:1049700002011C51050A2AE0010A21E0070A11E0A0
:10498000010A0AE0020A02E0010A2AE1FE0EDF5CE7
:1049900028E11F6B020E22D0FE0EDF5C15E1030E34
:1049A0001DD01F51EA6A8D0FE96E010EEA22DFCF9A
:1049B000EFFF1F2B21511F5D14E3040E0FD0FF0EDC
:1049C000DF5C02E1050E0AD0010E08D0FF0EDF5CAD
:1049D00004E1010E1D6F1C6B04D0010E1C6F01D091
:1049E0001C6BE552E552E7CFD9FF1200120002011D
:1049F0001D054AE1650EE66E470EE66EE66AE66A5A
:104A0000BFEC17F0E552E552E552E55201018C6B1F
:104A10000201215101018C5D21E28C51EA6A8D0F66
:104A2000E96E010EEA22EFCF14F0156A166A176AD2
:104A300014C0E6FF15C0E6FF16C0E6FF17C0E6FF8C
:104A4000030E8C03F350E66EE66A98EC16F0186ECF
:104A5000060EE15E185001018C2BDAD71CC214F04F
:104A6000156A166A176A1CC2E6FF15C0E6FF16C073
:104A7000E6FF17C0E6FF0F0EE66EE66A98EC16F04A
:0A4A8000186E060EE15E18501200D9
:064A8A00006A0EAE4EEFC3
:104A900025F00D6C0E1EE86A0E22001E09AE56EFC0
:104AA00025F0086C091EE86A0922001EF1EC26F0C8
:104AB00009BE66EF25F000AE000C086C091EE86A1E
:104AC0000922046C051EE86A0522000C00BE5DEF99
:104AD00025F00188FF0C006A0EAE76EF25F00C6C15
:104AE0000D1E0E1EE86A0D220E22001E09AE80EF7A
:104AF00025F0076C081E091EE86A08220922001E1C
:104B0000B8EC26F009BE93EF25F000AE000C076C60
:104B1000081E091EE86A08220922036C041E051EED
:104B200004220522000C00BE87EF25F00188FF0C4F
:104B300009C013F008C012F008500D02F4CF07F0BE
:104B4000F3CF06F009500E02F4CF09F0F3CF08F0CE
:104B50000D02F3500726F4500822E86A0922125089
:104B60000E02F3500726F4500822E86A09220EAE1E
:104B7000BEEF25F01250085E1350095A13AE000C18
:0A4B80000D50085E0E50095A000C9B
:064B8A001E0EF66E000E87
:104B9000F76E000EF86E01010900F550F66F09007E
:104BA000F550F76F03E1F66701D03DD00900F550ED
:104BB000F16F0900F550F26F0900F550F36F09002D
:104BC0000900F550E96E0900F550EA6E0900090088
:104BD0000900F550F46F0900F550F56F0900090060
:104BE000F6CFF8F1F7CFF9F1F8CFFAF1F1C1F6FF0E
:104BF000F2C1F7FFF3C1F8FF0101F45302E1F553ED
:104C000007E00900F550EE6EF407F8E2F507F9D772
:104C1000F8C1F6FFF9C1F7FFFAC1F8FF0101F60785
:084C2000000EF75BBFD7120084
:084C2800010E926E0E0EC16E2A
:104C3000C26A040EC06EC2801200D9CFE6FFE1CF77
:104C4000D9FF020EE126DE6ADD6AC282C2B2FED759
:104C5000C450DE6EDD6ADECF16F0DDCF17F0D890DF
:104C600016361736D89016361736060EC3CFE7FF1E
:104C7000070B04E0E742E79EE806FCE1E750162454
:104C8000146E000E172014C0DEFFDD6EDECF00F2C2
:104C9000DDCF01F2DECF14F0DDCF15F014C0F3FF4D
:104CA00015C0F4FF020EE15C02E2E16AE552E16E3A
:084CB000E552E7CFD9FF120025
:084CB80006500B02F3CF02F0DD
:104CC000F4CF03F00C02F3500326000EF420046E20
:104CD00006500D02F3500426000EF420056E065017
:104CE0000E02F350052607500B02F3500326F45032
:104CF0000422000E052207500C02F3500426F45043
:104D0000052207500D02F350052608500B02F35000
:104D10000426F450052208500C02F35005260950D1
:084D20000B02F35005261200FE
:084D2800056A046A036A026ACD
:104D3000200EE76ED890063607360836093602365A
:104D40000336043605360B50025C0C5003580D50E8
:104D500004580E50055809E30B50025E0C50035ADC
:104D60000D50045A0E50055A062AE72EE4D71200B9
:104D7000056A046A036A180EE76ED890073608368B
:104D800009360336043605360C50035C0D500458C2
:104D90000E50055807E30C50035E0D50045A0E5098
:0A4DA000055A072AE72EEAD7120091
:064DAA00CA94CA90CA82FF
:104DB0009B0ECB6EBD98BD9ABE6ABD9CBD9EBD903C
:104DC000BD92BD84BD869494CA841200D9CFE6FFFB
:104DD000E1CFD9FFFE0EDB50BE6EE552E7CFD9FF23
:024DE0001200BF
:0E4DE200056A046A100EE76ED890083609368E
:104DF000043605360D50045C0E50055805E30D5081
:0E4E0000045E0E50055A082AE72EF0D7120065
:024E0E00800E14
:104E1000F36E00EE00F00F0E01D81200EA6002D02F
:0E4E2000EE6AFCD7F350E9601200EE6AFCD790
:024E2E001EEE76
:104E300000F02EEE00F0F86A019CC5EC25F003ECC2
:0A4E400000F08DEC02F0FBD7120029
:064E4A00056A080EE76E88
:104E5000D890093605360E50055C02E3056E092A26
:064E6000E72EF7D7120057
:0A4E66000000000000000000000042
:104E70000000000000000000000000000000010031
:064E800001000100010029
:0A4E86000000000000000005050018
:094E900000000000000000000019
:074E99000102040810204093
:104EA000800000000000000000010203410405062C
:104EB00042070809432A0045440102030402070887
:104EC00009030303030408060805414243FF0000E9
:104ED0000100FF0000000000000B000B00070007AE
:104EE000000400040003006047574750474847004C
:104EF000000003009F0025000D00990049004100BB
:104F00001F00010009000D00010204050608090A3E
:104F10000000000000000000000000000000000091
:054F200000000000008C
:0B4F2500000000000000000010101051
:104F3000101010101018181818181818181C1C1C0D
:104F40001C1C1C1C1C1E1E1E1E1E1E1E1E1F1F1F88
:104F50001F1F1F1F1F0000000000000000000000B6
:104F60000000000000000000000000000000000041
:104F70000000000000000000000000000000000031
:064F80000000000000002B
:0A4F8600000000D0002222220725BF
:104F900009100001000000000000000000000000F7
:014FA0000010
:0F4FA10000000000000000000000000000000001
:104FB00000000000000000000000000000000000F1
:094FC000001020408001020408E9
:020000040030CA
:0100010002FC
:0100020003FA
:010003001EDE
:010005008179
:010006008178
:010008000FE8
:01000900C036
:01000A000FE6
:01000B00E014
:01000C000FE4
:01000D0040B2
:00000001FF
